{
  "address": "0x38fc78D1156eE53A6644E56EA60Af0C266eAFE2d",
  "abi": [
    {
      "inputs": [],
      "stateMutability": "nonpayable",
      "type": "constructor"
    },
    {
      "anonymous": false,
      "inputs": [
        {
          "indexed": true,
          "internalType": "bytes32",
          "name": "metaTxHash",
          "type": "bytes32"
        }
      ],
      "name": "CanceledMetaTx",
      "type": "event"
    },
    {
      "anonymous": false,
      "inputs": [
        {
          "indexed": true,
          "internalType": "bytes32",
          "name": "metaTxHash",
          "type": "bytes32"
        }
      ],
      "name": "ExecutedMetaTx",
      "type": "event"
    },
    {
      "anonymous": false,
      "inputs": [
        {
          "indexed": true,
          "internalType": "bytes32",
          "name": "rootRole",
          "type": "bytes32"
        },
        {
          "indexed": true,
          "internalType": "address",
          "name": "manager",
          "type": "address"
        },
        {
          "indexed": false,
          "internalType": "address",
          "name": "sender",
          "type": "address"
        }
      ],
      "name": "InitializedManager",
      "type": "event"
    },
    {
      "anonymous": false,
      "inputs": [
        {
          "indexed": true,
          "internalType": "bytes32",
          "name": "role",
          "type": "bytes32"
        },
        {
          "indexed": true,
          "internalType": "bytes32",
          "name": "adminRole",
          "type": "bytes32"
        },
        {
          "indexed": false,
          "internalType": "string",
          "name": "description",
          "type": "string"
        },
        {
          "indexed": false,
          "internalType": "address",
          "name": "sender",
          "type": "address"
        }
      ],
      "name": "InitializedRole",
      "type": "event"
    },
    {
      "anonymous": false,
      "inputs": [
        {
          "indexed": true,
          "internalType": "bytes32",
          "name": "role",
          "type": "bytes32"
        },
        {
          "indexed": true,
          "internalType": "bytes32",
          "name": "previousAdminRole",
          "type": "bytes32"
        },
        {
          "indexed": true,
          "internalType": "bytes32",
          "name": "newAdminRole",
          "type": "bytes32"
        }
      ],
      "name": "RoleAdminChanged",
      "type": "event"
    },
    {
      "anonymous": false,
      "inputs": [
        {
          "indexed": true,
          "internalType": "bytes32",
          "name": "role",
          "type": "bytes32"
        },
        {
          "indexed": true,
          "internalType": "address",
          "name": "account",
          "type": "address"
        },
        {
          "indexed": true,
          "internalType": "address",
          "name": "sender",
          "type": "address"
        }
      ],
      "name": "RoleGranted",
      "type": "event"
    },
    {
      "anonymous": false,
      "inputs": [
        {
          "indexed": true,
          "internalType": "bytes32",
          "name": "role",
          "type": "bytes32"
        },
        {
          "indexed": true,
          "internalType": "address",
          "name": "account",
          "type": "address"
        },
        {
          "indexed": true,
          "internalType": "address",
          "name": "sender",
          "type": "address"
        }
      ],
      "name": "RoleRevoked",
      "type": "event"
    },
    {
      "inputs": [],
      "name": "DEFAULT_ADMIN_ROLE",
      "outputs": [
        {
          "internalType": "bytes32",
          "name": "",
          "type": "bytes32"
        }
      ],
      "stateMutability": "view",
      "type": "function"
    },
    {
      "inputs": [
        {
          "components": [
            {
              "internalType": "address",
              "name": "from",
              "type": "address"
            },
            {
              "internalType": "address",
              "name": "to",
              "type": "address"
            },
            {
              "internalType": "bytes",
              "name": "data",
              "type": "bytes"
            },
            {
              "internalType": "uint256",
              "name": "expirationTimestamp",
              "type": "uint256"
            }
          ],
          "internalType": "struct IExpiringMetaTxForwarder.ExpiringMetaTx",
          "name": "metaTx",
          "type": "tuple"
        }
      ],
      "name": "cancel",
      "outputs": [],
      "stateMutability": "nonpayable",
      "type": "function"
    },
    {
      "inputs": [
        {
          "components": [
            {
              "internalType": "address",
              "name": "from",
              "type": "address"
            },
            {
              "internalType": "address",
              "name": "to",
              "type": "address"
            },
            {
              "internalType": "bytes",
              "name": "data",
              "type": "bytes"
            },
            {
              "internalType": "uint256",
              "name": "expirationTimestamp",
              "type": "uint256"
            }
          ],
          "internalType": "struct IExpiringMetaTxForwarder.ExpiringMetaTx",
          "name": "metaTx",
          "type": "tuple"
        },
        {
          "internalType": "bytes",
          "name": "signature",
          "type": "bytes"
        }
      ],
      "name": "execute",
      "outputs": [
        {
          "internalType": "bytes",
          "name": "returndata",
          "type": "bytes"
        }
      ],
      "stateMutability": "nonpayable",
      "type": "function"
    },
    {
      "inputs": [
        {
          "internalType": "bytes32",
          "name": "role",
          "type": "bytes32"
        }
      ],
      "name": "getRoleAdmin",
      "outputs": [
        {
          "internalType": "bytes32",
          "name": "",
          "type": "bytes32"
        }
      ],
      "stateMutability": "view",
      "type": "function"
    },
    {
      "inputs": [
        {
          "internalType": "bytes32",
          "name": "role",
          "type": "bytes32"
        },
        {
          "internalType": "address",
          "name": "account",
          "type": "address"
        }
      ],
      "name": "grantRole",
      "outputs": [],
      "stateMutability": "nonpayable",
      "type": "function"
    },
    {
      "inputs": [
        {
          "internalType": "bytes32",
          "name": "role",
          "type": "bytes32"
        },
        {
          "internalType": "address",
          "name": "account",
          "type": "address"
        }
      ],
      "name": "hasRole",
      "outputs": [
        {
          "internalType": "bool",
          "name": "",
          "type": "bool"
        }
      ],
      "stateMutability": "view",
      "type": "function"
    },
    {
      "inputs": [
        {
          "internalType": "address",
          "name": "manager",
          "type": "address"
        }
      ],
      "name": "initializeManager",
      "outputs": [],
      "stateMutability": "nonpayable",
      "type": "function"
    },
    {
      "inputs": [
        {
          "internalType": "bytes32",
          "name": "adminRole",
          "type": "bytes32"
        },
        {
          "internalType": "string",
          "name": "description",
          "type": "string"
        }
      ],
      "name": "initializeRoleAndGrantToSender",
      "outputs": [
        {
          "internalType": "bytes32",
          "name": "role",
          "type": "bytes32"
        }
      ],
      "stateMutability": "nonpayable",
      "type": "function"
    },
    {
      "inputs": [
        {
          "internalType": "address",
          "name": "forwarder",
          "type": "address"
        }
      ],
      "name": "isTrustedForwarder",
      "outputs": [
        {
          "internalType": "bool",
          "name": "",
          "type": "bool"
        }
      ],
      "stateMutability": "view",
      "type": "function"
    },
    {
      "inputs": [
        {
          "internalType": "bytes32",
          "name": "",
          "type": "bytes32"
        }
      ],
      "name": "metaTxWithHashIsExecutedOrCanceled",
      "outputs": [
        {
          "internalType": "bool",
          "name": "",
          "type": "bool"
        }
      ],
      "stateMutability": "view",
      "type": "function"
    },
    {
      "inputs": [
        {
          "internalType": "bytes[]",
          "name": "data",
          "type": "bytes[]"
        }
      ],
      "name": "multicall",
      "outputs": [
        {
          "internalType": "bytes[]",
          "name": "returndata",
          "type": "bytes[]"
        }
      ],
      "stateMutability": "nonpayable",
      "type": "function"
    },
    {
      "inputs": [
        {
          "internalType": "bytes32",
          "name": "role",
          "type": "bytes32"
        },
        {
          "internalType": "address",
          "name": "account",
          "type": "address"
        }
      ],
      "name": "renounceRole",
      "outputs": [],
      "stateMutability": "nonpayable",
      "type": "function"
    },
    {
      "inputs": [
        {
          "internalType": "bytes32",
          "name": "role",
          "type": "bytes32"
        },
        {
          "internalType": "address",
          "name": "account",
          "type": "address"
        }
      ],
      "name": "revokeRole",
      "outputs": [],
      "stateMutability": "nonpayable",
      "type": "function"
    },
    {
      "inputs": [
        {
          "internalType": "bytes4",
          "name": "interfaceId",
          "type": "bytes4"
        }
      ],
      "name": "supportsInterface",
      "outputs": [
        {
          "internalType": "bool",
          "name": "",
          "type": "bool"
        }
      ],
      "stateMutability": "view",
      "type": "function"
    },
    {
      "inputs": [
        {
          "internalType": "bytes[]",
          "name": "data",
          "type": "bytes[]"
        }
      ],
      "name": "tryMulticall",
      "outputs": [
        {
          "internalType": "bool[]",
          "name": "successes",
          "type": "bool[]"
        },
        {
          "internalType": "bytes[]",
          "name": "returndata",
          "type": "bytes[]"
        }
      ],
      "stateMutability": "nonpayable",
      "type": "function"
    }
  ],
  "transactionHash": "0x850585b151b8227256910a4f708c45c6c1655e21113550f6c5792a12799747ec",
  "args": [],
  "numDeployments": 1,
  "solcInputHash": "25407a176ddbeb57217ab03814154223",
  "bytecode": "0x61016060405234801561001157600080fd5b50604080518082018252601781527f4578706972696e674d6574615478466f727761726465720000000000000000006020808301918252835180850190945260058452640312e302e360dc1b90840190815230608052825190912083519091206101008290526101208190524660c0529192917f8b73c3c69bb8fe3d512ecc4cf759cc79239f7b179b0ffacaa9a75d522b39400f6100f48184846040805160208101859052908101839052606081018290524660808201523060a082015260009060c0016040516020818303038152906040528051906020012090509392505050565b60a0523060e052610140525061010992505050565b60805160a05160c05160e051610100516101205161014051611e2461016a60003960006116270152600061167601526000611651015260006115aa015260006115d4015260006115fe0152600081816101cc015261136a0152611e246000f3fe608060405234801561001057600080fd5b50600436106100f55760003560e01c806373e9836211610097578063a217fddf11610066578063a217fddf1461026c578063ac9650d814610274578063d547741f14610294578063e83a6888146102a757600080fd5b806373e98362146101fc5780637f7120fe1461020f57806391d14854146102225780639cd98f501461025957600080fd5b806336568abe116100d357806336568abe14610168578063437b91161461017b57806353b3a0e91461019c578063572b6c05146101bc57600080fd5b806301ffc9a7146100fa578063248a9ca3146101225780632f2ff15d14610153575b600080fd5b61010d610108366004611868565b6102ca565b60405190151581526020015b60405180910390f35b6101456101303660046118aa565b60009081526020819052604090206001015490565b604051908152602001610119565b6101666101613660046118df565b610363565b005b6101666101763660046118df565b61038d565b61018e61018936600461190b565b610426565b604051610119929190611a28565b6101af6101aa366004611adb565b61058c565b6040516101199190611b44565b61010d6101ca366004611b57565b7f00000000000000000000000000000000000000000000000000000000000000006001600160a01b0390811691161490565b61014561020a366004611b72565b6106da565b61016661021d366004611b57565b61083f565b61010d6102303660046118df565b6000918252602082815260408084206001600160a01b0393909316845291905290205460ff1690565b610166610267366004611bb1565b610952565b610145600081565b61028761028236600461190b565b6109fb565b6040516101199190611be6565b6101666102a23660046118df565b610b7c565b61010d6102b53660046118aa565b60016020526000908152604090205460ff1681565b60007fffffffff0000000000000000000000000000000000000000000000000000000082167f7965db0b00000000000000000000000000000000000000000000000000000000148061035d57507f01ffc9a7000000000000000000000000000000000000000000000000000000007fffffffff000000000000000000000000000000000000000000000000000000008316145b92915050565b60008281526020819052604090206001015461037e81610ba1565b6103888383610bb5565b505050565b60408051606083901b6bffffffffffffffffffffffff1916602080830191909152825160148184030181526034909201909252805191012082036104185760405162461bcd60e51b815260206004820152601c60248201527f726f6c6520697320726f6f7420726f6c65206f66206163636f756e740000000060448201526064015b60405180910390fd5b6104228282610c54565b5050565b606080828067ffffffffffffffff81111561044357610443611bf9565b60405190808252806020026020018201604052801561046c578160200160208202803683370190505b5092508067ffffffffffffffff81111561048857610488611bf9565b6040519080825280602002602001820160405280156104bb57816020015b60608152602001906001900390816104a65790505b50915060005b8181101561058357308686838181106104dc576104dc611c0f565b90506020028101906104ee9190611c25565b6040516104fc929190611c6c565b600060405180830381855af49150503d8060008114610537576040519150601f19603f3d011682016040523d82523d6000602084013e61053c565b606091505b5085838151811061054f5761054f611c0f565b6020026020010185848151811061056857610568611c0f565b602090810291909101019190915290151590526001016104c1565b50509250929050565b6060600061059985610cec565b90506105a86020860186611b57565b6001600160a01b03166105f385858080601f0160208091040260200160405190810160405280939291908181526020018383808284376000920191909152508693925050610e7b9050565b6001600160a01b0316146106495760405162461bcd60e51b815260206004820152601160248201527f496e76616c6964207369676e6174757265000000000000000000000000000000604482015260640161040f565b60405181907f21a3ff74a15d44b8f30ad1ee0774b65b86f1bff1e29938818a5d092a7d5674d990600090a26106d16106846040870187611c25565b6106916020890189611b57565b6040516020016106a393929190611c7c565b60408051601f198184030181529181526106c290880160208901611b57565b6001600160a01b031690610e9f565b95945050505050565b6000816107295760405162461bcd60e51b815260206004820152601660248201527f526f6c65206465736372697074696f6e20656d70747900000000000000000000604482015260640161040f565b6107698484848080601f016020809104026020016040519081016040528093929190818152602001838380828437600092019190915250610ee392505050565b60008181526020819052604090206001015490915061082c576107cc61078d610f15565b6040516bffffffffffffffffffffffff19606083901b166020820152600090603401604051602081830303815290604052805190602001209050919050565b84036107dd576107dd61021d610f15565b6107e78185610f24565b83817f532ead3ec09896bef1351791fbaad86ac03f3204090a8e7f173f41414b1fdac08585610814610f15565b60405161082393929190611ca2565b60405180910390a35b61083881610161610f15565b9392505050565b6001600160a01b0381166108955760405162461bcd60e51b815260206004820152601460248201527f4d616e616765722061646472657373207a65726f000000000000000000000000604482015260640161040f565b604080516bffffffffffffffffffffffff19606084901b16602080830191909152825180830360140181526034909201835281519181019190912060008181528083528381206001600160a01b03861682529092529190205460ff16610422576108ff8183610bb5565b816001600160a01b0316817f875abd51165f03877e956b2e4342de31979d7dd8d271176cf24151278f355a1d610933610f15565b6040516001600160a01b03909116815260200160405180910390a35050565b61095f6020820182611b57565b6001600160a01b0316610970610f15565b6001600160a01b0316146109c65760405162461bcd60e51b815260206004820152601960248201527f53656e646572206e6f74206d6574612d747820736f7572636500000000000000604482015260640161040f565b6109cf81610cec565b6040517f76faa962e536b8049aa3d58c074226dc3892669e0529b6722b618abdc17a1a3f90600090a250565b6060818067ffffffffffffffff811115610a1757610a17611bf9565b604051908082528060200260200182016040528015610a4a57816020015b6060815260200190600190039081610a355790505b50915060005b81811015610b7457600030868684818110610a6d57610a6d611c0f565b9050602002810190610a7f9190611c25565b604051610a8d929190611c6c565b600060405180830381855af49150503d8060008114610ac8576040519150601f19603f3d011682016040523d82523d6000602084013e610acd565b606091505b50858481518110610ae057610ae0611c0f565b6020908102919091010152905080610b6b576000848381518110610b0657610b06611c0f565b60200260200101519050600081511115610b235780518082602001fd5b60405162461bcd60e51b815260206004820152601b60248201527f4d756c746963616c6c3a204e6f2072657665727420737472696e670000000000604482015260640161040f565b50600101610a50565b505092915050565b600082815260208190526040902060010154610b9781610ba1565b6103888383610f6f565b610bb281610bad610f15565b61100c565b50565b6000828152602081815260408083206001600160a01b038516845290915290205460ff16610422576000828152602081815260408083206001600160a01b03851684529091529020805460ff19166001179055610c10610f15565b6001600160a01b0316816001600160a01b0316837f2f8788117e7eff1d82e926ec794901d17c78024a50270940304540a733656f0d60405160405180910390a45050565b610c5c610f15565b6001600160a01b0316816001600160a01b031614610ce25760405162461bcd60e51b815260206004820152602f60248201527f416363657373436f6e74726f6c3a2063616e206f6e6c792072656e6f756e636560448201527f20726f6c657320666f722073656c660000000000000000000000000000000000606482015260840161040f565b6104228282610f6f565b6000610da57feb7570743e0c7ddd184b4a7bbb0938300819da235addf7adbe52ac0fd355d621610d1f6020850185611b57565b610d2f6040860160208701611b57565b610d3c6040870187611c25565b604051610d4a929190611c6c565b6040805191829003822060208301959095526001600160a01b0393841690820152911660608083019190915260808201929092529084013560a082015260c0016040516020818303038152906040528051906020012061107f565b60008181526001602052604090205490915060ff1615610e075760405162461bcd60e51b815260206004820152601c60248201527f4d6574612d7478206578656375746564206f722063616e63656c656400000000604482015260640161040f565b42826060013511610e5a5760405162461bcd60e51b815260206004820152600f60248201527f4d6574612d747820657870697265640000000000000000000000000000000000604482015260640161040f565b6000818152600160208190526040909120805460ff19169091179055919050565b6000806000610e8a8585611092565b91509150610e97816110d7565b509392505050565b6060610838838360006040518060400160405280601e81526020017f416464726573733a206c6f772d6c6576656c2063616c6c206661696c6564000081525061123c565b60006108388383604051602001610efa9190611ce4565b60405160208183030381529060405280519060200120611330565b6000610f1f611366565b905090565b600082815260208190526040808220600101805490849055905190918391839186917fbd79b86ffe0ab8e8776151514217cd7cacd52c909f66475c3af44e129f0b00ff9190a4505050565b6000828152602081815260408083206001600160a01b038516845290915290205460ff1615610422576000828152602081815260408083206001600160a01b03851684529091529020805460ff19169055610fc8610f15565b6001600160a01b0316816001600160a01b0316837ff6391f5c32d9c69d2a47ea670b442974b53935d1edc7fd64eb21e047a839171b60405160405180910390a45050565b6000828152602081815260408083206001600160a01b038516845290915290205460ff166104225761103d816113aa565b6110488360206113bc565b604051602001611059929190611d00565b60408051601f198184030181529082905262461bcd60e51b825261040f91600401611b44565b600061035d61108c61159d565b836116c4565b60008082516041036110c85760208301516040840151606085015160001a6110bc87828585611706565b945094505050506110d0565b506000905060025b9250929050565b60008160048111156110eb576110eb611d81565b036110f35750565b600181600481111561110757611107611d81565b036111545760405162461bcd60e51b815260206004820152601860248201527f45434453413a20696e76616c6964207369676e61747572650000000000000000604482015260640161040f565b600281600481111561116857611168611d81565b036111b55760405162461bcd60e51b815260206004820152601f60248201527f45434453413a20696e76616c6964207369676e6174757265206c656e67746800604482015260640161040f565b60038160048111156111c9576111c9611d81565b03610bb25760405162461bcd60e51b815260206004820152602260248201527f45434453413a20696e76616c6964207369676e6174757265202773272076616c60448201527f7565000000000000000000000000000000000000000000000000000000000000606482015260840161040f565b6060824710156112b45760405162461bcd60e51b815260206004820152602660248201527f416464726573733a20696e73756666696369656e742062616c616e636520666f60448201527f722063616c6c0000000000000000000000000000000000000000000000000000606482015260840161040f565b600080866001600160a01b031685876040516112d09190611ce4565b60006040518083038185875af1925050503d806000811461130d576040519150601f19603f3d011682016040523d82523d6000602084013e611312565b606091505b5091509150611323878383876117ca565b925050505b949350505050565b60408051602081018490529081018290526000906060015b60405160208183030381529060405280519060200120905092915050565b60007f00000000000000000000000000000000000000000000000000000000000000006001600160a01b031633036113a5575060131936013560601c90565b503390565b606061035d6001600160a01b03831660145b606060006113cb836002611dad565b6113d6906002611dc4565b67ffffffffffffffff8111156113ee576113ee611bf9565b6040519080825280601f01601f191660200182016040528015611418576020820181803683370190505b5090507f30000000000000000000000000000000000000000000000000000000000000008160008151811061144f5761144f611c0f565b60200101906001600160f81b031916908160001a9053507f78000000000000000000000000000000000000000000000000000000000000008160018151811061149a5761149a611c0f565b60200101906001600160f81b031916908160001a90535060006114be846002611dad565b6114c9906001611dc4565b90505b600181111561154e577f303132333435363738396162636465660000000000000000000000000000000085600f166010811061150a5761150a611c0f565b1a60f81b82828151811061152057611520611c0f565b60200101906001600160f81b031916908160001a90535060049490941c9361154781611dd7565b90506114cc565b5083156108385760405162461bcd60e51b815260206004820181905260248201527f537472696e67733a20686578206c656e67746820696e73756666696369656e74604482015260640161040f565b6000306001600160a01b037f0000000000000000000000000000000000000000000000000000000000000000161480156115f657507f000000000000000000000000000000000000000000000000000000000000000046145b1561162057507f000000000000000000000000000000000000000000000000000000000000000090565b50604080517f00000000000000000000000000000000000000000000000000000000000000006020808301919091527f0000000000000000000000000000000000000000000000000000000000000000828401527f000000000000000000000000000000000000000000000000000000000000000060608301524660808301523060a0808401919091528351808403909101815260c0909201909252805191012090565b6040517f190100000000000000000000000000000000000000000000000000000000000060208201526022810183905260428101829052600090606201611348565b6000807f7fffffffffffffffffffffffffffffff5d576e7357a4501ddfe92f46681b20a083111561173d57506000905060036117c1565b6040805160008082526020820180845289905260ff881692820192909252606081018690526080810185905260019060a0016020604051602081039080840390855afa158015611791573d6000803e3d6000fd5b5050604051601f1901519150506001600160a01b0381166117ba576000600192509250506117c1565b9150600090505b94509492505050565b60608315611839578251600003611832576001600160a01b0385163b6118325760405162461bcd60e51b815260206004820152601d60248201527f416464726573733a2063616c6c20746f206e6f6e2d636f6e7472616374000000604482015260640161040f565b5081611328565b611328838381511561184e5781518083602001fd5b8060405162461bcd60e51b815260040161040f9190611b44565b60006020828403121561187a57600080fd5b81357fffffffff000000000000000000000000000000000000000000000000000000008116811461083857600080fd5b6000602082840312156118bc57600080fd5b5035919050565b80356001600160a01b03811681146118da57600080fd5b919050565b600080604083850312156118f257600080fd5b82359150611902602084016118c3565b90509250929050565b6000806020838503121561191e57600080fd5b823567ffffffffffffffff8082111561193657600080fd5b818501915085601f83011261194a57600080fd5b81358181111561195957600080fd5b8660208260051b850101111561196e57600080fd5b60209290920196919550909350505050565b60005b8381101561199b578181015183820152602001611983565b50506000910152565b600081518084526119bc816020860160208601611980565b601f01601f19169290920160200192915050565b600082825180855260208086019550808260051b84010181860160005b84811015611a1b57601f19868403018952611a098383516119a4565b988401989250908301906001016119ed565b5090979650505050505050565b604080825283519082018190526000906020906060840190828701845b82811015611a63578151151584529284019290840190600101611a45565b50505083810382850152611a7781866119d0565b9695505050505050565b600060808284031215611a9357600080fd5b50919050565b60008083601f840112611aab57600080fd5b50813567ffffffffffffffff811115611ac357600080fd5b6020830191508360208285010111156110d057600080fd5b600080600060408486031215611af057600080fd5b833567ffffffffffffffff80821115611b0857600080fd5b611b1487838801611a81565b94506020860135915080821115611b2a57600080fd5b50611b3786828701611a99565b9497909650939450505050565b60208152600061083860208301846119a4565b600060208284031215611b6957600080fd5b610838826118c3565b600080600060408486031215611b8757600080fd5b83359250602084013567ffffffffffffffff811115611ba557600080fd5b611b3786828701611a99565b600060208284031215611bc357600080fd5b813567ffffffffffffffff811115611bda57600080fd5b61132884828501611a81565b60208152600061083860208301846119d0565b634e487b7160e01b600052604160045260246000fd5b634e487b7160e01b600052603260045260246000fd5b6000808335601e19843603018112611c3c57600080fd5b83018035915067ffffffffffffffff821115611c5757600080fd5b6020019150368190038213156110d057600080fd5b8183823760009101908152919050565b8284823760609190911b6bffffffffffffffffffffffff19169101908152601401919050565b604081528260408201528284606083013760006060848301015260006060601f19601f86011683010190506001600160a01b0383166020830152949350505050565b60008251611cf6818460208701611980565b9190910192915050565b7f416363657373436f6e74726f6c3a206163636f756e7420000000000000000000815260008351611d38816017850160208801611980565b7f206973206d697373696e6720726f6c65200000000000000000000000000000006017918401918201528351611d75816028840160208801611980565b01602801949350505050565b634e487b7160e01b600052602160045260246000fd5b634e487b7160e01b600052601160045260246000fd5b808202811582820484141761035d5761035d611d97565b8082018082111561035d5761035d611d97565b600081611de657611de6611d97565b50600019019056fea2646970667358221220e646499566b68973282527fdc21c028d71eefab4277946ebfd48ad833016b97e64736f6c63430008110033",
  "devdoc": {
    "details": "Each user is called a \"manager\", and is the only member of their root role. Starting from this root role, they can create an arbitrary tree of roles and grant these to accounts. Each role has a description, and roles adminned by the same role cannot have the same description.",
    "kind": "dev",
    "methods": {
      "cancel((address,address,bytes,uint256))": {
        "details": "This can be used to cancel meta-txes that were issued accidentally, e.g., with an unreasonably large expiration timestamp, which may create a dangling liability",
        "params": {
          "metaTx": "Meta-tx"
        }
      },
      "constructor": {
        "details": "AccessControlRegistry is its own trusted meta-tx forwarder"
      },
      "execute((address,address,bytes,uint256),bytes)": {
        "params": {
          "metaTx": "Meta-tx",
          "signature": "Meta-tx hash signed by `from`"
        },
        "returns": {
          "returndata": "Returndata"
        }
      },
      "getRoleAdmin(bytes32)": {
        "details": "Returns the admin role that controls `role`. See {grantRole} and {revokeRole}. To change a role's admin, use {_setRoleAdmin}."
      },
      "grantRole(bytes32,address)": {
        "details": "Grants `role` to `account`. If `account` had not been already granted `role`, emits a {RoleGranted} event. Requirements: - the caller must have ``role``'s admin role. May emit a {RoleGranted} event."
      },
      "hasRole(bytes32,address)": {
        "details": "Returns `true` if `account` has been granted `role`."
      },
      "initializeManager(address)": {
        "details": "Anyone can initialize a manager. An uninitialized manager attempting to initialize a role will be initialized automatically. Once a manager is initialized, subsequent initializations have no effect.",
        "params": {
          "manager": "Manager address to be initialized"
        }
      },
      "initializeRoleAndGrantToSender(bytes32,string)": {
        "details": "If the sender should not have the initialized role, they should explicitly renounce it after initializing it. Once a role is initialized, subsequent initializations have no effect other than granting the role to the sender. The sender must be a member of `adminRole`. `adminRole` value is not validated because the sender cannot have the `bytes32(0)` role. If the sender is an uninitialized manager that is initializing a role directly under their root role, manager initialization will happen automatically, which will grant the sender `adminRole` and allow them to initialize the role.",
        "params": {
          "adminRole": "Admin role to be assigned to the initialized role",
          "description": "Human-readable description of the initialized role"
        },
        "returns": {
          "role": "Initialized role"
        }
      },
      "multicall(bytes[])": {
        "params": {
          "data": "Array of calldata of batched calls"
        },
        "returns": {
          "returndata": "Array of returndata of batched calls"
        }
      },
      "renounceRole(bytes32,address)": {
        "details": "Overriden to disallow managers from renouncing their root roles. `role` and `account` are not validated because `AccessControl.renounceRole` will revert if either of them is zero.",
        "params": {
          "account": "Account to renounce the role",
          "role": "Role to be renounced"
        }
      },
      "revokeRole(bytes32,address)": {
        "details": "Revokes `role` from `account`. If `account` had been granted `role`, emits a {RoleRevoked} event. Requirements: - the caller must have ``role``'s admin role. May emit a {RoleRevoked} event."
      },
      "supportsInterface(bytes4)": {
        "details": "See {IERC165-supportsInterface}."
      },
      "tryMulticall(bytes[])": {
        "params": {
          "data": "Array of calldata of batched calls"
        },
        "returns": {
          "returndata": "Array of returndata of batched calls",
          "successes": "Array of success conditions of batched calls"
        }
      }
    },
    "title": "Contract that allows users to manage independent, tree-shaped access control tables",
    "version": 1
  },
  "userdoc": {
    "kind": "user",
    "methods": {
      "cancel((address,address,bytes,uint256))": {
        "notice": "Called by a meta-tx source to prevent it from being executed"
      },
      "execute((address,address,bytes,uint256),bytes)": {
        "notice": "Verifies the signature and executes the meta-tx"
      },
      "initializeManager(address)": {
        "notice": "Initializes the manager by initializing its root role and granting it to them"
      },
      "initializeRoleAndGrantToSender(bytes32,string)": {
        "notice": "Initializes a role by setting its admin role and grants it to the sender"
      },
      "metaTxWithHashIsExecutedOrCanceled(bytes32)": {
        "notice": "If the meta-tx with hash is executed or canceled"
      },
      "multicall(bytes[])": {
        "notice": "Batches calls to the inheriting contract and reverts as soon as one of the batched calls reverts"
      },
      "renounceRole(bytes32,address)": {
        "notice": "Called by the account to renounce the role"
      },
      "tryMulticall(bytes[])": {
        "notice": "Batches calls to the inheriting contract but does not revert if any of the batched calls reverts"
      }
    },
    "notice": "Multiple contracts can refer to this contract to check if their users have granted accounts specific roles. Therefore, it aims to keep all access control roles of its users in this single contract.",
    "version": 1
  },
  "storageLayout": {
    "storage": [
      {
        "astId": 721,
        "contract": "@api3/airnode-protocol-v1/contracts/access-control-registry/AccessControlRegistry.sol:AccessControlRegistry",
        "label": "_roles",
        "offset": 0,
        "slot": "0",
        "type": "t_mapping(t_bytes32,t_struct(RoleData)716_storage)"
      },
      {
        "astId": 336,
        "contract": "@api3/airnode-protocol-v1/contracts/access-control-registry/AccessControlRegistry.sol:AccessControlRegistry",
        "label": "metaTxWithHashIsExecutedOrCanceled",
        "offset": 0,
        "slot": "1",
        "type": "t_mapping(t_bytes32,t_bool)"
      }
    ],
    "types": {
      "t_address": {
        "encoding": "inplace",
        "label": "address",
        "numberOfBytes": "20"
      },
      "t_bool": {
        "encoding": "inplace",
        "label": "bool",
        "numberOfBytes": "1"
      },
      "t_bytes32": {
        "encoding": "inplace",
        "label": "bytes32",
        "numberOfBytes": "32"
      },
      "t_mapping(t_address,t_bool)": {
        "encoding": "mapping",
        "key": "t_address",
        "label": "mapping(address => bool)",
        "numberOfBytes": "32",
        "value": "t_bool"
      },
      "t_mapping(t_bytes32,t_bool)": {
        "encoding": "mapping",
        "key": "t_bytes32",
        "label": "mapping(bytes32 => bool)",
        "numberOfBytes": "32",
        "value": "t_bool"
      },
      "t_mapping(t_bytes32,t_struct(RoleData)716_storage)": {
        "encoding": "mapping",
        "key": "t_bytes32",
        "label": "mapping(bytes32 => struct AccessControl.RoleData)",
        "numberOfBytes": "32",
        "value": "t_struct(RoleData)716_storage"
      },
      "t_struct(RoleData)716_storage": {
        "encoding": "inplace",
        "label": "struct AccessControl.RoleData",
        "members": [
          {
            "astId": 713,
            "contract": "@api3/airnode-protocol-v1/contracts/access-control-registry/AccessControlRegistry.sol:AccessControlRegistry",
            "label": "members",
            "offset": 0,
            "slot": "0",
            "type": "t_mapping(t_address,t_bool)"
          },
          {
            "astId": 715,
            "contract": "@api3/airnode-protocol-v1/contracts/access-control-registry/AccessControlRegistry.sol:AccessControlRegistry",
            "label": "adminRole",
            "offset": 0,
            "slot": "1",
            "type": "t_bytes32"
          }
        ],
        "numberOfBytes": "64"
      }
    }
  }
}