{
  "address": "0x0e9F462117EddE5fEfFC674E556b5464013881DD",
  "abi": [
    {
      "inputs": [
        {
          "internalType": "address",
          "name": "initialOwner",
          "type": "address"
        },
        {
          "internalType": "address",
          "name": "api3ServerV1OevExtension_",
          "type": "address"
        }
      ],
      "stateMutability": "nonpayable",
      "type": "constructor"
    },
    {
      "inputs": [
        {
          "internalType": "address",
          "name": "owner",
          "type": "address"
        }
      ],
      "name": "OwnableInvalidOwner",
      "type": "error"
    },
    {
      "inputs": [
        {
          "internalType": "address",
          "name": "account",
          "type": "address"
        }
      ],
      "name": "OwnableUnauthorizedAccount",
      "type": "error"
    },
    {
      "anonymous": false,
      "inputs": [
        {
          "indexed": true,
          "internalType": "address",
          "name": "proxy",
          "type": "address"
        },
        {
          "indexed": false,
          "internalType": "bytes32",
          "name": "dapiName",
          "type": "bytes32"
        },
        {
          "indexed": false,
          "internalType": "uint256",
          "name": "dappId",
          "type": "uint256"
        },
        {
          "indexed": false,
          "internalType": "bytes",
          "name": "metadata",
          "type": "bytes"
        }
      ],
      "name": "DeployedApi3ReaderProxyV1",
      "type": "event"
    },
    {
      "anonymous": false,
      "inputs": [
        {
          "indexed": true,
          "internalType": "address",
          "name": "previousOwner",
          "type": "address"
        },
        {
          "indexed": true,
          "internalType": "address",
          "name": "newOwner",
          "type": "address"
        }
      ],
      "name": "OwnershipTransferred",
      "type": "event"
    },
    {
      "inputs": [],
      "name": "api3ServerV1OevExtension",
      "outputs": [
        {
          "internalType": "address",
          "name": "",
          "type": "address"
        }
      ],
      "stateMutability": "view",
      "type": "function"
    },
    {
      "inputs": [
        {
          "internalType": "bytes32",
          "name": "dapiName",
          "type": "bytes32"
        },
        {
          "internalType": "uint256",
          "name": "dappId",
          "type": "uint256"
        },
        {
          "internalType": "bytes",
          "name": "metadata",
          "type": "bytes"
        }
      ],
      "name": "computeApi3ReaderProxyV1Address",
      "outputs": [
        {
          "internalType": "address",
          "name": "proxy",
          "type": "address"
        }
      ],
      "stateMutability": "view",
      "type": "function"
    },
    {
      "inputs": [
        {
          "internalType": "bytes32",
          "name": "dapiName",
          "type": "bytes32"
        },
        {
          "internalType": "uint256",
          "name": "dappId",
          "type": "uint256"
        },
        {
          "internalType": "bytes",
          "name": "metadata",
          "type": "bytes"
        }
      ],
      "name": "deployApi3ReaderProxyV1",
      "outputs": [
        {
          "internalType": "address",
          "name": "proxy",
          "type": "address"
        }
      ],
      "stateMutability": "nonpayable",
      "type": "function"
    },
    {
      "inputs": [],
      "name": "owner",
      "outputs": [
        {
          "internalType": "address",
          "name": "",
          "type": "address"
        }
      ],
      "stateMutability": "view",
      "type": "function"
    },
    {
      "inputs": [],
      "name": "renounceOwnership",
      "outputs": [],
      "stateMutability": "nonpayable",
      "type": "function"
    },
    {
      "inputs": [
        {
          "internalType": "address",
          "name": "newOwner",
          "type": "address"
        }
      ],
      "name": "transferOwnership",
      "outputs": [],
      "stateMutability": "nonpayable",
      "type": "function"
    }
  ],
  "transactionHash": "0x7a73871ab8a2c9fe683280187c77c94e6e93d64d88aa7f6befd470c6ecced5e6",
  "args": [
    "0x1DCE40DC2AfA7131C4838c8BFf635ae9d198d1cE",
    "0x4cC805D920dCA57d1199552C67DF50582bff8207"
  ],
  "numDeployments": 1,
  "solcInputHash": "de732d772112aad69480d1de96d03ebc",
  "bytecode": "0x60a060405234801561001057600080fd5b5060405161231338038061231383398101604081905261002f9161014b565b816001600160a01b03811661005f57604051631e4fbdf760e01b8152600060048201526024015b60405180910390fd5b610068816100df565b506001600160a01b0381166100cd5760405162461bcd60e51b815260206004820152602560248201527f4170693353657276657256314f6576457874656e73696f6e2061646472657373604482015264207a65726f60d81b6064820152608401610056565b6001600160a01b03166080525061017e565b600080546001600160a01b038381166001600160a01b0319831681178455604051919092169283917f8be0079c531659141344cd1fd0a4f28419497f9722a3daafe3b4186f6b6457e09190a35050565b80516001600160a01b038116811461014657600080fd5b919050565b6000806040838503121561015e57600080fd5b6101678361012f565b91506101756020840161012f565b90509250929050565b60805161216d6101a66000396000818160c2015281816101cd0152610453015261216d6000f3fe608060405234801561001057600080fd5b50600436106100725760003560e01c8063ce7ebd6d11610050578063ce7ebd6d146100bd578063d893c1b3146100e4578063f2fde38b146100f757600080fd5b8063715018a6146100775780638da5cb5b14610081578063c3002760146100aa575b600080fd5b61007f61010a565b005b6000546001600160a01b03165b6040516001600160a01b03909116815260200160405180910390f35b61008e6100b8366004610688565b61011e565b61008e7f000000000000000000000000000000000000000000000000000000000000000081565b61008e6100f2366004610688565b610383565b61007f61010536600461070b565b61052b565b610112610582565b61011c60006105c8565b565b6000846101725760405162461bcd60e51b815260206004820152600e60248201527f64415049206e616d65207a65726f00000000000000000000000000000000000060448201526064015b60405180910390fd5b836000036101b15760405162461bcd60e51b815260206004820152600c60248201526b64417070204944207a65726f60a01b6044820152606401610169565b600083836040516101c3929190610734565b60405180910390207f000000000000000000000000000000000000000000000000000000000000000087876040516101fa9061066e565b6001600160a01b039093168352602083019190915260408201526060018190604051809103906000f5905080158015610237573d6000803e3d6000fd5b509050838360405161024a929190610734565b60405180910390208160405161025f9061067b565b6001600160a01b0390911681526040602082018190526000908201526060018190604051809103906000f590508015801561029e573d6000803e3d6000fd5b509150816001600160a01b031663c4d66de86102c26000546001600160a01b031690565b6040517fffffffff0000000000000000000000000000000000000000000000000000000060e084901b1681526001600160a01b039091166004820152602401600060405180830381600087803b15801561031b57600080fd5b505af115801561032f573d6000803e3d6000fd5b50505050816001600160a01b03167fb40b92c78b80aed539d9115cb84458be5e6cf0450738ae6c8645efd8e25975c2878787876040516103729493929190610744565b60405180910390a250949350505050565b6000846103d25760405162461bcd60e51b815260206004820152600e60248201527f64415049206e616d65207a65726f0000000000000000000000000000000000006044820152606401610169565b836000036104115760405162461bcd60e51b815260206004820152600c60248201526b64417070204944207a65726f60a01b6044820152606401610169565b60006104c98484604051610426929190610734565b6040519081900381209061043c6020820161066e565b601f1982820381018352601f9091011660408181527f00000000000000000000000000000000000000000000000000000000000000006001600160a01b0316602083015281018a9052606081018990526080015b60408051601f19818403018152908290526104ae92916020016107a5565b60405160208183030381529060405280519060200120610630565b905061052184846040516104de929190610734565b604051908190038120906104f46020820161067b565b601f1982820381018352601f909101166020818101604090815260008352516104909287929091016107d4565b9695505050505050565b610533610582565b6001600160a01b038116610576576040517f1e4fbdf700000000000000000000000000000000000000000000000000000000815260006004820152602401610169565b61057f816105c8565b50565b6000546001600160a01b0316331461011c576040517f118cdaa7000000000000000000000000000000000000000000000000000000008152336004820152602401610169565b600080546001600160a01b038381167fffffffffffffffffffffffff0000000000000000000000000000000000000000831681178455604051919092169283917f8be0079c531659141344cd1fd0a4f28419497f9722a3daafe3b4186f6b6457e09190a35050565b600061063d838330610644565b9392505050565b6000604051836040820152846020820152828152600b8101905060ff815360559020949350505050565b6115038061081883390190565b61041d80611d1b83390190565b6000806000806060858703121561069e57600080fd5b8435935060208501359250604085013567ffffffffffffffff8111156106c357600080fd5b8501601f810187136106d457600080fd5b803567ffffffffffffffff8111156106eb57600080fd5b8760208284010111156106fd57600080fd5b949793965060200194505050565b60006020828403121561071d57600080fd5b81356001600160a01b038116811461063d57600080fd5b8183823760009101908152919050565b84815283602082015260606040820152816060820152818360808301376000818301608090810191909152601f909201601f191601019392505050565b60005b8381101561079c578181015183820152602001610784565b50506000910152565b600083516107b7818460208801610781565b8351908301906107cb818360208801610781565b01949350505050565b6001600160a01b03831681526040602082015260008251806040840152610802816060850160208701610781565b601f01601f191691909101606001939250505056fe6101406040523060805234801561001557600080fd5b50604051611503380380611503833981016040819052610034916101bf565b6001600160a01b03831660c0819052604080516316b53a2760e11b81529051632d6a744e916004808201926020929091908290030181865afa15801561007e573d6000803e3d6000fd5b505050506040513d601f19601f820116820180604052508101906100a291906101f4565b6001600160a01b031660a05260e082905261010081905260408051602081018490520160408051601f198184030181529190528051602090910120610120526100e96100f1565b505050610216565b7ff0c57e16840df040f15088dc2f81fe391c3923bec73e23a9662efc9c229c6a00805468010000000000000000900460ff16156101415760405163f92ee8a960e01b815260040160405180910390fd5b80546001600160401b03908116146101a05780546001600160401b0319166001600160401b0390811782556040519081527fc7f505b2f371ae2175ee4913f4499e1f2633a7b5936321eed1cdaeb6115181d29060200160405180910390a15b50565b80516001600160a01b03811681146101ba57600080fd5b919050565b6000806000606084860312156101d457600080fd5b6101dd846101a3565b925060208401519150604084015190509250925092565b60006020828403121561020657600080fd5b61020f826101a3565b9392505050565b60805160a05160c05160e051610100516101205161127461028f600039600061055d0152600081816103c00152610704015260006102f801526000818161047d015261074301526000818161018c015281816105920152610672015260008181610a5601528181610a7f0152610c0201526112746000f3fe6080604052600436106101755760003560e01c8063868fa88c116100cb578063b5ab58dc1161007f578063ce7ebd6d11610059578063ce7ebd6d1461046b578063f2fde38b1461049f578063feaf968c146104bf57600080fd5b8063b5ab58dc1461042b578063b633620c1461042b578063c4d66de81461044b57600080fd5b80639a6fc8f5116100b05780639a6fc8f5146103575780639de0eb04146103ae578063ad3cb1cc146103e257600080fd5b8063868fa88c146102e65780638da5cb5b1461031a57600080fd5b806354fd4d501161012d578063715018a611610107578063715018a6146102925780637284e416146102a75780638205bf6a146102d157600080fd5b806354fd4d501461023457806357de26a414610249578063668a0f021461027d57600080fd5b80634f1ef2861161015e5780634f1ef286146101e757806350d25bcd146101fc57806352d1902d1461021f57600080fd5b80632d6a744e1461017a578063313ce567146101cb575b600080fd5b34801561018657600080fd5b506101ae7f000000000000000000000000000000000000000000000000000000000000000081565b6040516001600160a01b0390911681526020015b60405180910390f35b3480156101d757600080fd5b50604051601281526020016101c2565b6101fa6101f536600461103f565b6104d4565b005b34801561020857600080fd5b506102116104f3565b6040519081526020016101c2565b34801561022b57600080fd5b50610211610506565b34801561024057600080fd5b50611331610211565b34801561025557600080fd5b5061025e610535565b60408051601b9390930b835263ffffffff9091166020830152016101c2565b34801561028957600080fd5b50610211610825565b34801561029e57600080fd5b506101fa610840565b3480156102b357600080fd5b506040805160208101909152600081525b6040516101c2919061112d565b3480156102dd57600080fd5b50610211610854565b3480156102f257600080fd5b506102117f000000000000000000000000000000000000000000000000000000000000000081565b34801561032657600080fd5b507f9016d09d72d40fdae2fd8ceac6b6234c7706214fd39c1cd1e609a0528c199300546001600160a01b03166101ae565b34801561036357600080fd5b50610377610372366004611160565b61086a565b6040805169ffffffffffffffffffff968716815260208101959095528401929092526060830152909116608082015260a0016101c2565b3480156103ba57600080fd5b506102117f000000000000000000000000000000000000000000000000000000000000000081565b3480156103ee57600080fd5b506102c46040518060400160405280600581526020017f352e302e3000000000000000000000000000000000000000000000000000000081525081565b34801561043757600080fd5b5061021161044636600461118c565b610825565b34801561045757600080fd5b506101fa6104663660046111a5565b61088b565b34801561047757600080fd5b506101ae7f000000000000000000000000000000000000000000000000000000000000000081565b3480156104ab57600080fd5b506101fa6104ba3660046111a5565b6109c8565b3480156104cb57600080fd5b50610377610a24565b6104dc610a4b565b6104e582610b02565b6104ef8282610b0a565b5050565b60006104fd610535565b50601b0b919050565b6000610510610bf7565b507f360894a13ba1a3210667c828492db98dca3e2076cc3735a920a3ca505d382bbc90565b6040517f472c22f10000000000000000000000000000000000000000000000000000000081527f00000000000000000000000000000000000000000000000000000000000000006004820152600090819081906001600160a01b037f0000000000000000000000000000000000000000000000000000000000000000169063472c22f190602401602060405180830381865afa1580156105d9573d6000803e3d6000fd5b505050506040513d601f19601f820116820180604052508101906105fd91906111c0565b905080610636576040517f8086c76400000000000000000000000000000000000000000000000000000000815260040160405180910390fd5b6040517f67a7cfb70000000000000000000000000000000000000000000000000000000081526004810182905260009081906001600160a01b037f000000000000000000000000000000000000000000000000000000000000000016906367a7cfb7906024016040805180830381865afa1580156106b8573d6000803e3d6000fd5b505050506040513d601f19601f820116820180604052508101906106dc91906111d9565b6040517f91526c360000000000000000000000000000000000000000000000000000000081527f0000000000000000000000000000000000000000000000000000000000000000600482015260248101869052919350915060009081906001600160a01b037f000000000000000000000000000000000000000000000000000000000000000016906391526c36906044016040805180830381865afa158015610789573d6000803e3d6000fd5b505050506040513d601f19601f820116820180604052508101906107ad91906111d9565b915091508263ffffffff168163ffffffff1611156107d157909550935084846107dc565b838380975081985050505b8563ffffffff1660000361081c576040517f2bb59f0900000000000000000000000000000000000000000000000000000000815260040160405180910390fd5b50505050509091565b6000604051631fc30cb960e01b815260040160405180910390fd5b610848610c40565b6108526000610cb4565b565b600061085e610535565b63ffffffff1692915050565b6000806000806000604051631fc30cb960e01b815260040160405180910390fd5b7ff0c57e16840df040f15088dc2f81fe391c3923bec73e23a9662efc9c229c6a00805468010000000000000000810460ff16159067ffffffffffffffff166000811580156108d65750825b905060008267ffffffffffffffff1660011480156108f35750303b155b905081158015610901575080155b15610938576040517ff92ee8a900000000000000000000000000000000000000000000000000000000815260040160405180910390fd5b845467ffffffffffffffff19166001178555831561096c57845468ff00000000000000001916680100000000000000001785555b61097586610d32565b83156109c057845468ff000000000000000019168555604051600181527fc7f505b2f371ae2175ee4913f4499e1f2633a7b5936321eed1cdaeb6115181d29060200160405180910390a15b505050505050565b6109d0610c40565b6001600160a01b038116610a18576040517f1e4fbdf7000000000000000000000000000000000000000000000000000000008152600060048201526024015b60405180910390fd5b610a2181610cb4565b50565b600080808080610a32610535565b9596601b9190910b9563ffffffff169450849350909150565b306001600160a01b037f0000000000000000000000000000000000000000000000000000000000000000161480610ae457507f00000000000000000000000000000000000000000000000000000000000000006001600160a01b0316610ad87f360894a13ba1a3210667c828492db98dca3e2076cc3735a920a3ca505d382bbc546001600160a01b031690565b6001600160a01b031614155b156108525760405163703e46dd60e11b815260040160405180910390fd5b610a21610c40565b816001600160a01b03166352d1902d6040518163ffffffff1660e01b8152600401602060405180830381865afa925050508015610b64575060408051601f3d908101601f19168201909252610b61918101906111c0565b60015b610b8c57604051634c9c8ce360e01b81526001600160a01b0383166004820152602401610a0f565b7f360894a13ba1a3210667c828492db98dca3e2076cc3735a920a3ca505d382bbc8114610be8576040517faa1d49a400000000000000000000000000000000000000000000000000000000815260048101829052602401610a0f565b610bf28383610d43565b505050565b306001600160a01b037f000000000000000000000000000000000000000000000000000000000000000016146108525760405163703e46dd60e11b815260040160405180910390fd5b33610c727f9016d09d72d40fdae2fd8ceac6b6234c7706214fd39c1cd1e609a0528c199300546001600160a01b031690565b6001600160a01b031614610852576040517f118cdaa7000000000000000000000000000000000000000000000000000000008152336004820152602401610a0f565b7f9016d09d72d40fdae2fd8ceac6b6234c7706214fd39c1cd1e609a0528c199300805473ffffffffffffffffffffffffffffffffffffffff1981166001600160a01b03848116918217845560405192169182907f8be0079c531659141344cd1fd0a4f28419497f9722a3daafe3b4186f6b6457e090600090a3505050565b610d3a610d99565b610a2181610e00565b610d4c82610e08565b6040516001600160a01b038316907fbc7cd75a20ee27fd9adebab32041f755214dbc6bffa90cc0225b39da2e5c2d3b90600090a2805115610d9157610bf28282610e8c565b6104ef610f02565b7ff0c57e16840df040f15088dc2f81fe391c3923bec73e23a9662efc9c229c6a005468010000000000000000900460ff16610852576040517fd7e6bcf800000000000000000000000000000000000000000000000000000000815260040160405180910390fd5b6109d0610d99565b806001600160a01b03163b600003610e3e57604051634c9c8ce360e01b81526001600160a01b0382166004820152602401610a0f565b7f360894a13ba1a3210667c828492db98dca3e2076cc3735a920a3ca505d382bbc805473ffffffffffffffffffffffffffffffffffffffff19166001600160a01b0392909216919091179055565b6060600080846001600160a01b031684604051610ea99190611222565b600060405180830381855af49150503d8060008114610ee4576040519150601f19603f3d011682016040523d82523d6000602084013e610ee9565b606091505b5091509150610ef9858383610f3a565b95945050505050565b3415610852576040517fb398979f00000000000000000000000000000000000000000000000000000000815260040160405180910390fd5b606082610f4f57610f4a82610fb2565b610fab565b8151158015610f6657506001600160a01b0384163b155b15610fa8576040517f9996b3150000000000000000000000000000000000000000000000000000000081526001600160a01b0385166004820152602401610a0f565b50805b9392505050565b805115610fc25780518082602001fd5b6040517f1425ea4200000000000000000000000000000000000000000000000000000000815260040160405180910390fd5b80356001600160a01b038116811461100b57600080fd5b919050565b7f4e487b7100000000000000000000000000000000000000000000000000000000600052604160045260246000fd5b6000806040838503121561105257600080fd5b61105b83610ff4565b9150602083013567ffffffffffffffff81111561107757600080fd5b8301601f8101851361108857600080fd5b803567ffffffffffffffff8111156110a2576110a2611010565b604051601f8201601f19908116603f0116810167ffffffffffffffff811182821017156110d1576110d1611010565b6040528181528282016020018710156110e957600080fd5b816020840160208301376000602083830101528093505050509250929050565b60005b8381101561112457818101518382015260200161110c565b50506000910152565b602081526000825180602084015261114c816040850160208701611109565b601f01601f19169190910160400192915050565b60006020828403121561117257600080fd5b813569ffffffffffffffffffff81168114610fab57600080fd5b60006020828403121561119e57600080fd5b5035919050565b6000602082840312156111b757600080fd5b610fab82610ff4565b6000602082840312156111d257600080fd5b5051919050565b600080604083850312156111ec57600080fd5b825180601b0b81146111fd57600080fd5b602084015190925063ffffffff8116811461121757600080fd5b809150509250929050565b60008251611234818460208701611109565b919091019291505056fea26469706673582212200ce1fb76af7a7f07e054a40f569323f46509052cccbd884ed6811664ec0b0ec164736f6c634300081b0033608060405260405161041d38038061041d83398101604081905261002291610268565b61002c8282610033565b5050610358565b61003c82610092565b6040516001600160a01b038316907fbc7cd75a20ee27fd9adebab32041f755214dbc6bffa90cc0225b39da2e5c2d3b90600090a280511561008657610081828261010e565b505050565b61008e610185565b5050565b806001600160a01b03163b6000036100cd57604051634c9c8ce360e01b81526001600160a01b03821660048201526024015b60405180910390fd5b7f360894a13ba1a3210667c828492db98dca3e2076cc3735a920a3ca505d382bbc80546001600160a01b0319166001600160a01b0392909216919091179055565b6060600080846001600160a01b03168460405161012b919061033c565b600060405180830381855af49150503d8060008114610166576040519150601f19603f3d011682016040523d82523d6000602084013e61016b565b606091505b50909250905061017c8583836101a6565b95945050505050565b34156101a45760405163b398979f60e01b815260040160405180910390fd5b565b6060826101bb576101b682610205565b6101fe565b81511580156101d257506001600160a01b0384163b155b156101fb57604051639996b31560e01b81526001600160a01b03851660048201526024016100c4565b50805b9392505050565b8051156102155780518082602001fd5b604051630a12f52160e11b815260040160405180910390fd5b634e487b7160e01b600052604160045260246000fd5b60005b8381101561025f578181015183820152602001610247565b50506000910152565b6000806040838503121561027b57600080fd5b82516001600160a01b038116811461029257600080fd5b60208401519092506001600160401b038111156102ae57600080fd5b8301601f810185136102bf57600080fd5b80516001600160401b038111156102d8576102d861022e565b604051601f8201601f19908116603f011681016001600160401b03811182821017156103065761030661022e565b60405281815282820160200187101561031e57600080fd5b61032f826020830160208601610244565b8093505050509250929050565b6000825161034e818460208701610244565b9190910192915050565b60b7806103666000396000f3fe6080604052600a600c565b005b60186014601a565b605e565b565b600060597f360894a13ba1a3210667c828492db98dca3e2076cc3735a920a3ca505d382bbc5473ffffffffffffffffffffffffffffffffffffffff1690565b905090565b3660008037600080366000845af43d6000803e808015607c573d6000f35b3d6000fdfea2646970667358221220105a39e5344dce7a120ffb84aa65102e325f7cbbc088cef866e9f0a2b2bc33c964736f6c634300081b0033a2646970667358221220527f9301ed8ca010207313bfc1761e64088affd67a1cbfdff9f781c351ee7b7564736f6c634300081b0033",
  "devdoc": {
    "errors": {
      "OwnableInvalidOwner(address)": [
        {
          "details": "The owner is not a valid owner account. (eg. `address(0)`)"
        }
      ],
      "OwnableUnauthorizedAccount(address)": [
        {
          "details": "The caller account is not authorized to perform an operation."
        }
      ]
    },
    "kind": "dev",
    "methods": {
      "computeApi3ReaderProxyV1Address(bytes32,uint256,bytes)": {
        "params": {
          "dapiName": "dAPI name as a bytes32 string",
          "dappId": "dApp ID",
          "metadata": "Metadata"
        },
        "returns": {
          "proxy": "Proxy address"
        }
      },
      "constructor": {
        "params": {
          "api3ServerV1OevExtension_": "Api3ServerV1OevExtension contract address",
          "initialOwner": "Initial owner"
        }
      },
      "deployApi3ReaderProxyV1(bytes32,uint256,bytes)": {
        "details": "As noted in Api3ReaderProxyV1, an implementation is deployed for each proxy to be able to use immutable variables",
        "params": {
          "dapiName": "dAPI name as a bytes32 string",
          "dappId": "dApp ID",
          "metadata": "Metadata"
        },
        "returns": {
          "proxy": "Proxy address"
        }
      },
      "owner()": {
        "details": "Returns the address of the current owner."
      },
      "renounceOwnership()": {
        "details": "Leaves the contract without owner. It will not be possible to call `onlyOwner` functions. Can only be called by the current owner. NOTE: Renouncing ownership will leave the contract without an owner, thereby disabling any functionality that is only available to the owner."
      },
      "transferOwnership(address)": {
        "details": "Transfers ownership of the contract to a new account (`newOwner`). Can only be called by the current owner."
      }
    },
    "title": "Factory contract that deploys Api3ReaderProxyV1 implementations and their upgradeable proxies",
    "version": 1
  },
  "userdoc": {
    "kind": "user",
    "methods": {
      "api3ServerV1OevExtension()": {
        "notice": "Api3ServerV1OevExtension contract address"
      },
      "computeApi3ReaderProxyV1Address(bytes32,uint256,bytes)": {
        "notice": "Computes the address of the Api3ReaderProxyV1"
      },
      "deployApi3ReaderProxyV1(bytes32,uint256,bytes)": {
        "notice": "Deterministically deploys the Api3ReaderProxyV1"
      }
    },
    "notice": "The owner of this contract at the time that it deploys a proxy is set as the owner of the proxy, which is allowed to upgrade it",
    "version": 1
  },
  "storageLayout": {
    "storage": [
      {
        "astId": 13488,
        "contract": "contracts/api3-server-v1/proxies/Api3ReaderProxyV1Factory.sol:Api3ReaderProxyV1Factory",
        "label": "_owner",
        "offset": 0,
        "slot": "0",
        "type": "t_address"
      }
    ],
    "types": {
      "t_address": {
        "encoding": "inplace",
        "label": "address",
        "numberOfBytes": "20"
      }
    }
  }
}