{
  "address": "0xDDe9CE3736939d59A70c446c8A4AB6714CB4a41a",
  "abi": [
    {
      "inputs": [
        {
          "internalType": "address",
          "name": "_oevDapiServer",
          "type": "address"
        }
      ],
      "stateMutability": "nonpayable",
      "type": "constructor"
    },
    {
      "anonymous": false,
      "inputs": [
        {
          "indexed": true,
          "internalType": "address",
          "name": "proxyAddress",
          "type": "address"
        },
        {
          "indexed": true,
          "internalType": "bytes32",
          "name": "dapiName",
          "type": "bytes32"
        },
        {
          "indexed": false,
          "internalType": "bytes",
          "name": "metadata",
          "type": "bytes"
        }
      ],
      "name": "DeployedDapiProxy",
      "type": "event"
    },
    {
      "anonymous": false,
      "inputs": [
        {
          "indexed": true,
          "internalType": "address",
          "name": "proxyAddress",
          "type": "address"
        },
        {
          "indexed": true,
          "internalType": "bytes32",
          "name": "dapiName",
          "type": "bytes32"
        },
        {
          "indexed": false,
          "internalType": "address",
          "name": "oevBeneficiary",
          "type": "address"
        },
        {
          "indexed": false,
          "internalType": "bytes",
          "name": "metadata",
          "type": "bytes"
        }
      ],
      "name": "DeployedDapiProxyWithOev",
      "type": "event"
    },
    {
      "anonymous": false,
      "inputs": [
        {
          "indexed": true,
          "internalType": "address",
          "name": "proxyAddress",
          "type": "address"
        },
        {
          "indexed": true,
          "internalType": "bytes32",
          "name": "dataFeedId",
          "type": "bytes32"
        },
        {
          "indexed": false,
          "internalType": "bytes",
          "name": "metadata",
          "type": "bytes"
        }
      ],
      "name": "DeployedDataFeedProxy",
      "type": "event"
    },
    {
      "anonymous": false,
      "inputs": [
        {
          "indexed": true,
          "internalType": "address",
          "name": "proxyAddress",
          "type": "address"
        },
        {
          "indexed": true,
          "internalType": "bytes32",
          "name": "dataFeedId",
          "type": "bytes32"
        },
        {
          "indexed": false,
          "internalType": "address",
          "name": "oevBeneficiary",
          "type": "address"
        },
        {
          "indexed": false,
          "internalType": "bytes",
          "name": "metadata",
          "type": "bytes"
        }
      ],
      "name": "DeployedDataFeedProxyWithOev",
      "type": "event"
    },
    {
      "inputs": [
        {
          "internalType": "bytes32",
          "name": "dapiName",
          "type": "bytes32"
        },
        {
          "internalType": "bytes",
          "name": "metadata",
          "type": "bytes"
        }
      ],
      "name": "deployDapiProxy",
      "outputs": [
        {
          "internalType": "address",
          "name": "proxyAddress",
          "type": "address"
        }
      ],
      "stateMutability": "nonpayable",
      "type": "function"
    },
    {
      "inputs": [
        {
          "internalType": "bytes32",
          "name": "dapiName",
          "type": "bytes32"
        },
        {
          "internalType": "address",
          "name": "oevBeneficiary",
          "type": "address"
        },
        {
          "internalType": "bytes",
          "name": "metadata",
          "type": "bytes"
        }
      ],
      "name": "deployDapiProxyWithOev",
      "outputs": [
        {
          "internalType": "address",
          "name": "proxyAddress",
          "type": "address"
        }
      ],
      "stateMutability": "nonpayable",
      "type": "function"
    },
    {
      "inputs": [
        {
          "internalType": "bytes32",
          "name": "dataFeedId",
          "type": "bytes32"
        },
        {
          "internalType": "bytes",
          "name": "metadata",
          "type": "bytes"
        }
      ],
      "name": "deployDataFeedProxy",
      "outputs": [
        {
          "internalType": "address",
          "name": "proxyAddress",
          "type": "address"
        }
      ],
      "stateMutability": "nonpayable",
      "type": "function"
    },
    {
      "inputs": [
        {
          "internalType": "bytes32",
          "name": "dataFeedId",
          "type": "bytes32"
        },
        {
          "internalType": "address",
          "name": "oevBeneficiary",
          "type": "address"
        },
        {
          "internalType": "bytes",
          "name": "metadata",
          "type": "bytes"
        }
      ],
      "name": "deployDataFeedProxyWithOev",
      "outputs": [
        {
          "internalType": "address",
          "name": "proxyAddress",
          "type": "address"
        }
      ],
      "stateMutability": "nonpayable",
      "type": "function"
    },
    {
      "inputs": [],
      "name": "oevDapiServer",
      "outputs": [
        {
          "internalType": "address",
          "name": "",
          "type": "address"
        }
      ],
      "stateMutability": "view",
      "type": "function"
    }
  ],
  "transactionHash": "0x4aa33142500254d71c5a95bf977a414a6ffa2573e904a1823eb878963119c0bc",
  "args": [
    "0xb03320CadFcBa2C92B598334B4c6718a308D10C4"
  ],
  "numDeployments": 1,
  "solcInputHash": "1375669eaf91c0de8e46c63dcc7f592d",
  "bytecode": "0x60a060405234801561001057600080fd5b506040516115f83803806115f883398101604081905261002f9161009a565b6001600160a01b0381166100895760405162461bcd60e51b815260206004820152601760248201527f446170695365727665722061646472657373207a65726f000000000000000000604482015260640160405180910390fd5b6001600160a01b03166080526100ca565b6000602082840312156100ac57600080fd5b81516001600160a01b03811681146100c357600080fd5b9392505050565b6080516114f8610100600039600081816071015281816101bf0152818161030e0152818161047c015261059301526114f86000f3fe608060405234801561001057600080fd5b50600436106100675760003560e01c80637dba7458116100505780637dba7458146100c25780638dae1a47146100d55780639ae06c84146100e857600080fd5b806352cda5831461006c5780635849e5ef146100af575b600080fd5b6100937f000000000000000000000000000000000000000000000000000000000000000081565b6040516001600160a01b03909116815260200160405180910390f35b6100936100bd3660046106d8565b6100fb565b6100936100d0366004610740565b6102a5565b6100936100e33660046106d8565b6103bd565b6100936100f6366004610740565b61052a565b60008461014f5760405162461bcd60e51b815260206004820152600e60248201527f64415049206e616d65207a65726f00000000000000000000000000000000000060448201526064015b60405180910390fd5b6001600160a01b0384166101a55760405162461bcd60e51b815260206004820152601460248201527f4f45562062656e6566696369617279207a65726f0000000000000000000000006044820152606401610146565b82826040516101b592919061078c565b60405180910390207f0000000000000000000000000000000000000000000000000000000000000000866040516020016101f191815260200190565b60405160208183030381529060405280519060200120866040516102149061065b565b6001600160a01b039384168152602081019290925290911660408201526060018190604051809103906000f5905080158015610254573d6000803e3d6000fd5b50905084816001600160a01b03167f31d654553da13df7303eb8db83942ff8816845087d3149515a220f5afb37aedd868686604051610295939291906107c5565b60405180910390a3949350505050565b6000836102f45760405162461bcd60e51b815260206004820152601160248201527f446174612066656564204944207a65726f0000000000000000000000000000006044820152606401610146565b828260405161030492919061078c565b60405180910390207f00000000000000000000000000000000000000000000000000000000000000008560405161033a90610668565b6001600160a01b03909216825260208201526040018190604051809103906000f590508015801561036f573d6000803e3d6000fd5b50905083816001600160a01b03167f9a2a9d77287e93a2addaf0c5f3e354d075dfb475f5e197f9abc9b11b922fa94385856040516103ae9291906107f1565b60405180910390a39392505050565b60008461040c5760405162461bcd60e51b815260206004820152601160248201527f446174612066656564204944207a65726f0000000000000000000000000000006044820152606401610146565b6001600160a01b0384166104625760405162461bcd60e51b815260206004820152601460248201527f4f45562062656e6566696369617279207a65726f0000000000000000000000006044820152606401610146565b828260405161047292919061078c565b60405180910390207f000000000000000000000000000000000000000000000000000000000000000086866040516104a990610675565b6001600160a01b039384168152602081019290925290911660408201526060018190604051809103906000f59050801580156104e9573d6000803e3d6000fd5b50905084816001600160a01b03167fff915717e95cf852fef69474bc2bfb3c26ccc15a6978a90ab0a78bc565644d4e868686604051610295939291906107c5565b6000836105795760405162461bcd60e51b815260206004820152600e60248201527f64415049206e616d65207a65726f0000000000000000000000000000000000006044820152606401610146565b828260405161058992919061078c565b60405180910390207f0000000000000000000000000000000000000000000000000000000000000000856040516020016105c591815260200190565b604051602081830303815290604052805190602001206040516105e790610682565b6001600160a01b03909216825260208201526040018190604051809103906000f590508015801561061c573d6000803e3d6000fd5b50905083816001600160a01b03167f5212a04ae578b0432469e3d61a28f222c00cf2f5e14d69b0f08c7d327b623d1d85856040516103ae9291906107f1565b61035d8061080e83390190565b6102fd80610b6b83390190565b61035e80610e6883390190565b6102fd806111c683390190565b60008083601f8401126106a157600080fd5b50813567ffffffffffffffff8111156106b957600080fd5b6020830191508360208285010111156106d157600080fd5b9250929050565b600080600080606085870312156106ee57600080fd5b8435935060208501356001600160a01b038116811461070c57600080fd5b9250604085013567ffffffffffffffff81111561072857600080fd5b6107348782880161068f565b95989497509550505050565b60008060006040848603121561075557600080fd5b83359250602084013567ffffffffffffffff81111561077357600080fd5b61077f8682870161068f565b9497909650939450505050565b8183823760009101908152919050565b81835281816020850137506000828201602090810191909152601f909101601f19169091010190565b6001600160a01b03841681526040602082015260006107e860408301848661079c565b95945050505050565b60208152600061080560208301848661079c565b94935050505056fe60e060405234801561001057600080fd5b5060405161035d38038061035d83398101604081905261002f91610068565b6001600160a01b0392831660805260a0919091521660c0526100a4565b80516001600160a01b038116811461006357600080fd5b919050565b60008060006060848603121561007d57600080fd5b6100868461004c565b92506020840151915061009b6040850161004c565b90509250925092565b60805160a05160c05161027f6100de6000396000605601526000818160f5015261014d01526000818160ce015261018d015261027f6000f3fe608060405234801561001057600080fd5b506004361061004c5760003560e01c80630e15999d1461005157806357de26a4146100a25780639f03866b146100c9578063dcf8da92146100f0575b600080fd5b6100787f000000000000000000000000000000000000000000000000000000000000000081565b60405173ffffffffffffffffffffffffffffffffffffffff90911681526020015b60405180910390f35b6100aa610125565b60408051601b9390930b835263ffffffff909116602083015201610099565b6100787f000000000000000000000000000000000000000000000000000000000000000081565b6101177f000000000000000000000000000000000000000000000000000000000000000081565b604051908152602001610099565b6040517f32be8f0b0000000000000000000000000000000000000000000000000000000081527f00000000000000000000000000000000000000000000000000000000000000006004820152600090819073ffffffffffffffffffffffffffffffffffffffff7f000000000000000000000000000000000000000000000000000000000000000016906332be8f0b906024016040805180830381865afa1580156101d3573d6000803e3d6000fd5b505050506040513d601f19601f820116820180604052508101906101f79190610200565b90939092509050565b6000806040838503121561021357600080fd5b825180601b0b811461022457600080fd5b602084015190925063ffffffff8116811461023e57600080fd5b80915050925092905056fea26469706673582212201d22e5872b9cfe2dce996331a77b7d1651e7848a7e73270d346904019338a8fb64736f6c6343000811003360c060405234801561001057600080fd5b506040516102fd3803806102fd83398101604081905261002f91610045565b6001600160a01b0390911660805260a05261007f565b6000806040838503121561005857600080fd5b82516001600160a01b038116811461006f57600080fd5b6020939093015192949293505050565b60805160a05161024d6100b060003960008181604b015261011b01526000818160ac015261015b015261024d6000f3fe608060405234801561001057600080fd5b50600436106100415760003560e01c8063370c826b1461004657806357de26a4146100805780639f03866b146100a7575b600080fd5b61006d7f000000000000000000000000000000000000000000000000000000000000000081565b6040519081526020015b60405180910390f35b6100886100f3565b60408051601b9390930b835263ffffffff909116602083015201610077565b6100ce7f000000000000000000000000000000000000000000000000000000000000000081565b60405173ffffffffffffffffffffffffffffffffffffffff9091168152602001610077565b6040517fa5fc076f0000000000000000000000000000000000000000000000000000000081527f00000000000000000000000000000000000000000000000000000000000000006004820152600090819073ffffffffffffffffffffffffffffffffffffffff7f0000000000000000000000000000000000000000000000000000000000000000169063a5fc076f906024016040805180830381865afa1580156101a1573d6000803e3d6000fd5b505050506040513d601f19601f820116820180604052508101906101c591906101ce565b90939092509050565b600080604083850312156101e157600080fd5b825180601b0b81146101f257600080fd5b602084015190925063ffffffff8116811461020c57600080fd5b80915050925092905056fea2646970667358221220c9f70f3292507f311e26141d40627eb351dc15b954ba86321584b664b06506f664736f6c6343000811003360e060405234801561001057600080fd5b5060405161035e38038061035e83398101604081905261002f91610068565b6001600160a01b0392831660805260a0919091521660c0526100a4565b80516001600160a01b038116811461006357600080fd5b919050565b60008060006060848603121561007d57600080fd5b6100868461004c565b92506020840151915061009b6040850161004c565b90509250925092565b60805160a05160c05161027f6100df6000396000605601526000818160a7015261014d015260008181610103015261018d015261027f6000f3fe608060405234801561001057600080fd5b506004361061004c5760003560e01c80630e15999d14610051578063370c826b146100a257806357de26a4146100d75780639f03866b146100fe575b600080fd5b6100787f000000000000000000000000000000000000000000000000000000000000000081565b60405173ffffffffffffffffffffffffffffffffffffffff90911681526020015b60405180910390f35b6100c97f000000000000000000000000000000000000000000000000000000000000000081565b604051908152602001610099565b6100df610125565b60408051601b9390930b835263ffffffff909116602083015201610099565b6100787f000000000000000000000000000000000000000000000000000000000000000081565b6040517fcfaf49710000000000000000000000000000000000000000000000000000000081527f00000000000000000000000000000000000000000000000000000000000000006004820152600090819073ffffffffffffffffffffffffffffffffffffffff7f0000000000000000000000000000000000000000000000000000000000000000169063cfaf4971906024016040805180830381865afa1580156101d3573d6000803e3d6000fd5b505050506040513d601f19601f820116820180604052508101906101f79190610200565b90939092509050565b6000806040838503121561021357600080fd5b825180601b0b811461022457600080fd5b602084015190925063ffffffff8116811461023e57600080fd5b80915050925092905056fea264697066735822122041123e061254601c74bd75705ff420e641043a730d352015afde08da2d10257064736f6c6343000811003360c060405234801561001057600080fd5b506040516102fd3803806102fd83398101604081905261002f91610045565b6001600160a01b0390911660805260a05261007f565b6000806040838503121561005857600080fd5b82516001600160a01b038116811461006f57600080fd5b6020939093015192949293505050565b60805160a05161024d6100b06000396000818160c3015261011b0152600081816077015261015b015261024d6000f3fe608060405234801561001057600080fd5b50600436106100415760003560e01c806357de26a4146100465780639f03866b14610072578063dcf8da92146100be575b600080fd5b61004e6100f3565b60408051601b9390930b835263ffffffff9091166020830152015b60405180910390f35b6100997f000000000000000000000000000000000000000000000000000000000000000081565b60405173ffffffffffffffffffffffffffffffffffffffff9091168152602001610069565b6100e57f000000000000000000000000000000000000000000000000000000000000000081565b604051908152602001610069565b6040517fb62408a30000000000000000000000000000000000000000000000000000000081527f00000000000000000000000000000000000000000000000000000000000000006004820152600090819073ffffffffffffffffffffffffffffffffffffffff7f0000000000000000000000000000000000000000000000000000000000000000169063b62408a3906024016040805180830381865afa1580156101a1573d6000803e3d6000fd5b505050506040513d601f19601f820116820180604052508101906101c591906101ce565b90939092509050565b600080604083850312156101e157600080fd5b825180601b0b81146101f257600080fd5b602084015190925063ffffffff8116811461020c57600080fd5b80915050925092905056fea264697066735822122018927e86153db40aaf28c969bc1eea8fdb2e761c8aeafdc0aeb972e07e03b53f64736f6c63430008110033a2646970667358221220b1927ada3d19d1ef876f6f7c55e21ccc5d1fbe9d2ee3db4f75f52d258b32c08264736f6c63430008110033",
  "devdoc": {
    "details": "The proxies are deployed normally and not cloned to minimize the gas cost overhead while using them to read data feed values",
    "kind": "dev",
    "methods": {
      "constructor": {
        "params": {
          "_oevDapiServer": "OevDapiServer address"
        }
      },
      "deployDapiProxy(bytes32,bytes)": {
        "params": {
          "dapiName": "dAPI name",
          "metadata": "Metadata associated with the proxy"
        },
        "returns": {
          "proxyAddress": "Proxy address"
        }
      },
      "deployDapiProxyWithOev(bytes32,address,bytes)": {
        "params": {
          "dapiName": "dAPI name",
          "metadata": "Metadata associated with the proxy",
          "oevBeneficiary": "OEV beneficiary"
        },
        "returns": {
          "proxyAddress": "Proxy address"
        }
      },
      "deployDataFeedProxy(bytes32,bytes)": {
        "params": {
          "dataFeedId": "Data feed ID",
          "metadata": "Metadata associated with the proxy"
        },
        "returns": {
          "proxyAddress": "Proxy address"
        }
      },
      "deployDataFeedProxyWithOev(bytes32,address,bytes)": {
        "params": {
          "dataFeedId": "Data feed ID",
          "metadata": "Metadata associated with the proxy",
          "oevBeneficiary": "OEV beneficiary"
        },
        "returns": {
          "proxyAddress": "Proxy address"
        }
      }
    },
    "title": "Contract factory that deterministically deploys proxies that read data feeds (Beacons or Beacon sets) or dAPIs, along with optional OEV support",
    "version": 1
  },
  "userdoc": {
    "kind": "user",
    "methods": {
      "deployDapiProxy(bytes32,bytes)": {
        "notice": "Deterministically deploys a dAPI proxy"
      },
      "deployDapiProxyWithOev(bytes32,address,bytes)": {
        "notice": "Deterministically deploys a dAPI proxy with OEV support"
      },
      "deployDataFeedProxy(bytes32,bytes)": {
        "notice": "Deterministically deploys a data feed proxy"
      },
      "deployDataFeedProxyWithOev(bytes32,address,bytes)": {
        "notice": "Deterministically deploys a data feed proxy with OEV support"
      },
      "oevDapiServer()": {
        "notice": "OevDapiServer address"
      }
    },
    "version": 1
  },
  "storageLayout": {
    "storage": [],
    "types": null
  }
}