{
  "address": "0x07d02832523A2F831260641F7fdE4A099477E2Ab",
  "abi": [
    {
      "inputs": [
        {
          "internalType": "address",
          "name": "owner_",
          "type": "address"
        },
        {
          "internalType": "address",
          "name": "proxyFactory_",
          "type": "address"
        }
      ],
      "stateMutability": "nonpayable",
      "type": "constructor"
    },
    {
      "anonymous": false,
      "inputs": [
        {
          "indexed": true,
          "internalType": "bytes32",
          "name": "dapiName",
          "type": "bytes32"
        },
        {
          "indexed": true,
          "internalType": "bytes32",
          "name": "subscriptionId",
          "type": "bytes32"
        },
        {
          "indexed": false,
          "internalType": "bytes32",
          "name": "dataFeedId",
          "type": "bytes32"
        },
        {
          "indexed": false,
          "internalType": "address",
          "name": "sponsorWallet",
          "type": "address"
        },
        {
          "indexed": false,
          "internalType": "bytes",
          "name": "updateParameters",
          "type": "bytes"
        },
        {
          "indexed": false,
          "internalType": "uint256",
          "name": "duration",
          "type": "uint256"
        },
        {
          "indexed": false,
          "internalType": "uint256",
          "name": "price",
          "type": "uint256"
        },
        {
          "indexed": false,
          "internalType": "uint256",
          "name": "paymentAmount",
          "type": "uint256"
        }
      ],
      "name": "BoughtSubscription",
      "type": "event"
    },
    {
      "anonymous": false,
      "inputs": [
        {
          "indexed": true,
          "internalType": "address",
          "name": "previousOwner",
          "type": "address"
        },
        {
          "indexed": true,
          "internalType": "address",
          "name": "newOwner",
          "type": "address"
        }
      ],
      "name": "OwnershipTransferred",
      "type": "event"
    },
    {
      "anonymous": false,
      "inputs": [
        {
          "indexed": true,
          "internalType": "bytes32",
          "name": "hashType",
          "type": "bytes32"
        },
        {
          "indexed": false,
          "internalType": "bytes32",
          "name": "hashValue",
          "type": "bytes32"
        },
        {
          "indexed": false,
          "internalType": "uint256",
          "name": "hashTimestamp",
          "type": "uint256"
        }
      ],
      "name": "RegisteredHash",
      "type": "event"
    },
    {
      "anonymous": false,
      "inputs": [
        {
          "indexed": true,
          "internalType": "bytes32",
          "name": "hashType",
          "type": "bytes32"
        },
        {
          "indexed": false,
          "internalType": "bytes32",
          "name": "hashValue",
          "type": "bytes32"
        },
        {
          "indexed": false,
          "internalType": "uint256",
          "name": "hashTimestamp",
          "type": "uint256"
        }
      ],
      "name": "SetHash",
      "type": "event"
    },
    {
      "anonymous": false,
      "inputs": [
        {
          "indexed": true,
          "internalType": "bytes32",
          "name": "hashType",
          "type": "bytes32"
        },
        {
          "indexed": false,
          "internalType": "address[]",
          "name": "signers",
          "type": "address[]"
        }
      ],
      "name": "SetSigners",
      "type": "event"
    },
    {
      "anonymous": false,
      "inputs": [
        {
          "indexed": true,
          "internalType": "bytes32",
          "name": "dapiName",
          "type": "bytes32"
        },
        {
          "indexed": true,
          "internalType": "bytes32",
          "name": "subscriptionId",
          "type": "bytes32"
        }
      ],
      "name": "UpdatedCurrentSubscriptionId",
      "type": "event"
    },
    {
      "inputs": [],
      "name": "DAPI_MANAGEMENT_MERKLE_ROOT_HASH_TYPE",
      "outputs": [
        {
          "internalType": "bytes32",
          "name": "",
          "type": "bytes32"
        }
      ],
      "stateMutability": "view",
      "type": "function"
    },
    {
      "inputs": [],
      "name": "DAPI_PRICING_MERKLE_ROOT_HASH_TYPE",
      "outputs": [
        {
          "internalType": "bytes32",
          "name": "",
          "type": "bytes32"
        }
      ],
      "stateMutability": "view",
      "type": "function"
    },
    {
      "inputs": [],
      "name": "MAXIMUM_DAPI_UPDATE_AGE",
      "outputs": [
        {
          "internalType": "uint256",
          "name": "",
          "type": "uint256"
        }
      ],
      "stateMutability": "view",
      "type": "function"
    },
    {
      "inputs": [],
      "name": "MAXIMUM_SUBSCRIPTION_QUEUE_LENGTH",
      "outputs": [
        {
          "internalType": "uint256",
          "name": "",
          "type": "uint256"
        }
      ],
      "stateMutability": "view",
      "type": "function"
    },
    {
      "inputs": [],
      "name": "SIGNED_API_URL_MERKLE_ROOT_HASH_TYPE",
      "outputs": [
        {
          "internalType": "bytes32",
          "name": "",
          "type": "bytes32"
        }
      ],
      "stateMutability": "view",
      "type": "function"
    },
    {
      "inputs": [],
      "name": "airseekerRegistry",
      "outputs": [
        {
          "internalType": "address",
          "name": "",
          "type": "address"
        }
      ],
      "stateMutability": "view",
      "type": "function"
    },
    {
      "inputs": [],
      "name": "api3ServerV1",
      "outputs": [
        {
          "internalType": "address",
          "name": "",
          "type": "address"
        }
      ],
      "stateMutability": "view",
      "type": "function"
    },
    {
      "inputs": [
        {
          "internalType": "bytes32",
          "name": "dapiName",
          "type": "bytes32"
        },
        {
          "internalType": "bytes32",
          "name": "dataFeedId",
          "type": "bytes32"
        },
        {
          "internalType": "address payable",
          "name": "sponsorWallet",
          "type": "address"
        },
        {
          "internalType": "bytes",
          "name": "dapiManagementMerkleData",
          "type": "bytes"
        },
        {
          "internalType": "bytes",
          "name": "updateParameters",
          "type": "bytes"
        },
        {
          "internalType": "uint256",
          "name": "duration",
          "type": "uint256"
        },
        {
          "internalType": "uint256",
          "name": "price",
          "type": "uint256"
        },
        {
          "internalType": "bytes",
          "name": "dapiPricingMerkleData",
          "type": "bytes"
        }
      ],
      "name": "buySubscription",
      "outputs": [
        {
          "internalType": "bytes32",
          "name": "subscriptionId",
          "type": "bytes32"
        }
      ],
      "stateMutability": "payable",
      "type": "function"
    },
    {
      "inputs": [
        {
          "internalType": "bytes32",
          "name": "dapiName",
          "type": "bytes32"
        }
      ],
      "name": "computeExpectedSponsorWalletBalance",
      "outputs": [
        {
          "internalType": "uint256",
          "name": "expectedSponsorWalletBalance",
          "type": "uint256"
        }
      ],
      "stateMutability": "view",
      "type": "function"
    },
    {
      "inputs": [
        {
          "internalType": "bytes32",
          "name": "dapiName",
          "type": "bytes32"
        },
        {
          "internalType": "bytes",
          "name": "updateParameters",
          "type": "bytes"
        },
        {
          "internalType": "uint256",
          "name": "duration",
          "type": "uint256"
        },
        {
          "internalType": "uint256",
          "name": "price",
          "type": "uint256"
        }
      ],
      "name": "computeExpectedSponsorWalletBalanceAfterSubscriptionIsAdded",
      "outputs": [
        {
          "internalType": "uint256",
          "name": "expectedSponsorWalletBalance",
          "type": "uint256"
        }
      ],
      "stateMutability": "view",
      "type": "function"
    },
    {
      "inputs": [
        {
          "internalType": "address",
          "name": "account",
          "type": "address"
        }
      ],
      "name": "containsBytecode",
      "outputs": [
        {
          "internalType": "bool",
          "name": "",
          "type": "bool"
        }
      ],
      "stateMutability": "view",
      "type": "function"
    },
    {
      "inputs": [
        {
          "internalType": "bytes32",
          "name": "",
          "type": "bytes32"
        }
      ],
      "name": "dapiNameToCurrentSubscriptionId",
      "outputs": [
        {
          "internalType": "bytes32",
          "name": "",
          "type": "bytes32"
        }
      ],
      "stateMutability": "view",
      "type": "function"
    },
    {
      "inputs": [
        {
          "internalType": "bytes32",
          "name": "dapiName",
          "type": "bytes32"
        },
        {
          "internalType": "bytes",
          "name": "metadata",
          "type": "bytes"
        }
      ],
      "name": "deployDapiProxy",
      "outputs": [
        {
          "internalType": "address",
          "name": "proxyAddress",
          "type": "address"
        }
      ],
      "stateMutability": "nonpayable",
      "type": "function"
    },
    {
      "inputs": [
        {
          "internalType": "bytes32",
          "name": "dapiName",
          "type": "bytes32"
        },
        {
          "internalType": "address",
          "name": "oevBeneficiary",
          "type": "address"
        },
        {
          "internalType": "bytes",
          "name": "metadata",
          "type": "bytes"
        }
      ],
      "name": "deployDapiProxyWithOev",
      "outputs": [
        {
          "internalType": "address",
          "name": "proxyAddress",
          "type": "address"
        }
      ],
      "stateMutability": "nonpayable",
      "type": "function"
    },
    {
      "inputs": [
        {
          "internalType": "address",
          "name": "account",
          "type": "address"
        }
      ],
      "name": "getBalance",
      "outputs": [
        {
          "internalType": "uint256",
          "name": "",
          "type": "uint256"
        }
      ],
      "stateMutability": "view",
      "type": "function"
    },
    {
      "inputs": [],
      "name": "getBlockBasefee",
      "outputs": [
        {
          "internalType": "uint256",
          "name": "",
          "type": "uint256"
        }
      ],
      "stateMutability": "view",
      "type": "function"
    },
    {
      "inputs": [],
      "name": "getBlockNumber",
      "outputs": [
        {
          "internalType": "uint256",
          "name": "",
          "type": "uint256"
        }
      ],
      "stateMutability": "view",
      "type": "function"
    },
    {
      "inputs": [],
      "name": "getBlockTimestamp",
      "outputs": [
        {
          "internalType": "uint256",
          "name": "",
          "type": "uint256"
        }
      ],
      "stateMutability": "view",
      "type": "function"
    },
    {
      "inputs": [],
      "name": "getChainId",
      "outputs": [
        {
          "internalType": "uint256",
          "name": "",
          "type": "uint256"
        }
      ],
      "stateMutability": "view",
      "type": "function"
    },
    {
      "inputs": [
        {
          "internalType": "bytes32",
          "name": "dapiName",
          "type": "bytes32"
        }
      ],
      "name": "getDapiData",
      "outputs": [
        {
          "internalType": "bytes",
          "name": "dataFeedDetails",
          "type": "bytes"
        },
        {
          "internalType": "int224",
          "name": "dapiValue",
          "type": "int224"
        },
        {
          "internalType": "uint32",
          "name": "dapiTimestamp",
          "type": "uint32"
        },
        {
          "internalType": "int224[]",
          "name": "beaconValues",
          "type": "int224[]"
        },
        {
          "internalType": "uint32[]",
          "name": "beaconTimestamps",
          "type": "uint32[]"
        },
        {
          "internalType": "bytes[]",
          "name": "updateParameters",
          "type": "bytes[]"
        },
        {
          "internalType": "uint32[]",
          "name": "endTimestamps",
          "type": "uint32[]"
        },
        {
          "internalType": "uint224[]",
          "name": "dailyPrices",
          "type": "uint224[]"
        }
      ],
      "stateMutability": "view",
      "type": "function"
    },
    {
      "inputs": [
        {
          "internalType": "bytes32",
          "name": "dataFeedId",
          "type": "bytes32"
        }
      ],
      "name": "getDataFeedData",
      "outputs": [
        {
          "internalType": "bytes",
          "name": "dataFeedDetails",
          "type": "bytes"
        },
        {
          "internalType": "int224",
          "name": "dataFeedValue",
          "type": "int224"
        },
        {
          "internalType": "uint32",
          "name": "dataFeedTimestamp",
          "type": "uint32"
        },
        {
          "internalType": "int224[]",
          "name": "beaconValues",
          "type": "int224[]"
        },
        {
          "internalType": "uint32[]",
          "name": "beaconTimestamps",
          "type": "uint32[]"
        }
      ],
      "stateMutability": "view",
      "type": "function"
    },
    {
      "inputs": [
        {
          "internalType": "bytes32",
          "name": "hashType",
          "type": "bytes32"
        }
      ],
      "name": "getHashValue",
      "outputs": [
        {
          "internalType": "bytes32",
          "name": "hashValue",
          "type": "bytes32"
        }
      ],
      "stateMutability": "view",
      "type": "function"
    },
    {
      "inputs": [
        {
          "internalType": "bytes32",
          "name": "",
          "type": "bytes32"
        }
      ],
      "name": "hashTypeToSignersHash",
      "outputs": [
        {
          "internalType": "bytes32",
          "name": "",
          "type": "bytes32"
        }
      ],
      "stateMutability": "view",
      "type": "function"
    },
    {
      "inputs": [
        {
          "internalType": "bytes32",
          "name": "",
          "type": "bytes32"
        }
      ],
      "name": "hashes",
      "outputs": [
        {
          "internalType": "bytes32",
          "name": "value",
          "type": "bytes32"
        },
        {
          "internalType": "uint256",
          "name": "timestamp",
          "type": "uint256"
        }
      ],
      "stateMutability": "view",
      "type": "function"
    },
    {
      "inputs": [
        {
          "internalType": "bytes[]",
          "name": "data",
          "type": "bytes[]"
        }
      ],
      "name": "multicall",
      "outputs": [
        {
          "internalType": "bytes[]",
          "name": "returndata",
          "type": "bytes[]"
        }
      ],
      "stateMutability": "nonpayable",
      "type": "function"
    },
    {
      "inputs": [],
      "name": "owner",
      "outputs": [
        {
          "internalType": "address",
          "name": "",
          "type": "address"
        }
      ],
      "stateMutability": "view",
      "type": "function"
    },
    {
      "inputs": [],
      "name": "proxyFactory",
      "outputs": [
        {
          "internalType": "address",
          "name": "",
          "type": "address"
        }
      ],
      "stateMutability": "view",
      "type": "function"
    },
    {
      "inputs": [
        {
          "internalType": "bytes",
          "name": "dataFeedDetails",
          "type": "bytes"
        }
      ],
      "name": "registerDataFeed",
      "outputs": [
        {
          "internalType": "bytes32",
          "name": "dataFeedId",
          "type": "bytes32"
        }
      ],
      "stateMutability": "nonpayable",
      "type": "function"
    },
    {
      "inputs": [
        {
          "internalType": "bytes32",
          "name": "hashType",
          "type": "bytes32"
        },
        {
          "internalType": "bytes32",
          "name": "hashValue",
          "type": "bytes32"
        },
        {
          "internalType": "uint256",
          "name": "hashTimestamp",
          "type": "uint256"
        },
        {
          "internalType": "bytes[]",
          "name": "signatures",
          "type": "bytes[]"
        }
      ],
      "name": "registerHash",
      "outputs": [],
      "stateMutability": "nonpayable",
      "type": "function"
    },
    {
      "inputs": [],
      "name": "renounceOwnership",
      "outputs": [],
      "stateMutability": "pure",
      "type": "function"
    },
    {
      "inputs": [
        {
          "internalType": "bytes32",
          "name": "hashType",
          "type": "bytes32"
        },
        {
          "internalType": "bytes32",
          "name": "hashValue",
          "type": "bytes32"
        }
      ],
      "name": "setHash",
      "outputs": [],
      "stateMutability": "nonpayable",
      "type": "function"
    },
    {
      "inputs": [
        {
          "internalType": "bytes32",
          "name": "hashType",
          "type": "bytes32"
        },
        {
          "internalType": "address[]",
          "name": "signers",
          "type": "address[]"
        }
      ],
      "name": "setSigners",
      "outputs": [],
      "stateMutability": "nonpayable",
      "type": "function"
    },
    {
      "inputs": [],
      "name": "signatureDelegationHashType",
      "outputs": [
        {
          "internalType": "bytes32",
          "name": "",
          "type": "bytes32"
        }
      ],
      "stateMutability": "view",
      "type": "function"
    },
    {
      "inputs": [
        {
          "internalType": "bytes32",
          "name": "subscriptionId",
          "type": "bytes32"
        }
      ],
      "name": "subscriptionIdToUpdateParameters",
      "outputs": [
        {
          "internalType": "bytes",
          "name": "updateParameters",
          "type": "bytes"
        }
      ],
      "stateMutability": "view",
      "type": "function"
    },
    {
      "inputs": [
        {
          "internalType": "bytes32",
          "name": "",
          "type": "bytes32"
        }
      ],
      "name": "subscriptions",
      "outputs": [
        {
          "internalType": "bytes32",
          "name": "updateParametersHash",
          "type": "bytes32"
        },
        {
          "internalType": "uint32",
          "name": "endTimestamp",
          "type": "uint32"
        },
        {
          "internalType": "uint224",
          "name": "dailyPrice",
          "type": "uint224"
        },
        {
          "internalType": "bytes32",
          "name": "nextSubscriptionId",
          "type": "bytes32"
        }
      ],
      "stateMutability": "view",
      "type": "function"
    },
    {
      "inputs": [
        {
          "internalType": "address",
          "name": "",
          "type": "address"
        }
      ],
      "name": "transferOwnership",
      "outputs": [],
      "stateMutability": "pure",
      "type": "function"
    },
    {
      "inputs": [
        {
          "internalType": "bytes[]",
          "name": "data",
          "type": "bytes[]"
        }
      ],
      "name": "tryMulticall",
      "outputs": [
        {
          "internalType": "bool[]",
          "name": "successes",
          "type": "bool[]"
        },
        {
          "internalType": "bytes[]",
          "name": "returndata",
          "type": "bytes[]"
        }
      ],
      "stateMutability": "nonpayable",
      "type": "function"
    },
    {
      "inputs": [
        {
          "internalType": "bytes32[]",
          "name": "beaconIds",
          "type": "bytes32[]"
        }
      ],
      "name": "updateBeaconSetWithBeacons",
      "outputs": [
        {
          "internalType": "bytes32",
          "name": "beaconSetId",
          "type": "bytes32"
        }
      ],
      "stateMutability": "nonpayable",
      "type": "function"
    },
    {
      "inputs": [
        {
          "internalType": "address",
          "name": "airnode",
          "type": "address"
        },
        {
          "internalType": "bytes32",
          "name": "templateId",
          "type": "bytes32"
        },
        {
          "internalType": "uint256",
          "name": "timestamp",
          "type": "uint256"
        },
        {
          "internalType": "bytes",
          "name": "data",
          "type": "bytes"
        },
        {
          "internalType": "bytes",
          "name": "signature",
          "type": "bytes"
        }
      ],
      "name": "updateBeaconWithSignedData",
      "outputs": [
        {
          "internalType": "bytes32",
          "name": "beaconId",
          "type": "bytes32"
        }
      ],
      "stateMutability": "nonpayable",
      "type": "function"
    },
    {
      "inputs": [
        {
          "internalType": "bytes32",
          "name": "dapiName",
          "type": "bytes32"
        }
      ],
      "name": "updateCurrentSubscriptionId",
      "outputs": [],
      "stateMutability": "nonpayable",
      "type": "function"
    },
    {
      "inputs": [
        {
          "internalType": "bytes32",
          "name": "dapiName",
          "type": "bytes32"
        },
        {
          "internalType": "bytes32",
          "name": "dataFeedId",
          "type": "bytes32"
        },
        {
          "internalType": "address",
          "name": "sponsorWallet",
          "type": "address"
        },
        {
          "internalType": "bytes",
          "name": "dapiManagementMerkleData",
          "type": "bytes"
        }
      ],
      "name": "updateDapiName",
      "outputs": [],
      "stateMutability": "nonpayable",
      "type": "function"
    },
    {
      "inputs": [
        {
          "internalType": "address",
          "name": "airnode",
          "type": "address"
        },
        {
          "internalType": "string",
          "name": "signedApiUrl",
          "type": "string"
        },
        {
          "internalType": "bytes",
          "name": "signedApiUrlMerkleData",
          "type": "bytes"
        }
      ],
      "name": "updateSignedApiUrl",
      "outputs": [],
      "stateMutability": "nonpayable",
      "type": "function"
    }
  ],
  "transactionHash": "0x02c1a2f5bc9294d65eb2abacc680ada72a1a80f6dfc415966bfd3a94fbaa8807",
  "args": [
    "0x122744E29B201bB6a65F3edE85B11A04FBa662bC",
    "0x34e3ED2b168CA9350F167B47C720f2397E9Fc8d5"
  ],
  "numDeployments": 1,
  "solcInputHash": "9a9784f0166e92dcfa54df2d2c909051",
  "bytecode": "0x60e06040523480156200001157600080fd5b50604051620083253803806200832583398101604081905262000034916200020c565b81620000403362000191565b6001600160a01b038116620000905760405162461bcd60e51b81526020600482015260126024820152714f776e65722061646472657373207a65726f60701b604482015260640160405180910390fd5b6200009b8162000191565b50806001600160a01b031660a0816001600160a01b0316815250506000816001600160a01b0316632d6a744e6040518163ffffffff1660e01b8152600401602060405180830381865afa158015620000f7573d6000803e3d6000fd5b505050506040513d601f19601f820116820180604052508101906200011d919062000244565b6001600160a01b038116608052604051909150600090309083906200014290620001e1565b6001600160a01b039283168152911660208201526040018190604051809103906000f59050801580156200017a573d6000803e3d6000fd5b506001600160a01b031660c0525062000269915050565b600080546001600160a01b038381166001600160a01b0319831681178455604051919092169283917f8be0079c531659141344cd1fd0a4f28419497f9722a3daafe3b4186f6b6457e09190a35050565b612c7c80620056a983390190565b80516001600160a01b03811681146200020757600080fd5b919050565b600080604083850312156200022057600080fd5b6200022b83620001ef565b91506200023b60208401620001ef565b90509250929050565b6000602082840312156200025757600080fd5b6200026282620001ef565b9392505050565b60805160a05160c051615376620003336000396000818161050001528181610e6201528181610f9d015281816112d9015281816124a401528181612ce701528181612d5201528181613708015281816137a00152613acb0152600081816107a6015281816111ee01526114f00152600081816103de0152818161098f01528181610d8d01528181611e490152818161254e0152818161262c0152818161280f01528181612a9801528181612bca015281816138610152818161393801526139c401526153766000f3fe6080604052600436106102d05760003560e01c8063796b89b911610179578063c1516e54116100d6578063d7fecd8c1161008a578063f2fde38b11610064578063f2fde38b146108f5578063f8b2cb4f14610915578063fa0130671461093d57600080fd5b8063d7fecd8c1461089a578063d8d2f90f146108ad578063e637cf00146108de57600080fd5b8063d5659f31116100bb578063d5659f311461081c578063d658d2e914610831578063d7fa10071461087a57600080fd5b8063c1516e54146107c8578063c6c04e16146107e857600080fd5b80639ae06c841161012d578063aa2b44e411610112578063aa2b44e41461073a578063ac9650d814610767578063c10f1a751461079457600080fd5b80639ae06c84146106fa578063a5f36cb11461071a57600080fd5b80638c9f4c791161015e5780638c9f4c79146106265780638da5cb5b1461065357806394259c6c1461067157600080fd5b8063796b89b9146105e6578063845ebe43146105f957600080fd5b80633adb35fe116102325780635849e5ef116101e65780635d868194116101c05780635d8681941461059157806364c2359d146105b1578063715018a6146105d157600080fd5b80635849e5ef146105225780635885c771146105425780635989eaeb1461055757600080fd5b8063437b911611610217578063437b9116146104ad5780634dcc19fe146104db57806353130e26146104ee57600080fd5b80633adb35fe1461044057806342cbb15c1461049a57600080fd5b80631d911b6d116102895780632d6a744e1161026e5780632d6a744e146103cc5780633408e4701461041857806336dff6531461042b57600080fd5b80631d911b6d14610397578063288ddb61146103b757600080fd5b8063044c9bd7116102ba578063044c9bd71461032a57806318d6e2d4146103575780631a0a0b3e1461037757600080fd5b8062aae33f146102d55780630141ff4814610308575b600080fd5b3480156102e157600080fd5b506102f56102f0366004614100565b61095d565b6040519081526020015b60405180910390f35b34801561031457600080fd5b50610328610323366004614142565b610a11565b005b34801561033657600080fd5b506102f5610345366004614142565b60009081526001602052604090205490565b34801561036357600080fd5b5061032861037236600461415b565b610ae9565b34801561038357600080fd5b506102f56103923660046141fe565b610d5a565b3480156103a357600080fd5b506103286103b2366004614294565b610e1d565b3480156103c357600080fd5b506102f561100f565b3480156103d857600080fd5b506104007f000000000000000000000000000000000000000000000000000000000000000081565b6040516001600160a01b0390911681526020016102ff565b34801561042457600080fd5b50466102f5565b34801561043757600080fd5b506102f5600581565b34801561044c57600080fd5b506102f56040517f417069334d61726b6574207369676e61747572652064656c65676174696f6e006020820152600090603f0160405160208183030381529060405280519060200120905090565b3480156104a657600080fd5b50436102f5565b3480156104b957600080fd5b506104cd6104c8366004614100565b611055565b6040516102ff9291906143bf565b3480156104e757600080fd5b50486102f5565b3480156104fa57600080fd5b506104007f000000000000000000000000000000000000000000000000000000000000000081565b34801561052e57600080fd5b5061040061053d366004614418565b6111bb565b34801561054e57600080fd5b506102f5611275565b34801561056357600080fd5b50610581610572366004614474565b6001600160a01b03163b151590565b60405190151581526020016102ff565b34801561059d57600080fd5b506102f56105ac366004614491565b6112a6565b3480156105bd57600080fd5b506102f56105cc366004614142565b611310565b3480156105dd57600080fd5b506103286113c6565b3480156105f257600080fd5b50426102f5565b34801561060557600080fd5b506102f5610614366004614142565b60026020526000908152604090205481565b34801561063257600080fd5b50610646610641366004614142565b61140e565b6040516102ff91906144c7565b34801561065f57600080fd5b506000546001600160a01b0316610400565b34801561067d57600080fd5b506106c761068c366004614142565b600360205260009081526040902080546001820154600290920154909163ffffffff8116916401000000009091046001600160e01b03169084565b6040805194855263ffffffff90931660208501526001600160e01b039091169183019190915260608201526080016102ff565b34801561070657600080fd5b506104006107153660046144da565b6114bd565b34801561072657600080fd5b50610328610735366004614519565b611574565b34801561074657600080fd5b506102f5610755366004614142565b60046020526000908152604090205481565b34801561077357600080fd5b50610787610782366004614100565b611b0b565b6040516102ff9190614569565b3480156107a057600080fd5b506104007f000000000000000000000000000000000000000000000000000000000000000081565b3480156107d457600080fd5b506102f56107e336600461457c565b611c8c565b3480156107f457600080fd5b50610808610803366004614142565b611e38565b6040516102ff98979695949392919061464e565b34801561082857600080fd5b506102f56121bd565b34801561083d57600080fd5b5061086561084c366004614142565b6001602081905260009182526040909120805491015482565b604080519283526020830191909152016102ff565b34801561088657600080fd5b50610328610895366004614719565b6121ee565b6102f56108a836600461474b565b61225f565b3480156108b957600080fd5b506108cd6108c8366004614142565b61249a565b6040516102ff959493929190614823565b3480156108ea57600080fd5b506102f56201518081565b34801561090157600080fd5b50610328610910366004614474565b612987565b34801561092157600080fd5b506102f5610930366004614474565b6001600160a01b03163190565b34801561094957600080fd5b50610328610958366004614871565b6129cf565b6040517eaae33f0000000000000000000000000000000000000000000000000000000081526000906001600160a01b037f0000000000000000000000000000000000000000000000000000000000000000169062aae33f906109c590869086906004016148ca565b6020604051808303816000875af11580156109e4573d6000803e3d6000fd5b505050506040513d601f19601f82011682018060405250810190610a08919061491c565b90505b92915050565b60008181526004602052604090205480610a725760405162461bcd60e51b815260206004820152601860248201527f537562736372697074696f6e20717565756520656d707479000000000000000060448201526064015b60405180910390fd5b6000818152600360205260409020600101544263ffffffff9091161115610adb5760405162461bcd60e51b815260206004820152601e60248201527f43757272656e7420737562736372697074696f6e206e6f7420656e64656400006044820152606401610a69565b610ae58282612c36565b5050565b610af1612da6565b82610b3e5760405162461bcd60e51b815260206004820152600e60248201527f486173682074797065207a65726f0000000000000000000000000000000000006044820152606401610a69565b806000819003610b905760405162461bcd60e51b815260206004820152600d60248201527f5369676e65727320656d707479000000000000000000000000000000000000006044820152606401610a69565b600083838281610ba257610ba2614935565b9050602002016020810190610bb79190614474565b6001600160a01b031603610c0d5760405162461bcd60e51b815260206004820152601960248201527f4669727374207369676e65722061646472657373207a65726f000000000000006044820152606401610a69565b60015b81811015610ce1578383610c25600184614961565b818110610c3457610c34614935565b9050602002016020810190610c499190614474565b6001600160a01b0316848483818110610c6457610c64614935565b9050602002016020810190610c799190614474565b6001600160a01b031611610ccf5760405162461bcd60e51b815260206004820152601e60248201527f5369676e657273206e6f7420696e20617363656e64696e67206f7264657200006044820152606401610a69565b80610cd981614974565b915050610c10565b508282604051602001610cf592919061498d565b60408051601f198184030181528282528051602091820120600088815260029092529190205584907f5a1f5ee4ceedd78b1982374b4790e8aa9f31e8af1c32aaef46b2afd8a789193a90610d4c90869086906149cf565b60405180910390a250505050565b6040517f1a0a0b3e0000000000000000000000000000000000000000000000000000000081526000906001600160a01b037f00000000000000000000000000000000000000000000000000000000000000001690631a0a0b3e90610dce908b908b908b908b908b908b908b90600401614a46565b6020604051808303816000875af1158015610ded573d6000803e3d6000fd5b505050506040513d601f19601f82011682018060405250810190610e11919061491c565b98975050505050505050565b610e2a8585858585612e11565b6040517f085df6ab0000000000000000000000000000000000000000000000000000000081526001600160a01b0386811660048301527f0000000000000000000000000000000000000000000000000000000000000000169063085df6ab90602401600060405180830381865afa158015610ea9573d6000803e3d6000fd5b505050506040513d6000823e601f3d908101601f19168201604052610ed19190810190614b3a565b604051602001610ee19190614b83565b604051602081830303815290604052805190602001208484604051602001610f0a929190614b9f565b6040516020818303038152906040528051906020012003610f6d5760405162461bcd60e51b815260206004820152601e60248201527f446f6573206e6f7420757064617465207369676e6564204150492055524c00006044820152606401610a69565b6040517ffba8f22f0000000000000000000000000000000000000000000000000000000081526001600160a01b037f0000000000000000000000000000000000000000000000000000000000000000169063fba8f22f90610fd690889088908890600401614baf565b600060405180830381600087803b158015610ff057600080fd5b505af1158015611004573d6000803e3d6000fd5b505050505050505050565b6040517f644150492070726963696e67204d65726b6c6520726f6f74000000000000000060208201526038015b6040516020818303038152906040528051906020012081565b606080828067ffffffffffffffff81111561107257611072614a96565b60405190808252806020026020018201604052801561109b578160200160208202803683370190505b5092508067ffffffffffffffff8111156110b7576110b7614a96565b6040519080825280602002602001820160405280156110ea57816020015b60608152602001906001900390816110d55790505b50915060005b818110156111b2573086868381811061110b5761110b614935565b905060200281019061111d9190614bd2565b60405161112b929190614b9f565b600060405180830381855af49150503d8060008114611166576040519150601f19603f3d011682016040523d82523d6000602084013e61116b565b606091505b5085838151811061117e5761117e614935565b6020026020010185848151811061119757611197614935565b602090810291909101019190915290151590526001016110f0565b50509250929050565b6040517f5849e5ef0000000000000000000000000000000000000000000000000000000081526000906001600160a01b037f00000000000000000000000000000000000000000000000000000000000000001690635849e5ef90611229908890889088908890600401614c19565b6020604051808303816000875af1158015611248573d6000803e3d6000fd5b505050506040513d601f19601f8201168201806040525081019061126c9190614c42565b95945050505050565b6040517f64415049206d616e6167656d656e74204d65726b6c6520726f6f7400000000006020820152603b0161103c565b6040517f5d8681940000000000000000000000000000000000000000000000000000000081526000906001600160a01b037f00000000000000000000000000000000000000000000000000000000000000001690635d868194906109c59086908690600401614c5f565b60008061131c42612f57565b600084815260046020526040812054919250905b80156113be576000818152600360205260409020600181015490925063ffffffff16428111156113b2576001830154620151809064010000000090046001600160e01b031661137f8684614c73565b63ffffffff1661138f9190614c97565b6113999190614cdf565b6113ac906001600160e01b031686614d05565b94508093505b50506002810154611330565b505050919050565b60405162461bcd60e51b815260206004820152601d60248201527f4f776e6572736869702063616e6e6f742062652072656e6f756e6365640000006044820152606401610a69565b60008181526003602090815260408083205483526005909152902080546060919061143890614d18565b80601f016020809104026020016040519081016040528092919081815260200182805461146490614d18565b80156114b15780601f10611486576101008083540402835291602001916114b1565b820191906000526020600020905b81548152906001019060200180831161149457829003601f168201915b50505050509050919050565b6040517f9ae06c840000000000000000000000000000000000000000000000000000000081526000906001600160a01b037f00000000000000000000000000000000000000000000000000000000000000001690639ae06c849061152990879087908790600401614d52565b6020604051808303816000875af1158015611548573d6000803e3d6000fd5b505050506040513d601f19601f8201168201806040525081019061156c9190614c42565b949350505050565b836115c15760405162461bcd60e51b815260206004820152600f60248201527f486173682076616c7565207a65726f00000000000000000000000000000000006044820152606401610a69565b428311156116115760405162461bcd60e51b815260206004820152601a60248201527f486173682074696d657374616d702066726f6d206675747572650000000000006044820152606401610a69565b6000858152600160208190526040909120015483116116725760405162461bcd60e51b815260206004820152601e60248201527f486173682074696d657374616d70206e6f74206d6f726520726563656e7400006044820152606401610a69565b600085815260026020526040902054806116ce5760405162461bcd60e51b815260206004820152600f60248201527f5369676e657273206e6f742073657400000000000000000000000000000000006044820152606401610a69565b8160008167ffffffffffffffff8111156116ea576116ea614a96565b604051908082528060200260200182016040528015611713578160200160208202803683370190505b5060408051602081018b905290810189905260608101889052909150600090611783906080015b604051602081830303815290604052805190602001207f19457468657265756d205369676e6564204d6573736167653a0a3332000000006000908152601c91909152603c902090565b905060005b83811015611a1d5760008787838181106117a4576117a4614935565b90506020028101906117b69190614bd2565b915050604019810161185b57611824838989858181106117d8576117d8614935565b90506020028101906117ea9190614bd2565b8080601f016020809104026020016040519081016040528093929190818152602001838380828437600092019190915250612fd792505050565b84838151811061183657611836614935565b60200260200101906001600160a01b031690816001600160a01b031681525050611a0a565b61016081036119c25760008060008a8a8681811061187b5761187b614935565b905060200281019061188d9190614bd2565b81019061189a9190614dbd565b9250925092508242106118ef5760405162461bcd60e51b815260206004820152601060248201527f44656c65676174696f6e20656e646564000000000000000000000000000000006044820152606401610a69565b6119886119826119426040517f417069334d61726b6574207369676e61747572652064656c65676174696f6e006020820152600090603f0160405160208183030381529060405280519060200120905090565b61194c8985612fd7565b8660405160200161173a9392919092835260609190911b6bffffffffffffffffffffffff19166020830152603482015260540190565b83612fd7565b87868151811061199a5761199a614935565b60200260200101906001600160a01b031690816001600160a01b031681525050505050611a0a565b60405162461bcd60e51b815260206004820152601860248201527f496e76616c6964207369676e6174757265206c656e67746800000000000000006044820152606401610a69565b5080611a1581614974565b915050611788565b5081604051602001611a2f9190614e2a565b604051602081830303815290604052805190602001208414611a935760405162461bcd60e51b815260206004820152601260248201527f5369676e6174757265206d69736d6174636800000000000000000000000000006044820152606401610a69565b60408051808201825289815260208082018a815260008d815260019283905284902092518355519101555189907fa33e8931ee2a869317bbe04201dab2907fd39d2d7f014c15b8459986e62c279190611af8908b908b90918252602082015260400190565b60405180910390a2505050505050505050565b6060818067ffffffffffffffff811115611b2757611b27614a96565b604051908082528060200260200182016040528015611b5a57816020015b6060815260200190600190039081611b455790505b50915060005b81811015611c8457600030868684818110611b7d57611b7d614935565b9050602002810190611b8f9190614bd2565b604051611b9d929190614b9f565b600060405180830381855af49150503d8060008114611bd8576040519150601f19603f3d011682016040523d82523d6000602084013e611bdd565b606091505b50858481518110611bf057611bf0614935565b6020908102919091010152905080611c7b576000848381518110611c1657611c16614935565b60200260200101519050600081511115611c335780518082602001fd5b60405162461bcd60e51b815260206004820152601b60248201527f4d756c746963616c6c3a204e6f2072657665727420737472696e6700000000006044820152606401610a69565b50600101611b60565b505092915050565b600060608414611cde5760405162461bcd60e51b815260206004820181905260248201527f55706461746520706172616d6574657273206c656e67746820696e76616c69646044820152606401610a69565b600080600080611cf08a8a8a8a612ffb565b93509350935093506000878762015180611d0a9190614e69565b611d149190614e80565b90506000611d2142612f57565b905060008415611d3f5760008d815260046020526040902054611d41565b865b90505b8015611e2857868103611d91576201518083611d608489614c73565b63ffffffff16611d709190614e69565b611d7a9190614e80565b611d849089614d05565b9750859150839050611d44565b6000818152600360205260409020600181015463ffffffff1642811115611e0a576001820154620151809064010000000090046001600160e01b0316611dd78684614c73565b63ffffffff16611de79190614c97565b611df19190614cdf565b611e04906001600160e01b03168b614d05565b99508093505b828703611e1957889250611e21565b816002015492505b5050611d44565b5050505050505095945050505050565b6060600080606080606080606060007f00000000000000000000000000000000000000000000000000000000000000006001600160a01b031663472c22f18b604051602001611e8991815260200190565b604051602081830303815290604052805190602001206040518263ffffffff1660e01b8152600401611ebd91815260200190565b602060405180830381865afa158015611eda573d6000803e3d6000fd5b505050506040513d601f19601f82011682018060405250810190611efe919061491c565b9050611f098161249a565b60008f815260046020526040812054959e50939c50919a5098509650905b8015611f545781611f3781614974565b60009283526003602052604090922060020154919250611f279050565b508067ffffffffffffffff811115611f6e57611f6e614a96565b604051908082528060200260200182016040528015611fa157816020015b6060815260200190600190039081611f8c5790505b5094508067ffffffffffffffff811115611fbd57611fbd614a96565b604051908082528060200260200182016040528015611fe6578160200160208202803683370190505b5093508067ffffffffffffffff81111561200257612002614a96565b60405190808252806020026020018201604052801561202b578160200160208202803683370190505b5060008c8152600460209081526040808320548352600390915281209194505b828110156121ae5781546000908152600560205260409020805461206e90614d18565b80601f016020809104026020016040519081016040528092919081815260200182805461209a90614d18565b80156120e75780601f106120bc576101008083540402835291602001916120e7565b820191906000526020600020905b8154815290600101906020018083116120ca57829003601f168201915b50505050508782815181106120fe576120fe614935565b60209081029190910101526001820154865163ffffffff9091169087908390811061212b5761212b614935565b602002602001019063ffffffff16908163ffffffff16815250508160010160049054906101000a90046001600160e01b031685828151811061216f5761216f614935565b6001600160e01b0390921660209283029190910182015260029092015460009081526003909252604090912090806121a681614974565b91505061204b565b50505050919395975091939597565b6040517f5369676e6564204150492055524c204d65726b6c6520726f6f740000000000006020820152603a0161103c565b6121f6612da6565b604080518082018252828152426020808301828152600087815260018084529086902094518555905193019290925582518481529182015283917f19cb5bc6996c2541fb44252778e9c8c952662cce4670a75a4174b50c765bd7d1910160405180910390a25050565b60008a6122ae5760405162461bcd60e51b815260206004820152601160248201527f446174612066656564204944207a65726f0000000000000000000000000000006044820152606401610a69565b6001600160a01b038a166123045760405162461bcd60e51b815260206004820152601b60248201527f53706f6e736f722077616c6c65742061646472657373207a65726f00000000006044820152606401610a69565b6123118c8c8c8c8c61324d565b6123208c888888888888613379565b61232e8c8c89898989613574565b90506123398c611310565b61234d346001600160a01b038d1631614d05565b101561239b5760405162461bcd60e51b815260206004820152601460248201527f496e73756666696369656e74207061796d656e740000000000000000000000006044820152606401610a69565b808c7fd44e8abecc305a9434d27a049c731a8331cee8bca6496154f47835b396ce55068d8d8b8b8b8b346040516123d89796959493929190614e94565b60405180910390a3341561248b5760008a6001600160a01b03163460405160006040518083038185875af1925050503d8060008114612433576040519150601f19603f3d011682016040523d82523d6000602084013e612438565b606091505b50509050806124895760405162461bcd60e51b815260206004820152601560248201527f5472616e7366657220756e7375636365737366756c00000000000000000000006044820152606401610a69565b505b9b9a5050505050505050505050565b60606000806060807f00000000000000000000000000000000000000000000000000000000000000006001600160a01b0316636e85b69a876040518263ffffffff1660e01b81526004016124f091815260200190565b600060405180830381865afa15801561250d573d6000803e3d6000fd5b505050506040513d6000823e601f3d908101601f191682016040526125359190810190614b3a565b6040516367a7cfb760e01b8152600481018890529095507f00000000000000000000000000000000000000000000000000000000000000006001600160a01b0316906367a7cfb7906024016040805180830381865afa15801561259c573d6000803e3d6000fd5b505050506040513d601f19601f820116820180604052508101906125c09190614eeb565b86519195509350603f190161275a5760408051600180825281830190925290602080830190803683375050604080516001808252818301909252929450905060208083019080368337019050509050600080868060200190518101906126269190614f2e565b915091507f00000000000000000000000000000000000000000000000000000000000000006001600160a01b03166367a7cfb76126a584846040516bffffffffffffffffffffffff19606084901b1660208201526034810182905260009060540160405160208183030381529060405280519060200120905092915050565b6040518263ffffffff1660e01b81526004016126c391815260200190565b6040805180830381865afa1580156126df573d6000803e3d6000fd5b505050506040513d601f19601f820116820180604052508101906127039190614eeb565b8560008151811061271657612716614935565b602002602001018560008151811061273057612730614935565b602002602001018263ffffffff1663ffffffff1681525082601b0b601b0b8152505050505061297e565b600080868060200190518101906127719190614fdb565b815191935091508067ffffffffffffffff81111561279157612791614a96565b6040519080825280602002602001820160405280156127ba578160200160208202803683370190505b5094508067ffffffffffffffff8111156127d6576127d6614a96565b6040519080825280602002602001820160405280156127ff578160200160208202803683370190505b50935060005b81811015612979577f00000000000000000000000000000000000000000000000000000000000000006001600160a01b03166367a7cfb76128ba86848151811061285157612851614935565b602002602001015186858151811061286b5761286b614935565b60200260200101516040516bffffffffffffffffffffffff19606084901b1660208201526034810182905260009060540160405160208183030381529060405280519060200120905092915050565b6040518263ffffffff1660e01b81526004016128d891815260200190565b6040805180830381865afa1580156128f4573d6000803e3d6000fd5b505050506040513d601f19601f820116820180604052508101906129189190614eeb565b87838151811061292a5761292a614935565b6020026020010187848151811061294357612943614935565b602002602001018263ffffffff1663ffffffff1681525082601b0b601b0b8152505050808061297190614974565b915050612805565b505050505b91939590929450565b60405162461bcd60e51b815260206004820152601f60248201527f4f776e6572736869702063616e6e6f74206265207472616e73666572726564006044820152606401610a69565b8315612a30576001600160a01b038316612a2b5760405162461bcd60e51b815260206004820152601b60248201527f53706f6e736f722077616c6c65742061646472657373207a65726f00000000006044820152606401610a69565b612a87565b6001600160a01b03831615612a875760405162461bcd60e51b815260206004820152601f60248201527f53706f6e736f722077616c6c65742061646472657373206e6f74207a65726f006044820152606401610a69565b612a94858585858561324d565b60007f00000000000000000000000000000000000000000000000000000000000000006001600160a01b031663472c22f187604051602001612ad891815260200190565b604051602081830303815290604052805190602001206040518263ffffffff1660e01b8152600401612b0c91815260200190565b602060405180830381865afa158015612b29573d6000803e3d6000fd5b505050506040513d601f19601f82011682018060405250810190612b4d919061491c565b9050848103612b9e5760405162461bcd60e51b815260206004820152601960248201527f446f6573206e6f74207570646174652064415049206e616d65000000000000006044820152606401610a69565b8415612bad57612bad856139ab565b6040516391eed08560e01b815260048101879052602481018690527f00000000000000000000000000000000000000000000000000000000000000006001600160a01b0316906391eed08590604401600060405180830381600087803b158015612c1657600080fd5b505af1158015612c2a573d6000803e3d6000fd5b50505050505050505050565b5b6000908152600360205260409020600201548015801590612c7157506000818152600360205260409020600101544263ffffffff90911611155b612c3757604051819083907fe08aff0930a0c84c077d2ce7e690a3f910c0f8705376b2405816efb89b9869b790600090a3600082815260046020526040902081905580612d50576040517f2412a9cb000000000000000000000000000000000000000000000000000000008152600481018390527f00000000000000000000000000000000000000000000000000000000000000006001600160a01b031690632412a9cb906024015b600060405180830381600087803b158015612d3457600080fd5b505af1158015612d48573d6000803e3d6000fd5b505050505050565b7f00000000000000000000000000000000000000000000000000000000000000006001600160a01b031663d23bab1483612d898461140e565b6040518363ffffffff1660e01b8152600401612d1a9291906150a0565b33612db96000546001600160a01b031690565b6001600160a01b031614612e0f5760405162461bcd60e51b815260206004820181905260248201527f4f776e61626c653a2063616c6c6572206973206e6f7420746865206f776e65726044820152606401610a69565b565b600080612e20838501856150b9565b915091508160016000604051602001612e5c907f5369676e6564204150492055524c204d65726b6c6520726f6f740000000000008152601a0190565b6040516020818303038152906040528051906020012081526020019081526020016000206000015414612ec05760405162461bcd60e51b815260206004820152600c60248201526b125b9d985b1a59081c9bdbdd60a21b6044820152606401610a69565b612f128183898989604051602001612eda93929190614baf565b60408051601f198184030181528282528051602091820120908301520160405160208183030381529060405280519060200120613b8a565b612f4e5760405162461bcd60e51b815260206004820152600d60248201526c24b73b30b634b210383937b7b360991b6044820152606401610a69565b50505050505050565b600063ffffffff821115612fd35760405162461bcd60e51b815260206004820152602660248201527f53616665436173743a2076616c756520646f65736e27742066697420696e203360448201527f32206269747300000000000000000000000000000000000000000000000000006064820152608401610a69565b5090565b6000806000612fe68585613ba2565b91509150612ff381613be7565b509392505050565b600080600080878787604051613012929190614b9f565b6040519081900381206130319291602001918252602082015260400190565b60405160208183030381529060405280519060200120935061305d85426130589190614d05565b612f57565b92506000808061306f898b018b615156565b60008e81526004602052604081205493965091945092509081905b80156131ec57600081815260036020526040812080549093506130b290889088908890613d4f565b60018085015491925063ffffffff909116908260028111156130d6576130d661518e565b14806130ed57508063ffffffff168b63ffffffff16115b6131395760405162461bcd60e51b815260206004820152601d60248201527f537562736372697074696f6e20646f6573206e6f7420757067726164650000006044820152606401610a69565b600282600281111561314d5761314d61518e565b14801561315f5750428163ffffffff16115b1561317657829950848061317290614974565b9550505b600182600281111561318a5761318a61518e565b1480156131a257508063ffffffff168b63ffffffff16105b156131df578298505b82156131d857846131bb81614974565b600094855260036020526040909420600201549395506131ab9050565b50506131ec565b505050600281015461308a565b506005821061323d5760405162461bcd60e51b815260206004820152601760248201527f537562736372697074696f6e2071756575652066756c6c0000000000000000006044820152606401610a69565b5050505050945094509450949050565b8461329a5760405162461bcd60e51b815260206004820152600e60248201527f64415049206e616d65207a65726f0000000000000000000000000000000000006044820152606401610a69565b6000806132a9838501856150b9565b9150915081600160006040516020016132e5907f64415049206d616e6167656d656e74204d65726b6c6520726f6f7400000000008152601b0190565b60405160208183030381529060405280519060200120815260200190815260200160002060000154146133495760405162461bcd60e51b815260206004820152600c60248201526b125b9d985b1a59081c9bdbdd60a21b6044820152606401610a69565b60408051602081018990529081018790526001600160a01b0386166060820152612f129082908490608001612eda565b606085146133c95760405162461bcd60e51b815260206004820181905260248201527f55706461746520706172616d6574657273206c656e67746820696e76616c69646044820152606401610a69565b836000036134195760405162461bcd60e51b815260206004820152600d60248201527f4475726174696f6e207a65726f000000000000000000000000000000000000006044820152606401610a69565b826000036134695760405162461bcd60e51b815260206004820152600a60248201527f5072696365207a65726f000000000000000000000000000000000000000000006044820152606401610a69565b600080613478838501856150b9565b9150915081600160006040516020016134b4907f644150492070726963696e67204d65726b6c6520726f6f740000000000000000815260180190565b60405160208183030381529060405280519060200120815260200190815260200160002060000154146135185760405162461bcd60e51b815260206004820152600c60248201526b125b9d985b1a59081c9bdbdd60a21b6044820152606401610a69565b61353881838b468c8c8c8c604051602001612eda969594939291906151a4565b6110045760405162461bcd60e51b815260206004820152600d60248201526c24b73b30b634b210383937b7b360991b6044820152606401610a69565b6000806000806135868a898989612ffb565b604051939750919550935091506000906135a3908a908a90614b9f565b604051809103902090506005600082815260200190815260200160002080546135cb90614d18565b90506000036135ef5760008181526005602052604090206135ed898b83615224565b505b6040805160808101825282815263ffffffff8616602082015290810161362b8961361c8a62015180614e69565b6136269190614e80565b613f04565b6001600160e01b03908116825260209182018590526000888152600383526040908190208451815592840151908401519091166401000000000263ffffffff9091161760018201556060909101516002909101558261380b5760008b81526004602052604090205485146136d85760405185908c907fe08aff0930a0c84c077d2ce7e690a3f910c0f8705376b2405816efb89b9869b790600090a360008b81526004602052604090208590555b6040517fd23bab140000000000000000000000000000000000000000000000000000000081526001600160a01b037f0000000000000000000000000000000000000000000000000000000000000000169063d23bab1490613741908e908d908d90600401614d52565b600060405180830381600087803b15801561375b57600080fd5b505af115801561376f573d6000803e3d6000fd5b50506040517fbe3cc74d000000000000000000000000000000000000000000000000000000008152600481018e90527f00000000000000000000000000000000000000000000000000000000000000006001600160a01b0316925063be3cc74d9150602401600060405180830381600087803b1580156137ee57600080fd5b505af1158015613802573d6000803e3d6000fd5b50505050613855565b60008381526003602081815260408084206002018990558e8452600482528084205480855292909152909120600101544263ffffffff90911611613853576138538c82612c36565b505b61385e8a6139ab565b897f00000000000000000000000000000000000000000000000000000000000000006001600160a01b031663472c22f18d6040516020016138a191815260200190565b604051602081830303815290604052805190602001206040518263ffffffff1660e01b81526004016138d591815260200190565b602060405180830381865afa1580156138f2573d6000803e3d6000fd5b505050506040513d601f19601f82011682018060405250810190613916919061491c565b1461399d576040516391eed08560e01b8152600481018c9052602481018b90527f00000000000000000000000000000000000000000000000000000000000000006001600160a01b0316906391eed08590604401600060405180830381600087803b15801561398457600080fd5b505af1158015613998573d6000803e3d6000fd5b505050505b505050509695505050505050565b6040516367a7cfb760e01b8152600481018290526000907f00000000000000000000000000000000000000000000000000000000000000006001600160a01b0316906367a7cfb7906024016040805180830381865afa158015613a12573d6000803e3d6000fd5b505050506040513d601f19601f82011682018060405250810190613a369190614eeb565b9150613a4d90506201518063ffffffff8316614d05565b421115613a9c5760405162461bcd60e51b815260206004820152601560248201527f4461746120666565642076616c7565207374616c6500000000000000000000006044820152606401610a69565b6040517f7a821819000000000000000000000000000000000000000000000000000000008152600481018390527f00000000000000000000000000000000000000000000000000000000000000006001600160a01b031690637a82181990602401602060405180830381865afa158015613b1a573d6000803e3d6000fd5b505050506040513d601f19601f82011682018060405250810190613b3e91906152e5565b610ae55760405162461bcd60e51b815260206004820152601860248201527f446174612066656564206e6f74207265676973746572656400000000000000006044820152606401610a69565b600082613b978584613f83565b1490505b9392505050565b6000808251604103613bd85760208301516040840151606085015160001a613bcc87828585613fc8565b94509450505050613be0565b506000905060025b9250929050565b6000816004811115613bfb57613bfb61518e565b03613c035750565b6001816004811115613c1757613c1761518e565b03613c645760405162461bcd60e51b815260206004820152601860248201527f45434453413a20696e76616c6964207369676e617475726500000000000000006044820152606401610a69565b6002816004811115613c7857613c7861518e565b03613cc55760405162461bcd60e51b815260206004820152601f60248201527f45434453413a20696e76616c6964207369676e6174757265206c656e677468006044820152606401610a69565b6003816004811115613cd957613cd961518e565b03613d4c5760405162461bcd60e51b815260206004820152602260248201527f45434453413a20696e76616c6964207369676e6174757265202773272076616c60448201527f75650000000000000000000000000000000000000000000000000000000000006064820152608401610a69565b50565b6000818152600560205260408120805482918291829190613d6f90614d18565b80601f0160208091040260200160405190810160405280929190818152602001828054613d9b90614d18565b8015613de85780601f10613dbd57610100808354040283529160200191613de8565b820191906000526020600020905b815481529060010190602001808311613dcb57829003601f168201915b5050505050806020019051810190613e009190615307565b92509250925081601b0b87601b0b14613e5b5760405162461bcd60e51b815260206004820152601e60248201527f446576696174696f6e207265666572656e636573206e6f7420657175616c00006044820152606401610a69565b8288148015613e6957508086145b15613e7a576000935050505061156c565b828811158015613e8a5750808611155b15613e9b576001935050505061156c565b828810158015613eab5750808610155b15613ebc576002935050505061156c565b60405162461bcd60e51b815260206004820152601e60248201527f55706461746520706172616d657465727320696e636f6d70617261626c6500006044820152606401610a69565b60006001600160e01b03821115612fd35760405162461bcd60e51b815260206004820152602760248201527f53616665436173743a2076616c756520646f65736e27742066697420696e203260448201527f32342062697473000000000000000000000000000000000000000000000000006064820152608401610a69565b600081815b8451811015612ff357613fb482868381518110613fa757613fa7614935565b602002602001015161408c565b915080613fc081614974565b915050613f88565b6000807f7fffffffffffffffffffffffffffffff5d576e7357a4501ddfe92f46681b20a0831115613fff5750600090506003614083565b6040805160008082526020820180845289905260ff881692820192909252606081018690526080810185905260019060a0016020604051602081039080840390855afa158015614053573d6000803e3d6000fd5b5050604051601f1901519150506001600160a01b03811661407c57600060019250925050614083565b9150600090505b94509492505050565b60008183106140a8576000828152602084905260409020610a08565b6000838152602083905260409020610a08565b60008083601f8401126140cd57600080fd5b50813567ffffffffffffffff8111156140e557600080fd5b6020830191508360208260051b8501011115613be057600080fd5b6000806020838503121561411357600080fd5b823567ffffffffffffffff81111561412a57600080fd5b614136858286016140bb565b90969095509350505050565b60006020828403121561415457600080fd5b5035919050565b60008060006040848603121561417057600080fd5b83359250602084013567ffffffffffffffff81111561418e57600080fd5b61419a868287016140bb565b9497909650939450505050565b6001600160a01b0381168114613d4c57600080fd5b60008083601f8401126141ce57600080fd5b50813567ffffffffffffffff8111156141e657600080fd5b602083019150836020828501011115613be057600080fd5b600080600080600080600060a0888a03121561421957600080fd5b8735614224816141a7565b96506020880135955060408801359450606088013567ffffffffffffffff8082111561424f57600080fd5b61425b8b838c016141bc565b909650945060808a013591508082111561427457600080fd5b506142818a828b016141bc565b989b979a50959850939692959293505050565b6000806000806000606086880312156142ac57600080fd5b85356142b7816141a7565b9450602086013567ffffffffffffffff808211156142d457600080fd5b6142e089838a016141bc565b909650945060408801359150808211156142f957600080fd5b50614306888289016141bc565b969995985093965092949392505050565b60005b8381101561433257818101518382015260200161431a565b50506000910152565b60008151808452614353816020860160208601614317565b601f01601f19169290920160200192915050565b600082825180855260208086019550808260051b84010181860160005b848110156143b257601f198684030189526143a083835161433b565b98840198925090830190600101614384565b5090979650505050505050565b604080825283519082018190526000906020906060840190828701845b828110156143fa5781511515845292840192908401906001016143dc565b5050508381038285015261440e8186614367565b9695505050505050565b6000806000806060858703121561442e57600080fd5b843593506020850135614440816141a7565b9250604085013567ffffffffffffffff81111561445c57600080fd5b614468878288016141bc565b95989497509550505050565b60006020828403121561448657600080fd5b8135613b9b816141a7565b600080602083850312156144a457600080fd5b823567ffffffffffffffff8111156144bb57600080fd5b614136858286016141bc565b602081526000610a08602083018461433b565b6000806000604084860312156144ef57600080fd5b83359250602084013567ffffffffffffffff81111561450d57600080fd5b61419a868287016141bc565b60008060008060006080868803121561453157600080fd5b853594506020860135935060408601359250606086013567ffffffffffffffff81111561455d57600080fd5b614306888289016140bb565b602081526000610a086020830184614367565b60008060008060006080868803121561459457600080fd5b85359450602086013567ffffffffffffffff8111156145b257600080fd5b6145be888289016141bc565b9699909850959660408101359660609091013595509350505050565b600081518084526020808501945080840160005b8381101561460d578151601b0b875295820195908201906001016145ee565b509495945050505050565b600081518084526020808501945080840160005b8381101561460d57815163ffffffff168752958201959082019060010161462c565b60006101008083526146628184018c61433b565b905060208a601b0b8185015263ffffffff8a166040850152838203606085015261468c828a6145da565b915083820360808501526146a08289614618565b915083820360a08501526146b48288614367565b915083820360c08501526146c88287614618565b84810360e0860152855180825282870193509082019060005b818110156147065784516001600160e01b0316835293830193918301916001016146e1565b50909d9c50505050505050505050505050565b6000806040838503121561472c57600080fd5b50508035926020909101359150565b8035614746816141a7565b919050565b60008060008060008060008060008060006101008c8e03121561476d57600080fd5b8b359a5060208c0135995061478460408d0161473b565b985067ffffffffffffffff8060608e013511156147a057600080fd5b6147b08e60608f01358f016141bc565b909950975060808d01358110156147c657600080fd5b6147d68e60808f01358f016141bc565b909750955060a08d0135945060c08d0135935060e08d01358110156147fa57600080fd5b5061480b8d60e08e01358e016141bc565b81935080925050509295989b509295989b9093969950565b60a08152600061483660a083018861433b565b86601b0b602084015263ffffffff86166040840152828103606084015261485d81866145da565b90508281036080840152610e118185614618565b60008060008060006080868803121561488957600080fd5b853594506020860135935060408601356148a2816141a7565b9250606086013567ffffffffffffffff8111156148be57600080fd5b614306888289016141bc565b6020815281602082015260007f07ffffffffffffffffffffffffffffffffffffffffffffffffffffffffffffff83111561490357600080fd5b8260051b80856040850137919091016040019392505050565b60006020828403121561492e57600080fd5b5051919050565b634e487b7160e01b600052603260045260246000fd5b634e487b7160e01b600052601160045260246000fd5b81810381811115610a0b57610a0b61494b565b6000600182016149865761498661494b565b5060010190565b60008184825b858110156149c45781356149a6816141a7565b6001600160a01b031683526020928301929190910190600101614993565b509095945050505050565b60208082528181018390526000908460408401835b86811015614a125782356149f7816141a7565b6001600160a01b0316825291830191908301906001016149e4565b509695505050505050565b81835281816020850137506000828201602090810191909152601f909101601f19169091010190565b6001600160a01b038816815286602082015285604082015260a060608201526000614a7560a083018688614a1d565b8281036080840152614a88818587614a1d565b9a9950505050505050505050565b634e487b7160e01b600052604160045260246000fd5b604051601f8201601f1916810167ffffffffffffffff81118282101715614ad557614ad5614a96565b604052919050565b600067ffffffffffffffff821115614af757614af7614a96565b50601f01601f191660200190565b6000614b18614b1384614add565b614aac565b9050828152838383011115614b2c57600080fd5b613b9b836020830184614317565b600060208284031215614b4c57600080fd5b815167ffffffffffffffff811115614b6357600080fd5b8201601f81018413614b7457600080fd5b61156c84825160208401614b05565b60008251614b95818460208701614317565b9190910192915050565b8183823760009101908152919050565b6001600160a01b038416815260406020820152600061126c604083018486614a1d565b6000808335601e19843603018112614be957600080fd5b83018035915067ffffffffffffffff821115614c0457600080fd5b602001915036819003821315613be057600080fd5b8481526001600160a01b038416602082015260606040820152600061440e606083018486614a1d565b600060208284031215614c5457600080fd5b8151613b9b816141a7565b60208152600061156c602083018486614a1d565b63ffffffff828116828216039080821115614c9057614c9061494b565b5092915050565b6001600160e01b03828116828216818102831692918115828504821417614cc057614cc061494b565b50505092915050565b634e487b7160e01b600052601260045260246000fd5b60006001600160e01b0380841680614cf957614cf9614cc9565b92169190910492915050565b80820180821115610a0b57610a0b61494b565b600181811c90821680614d2c57607f821691505b602082108103614d4c57634e487b7160e01b600052602260045260246000fd5b50919050565b83815260406020820152600061126c604083018486614a1d565b600082601f830112614d7d57600080fd5b8135614d8b614b1382614add565b818152846020838601011115614da057600080fd5b816020850160208301376000918101602001919091529392505050565b600080600060608486031215614dd257600080fd5b83359250602084013567ffffffffffffffff80821115614df157600080fd5b614dfd87838801614d6c565b93506040860135915080821115614e1357600080fd5b50614e2086828701614d6c565b9150509250925092565b815160009082906020808601845b83811015614e5d5781516001600160a01b031685529382019390820190600101614e38565b50929695505050505050565b8082028115828204841417610a0b57610a0b61494b565b600082614e8f57614e8f614cc9565b500490565b8781526001600160a01b038716602082015260c060408201526000614ebd60c083018789614a1d565b606083019590955250608081019290925260a090910152949350505050565b80601b0b8114613d4c57600080fd5b60008060408385031215614efe57600080fd5b8251614f0981614edc565b602084015190925063ffffffff81168114614f2357600080fd5b809150509250929050565b60008060408385031215614f4157600080fd5b8251614f4c816141a7565b6020939093015192949293505050565b600067ffffffffffffffff821115614f7657614f76614a96565b5060051b60200190565b600082601f830112614f9157600080fd5b81516020614fa1614b1383614f5c565b82815260059290921b84018101918181019086841115614fc057600080fd5b8286015b84811015614a125780518352918301918301614fc4565b60008060408385031215614fee57600080fd5b825167ffffffffffffffff8082111561500657600080fd5b818501915085601f83011261501a57600080fd5b8151602061502a614b1383614f5c565b82815260059290921b8401810191818101908984111561504957600080fd5b948201945b83861015615070578551615061816141a7565b8252948201949082019061504e565b9188015191965090935050508082111561508957600080fd5b5061509685828601614f80565b9150509250929050565b82815260406020820152600061156c604083018461433b565b600080604083850312156150cc57600080fd5b8235915060208084013567ffffffffffffffff8111156150eb57600080fd5b8401601f810186136150fc57600080fd5b803561510a614b1382614f5c565b81815260059190911b8201830190838101908883111561512957600080fd5b928401925b828410156151475783358252928401929084019061512e565b80955050505050509250929050565b60008060006060848603121561516b57600080fd5b83359250602084013561517d81614edc565b929592945050506040919091013590565b634e487b7160e01b600052602160045260246000fd5b86815285602082015260a0604082015260006151c460a083018688614a1d565b60608301949094525060800152949350505050565b601f82111561521f57600081815260208120601f850160051c810160208610156152005750805b601f850160051c820191505b81811015612d485782815560010161520c565b505050565b67ffffffffffffffff83111561523c5761523c614a96565b6152508361524a8354614d18565b836151d9565b6000601f841160018114615284576000851561526c5750838201355b600019600387901b1c1916600186901b1783556152de565b600083815260209020601f19861690835b828110156152b55786850135825560209485019460019092019101615295565b50868210156152d25760001960f88860031b161c19848701351681555b505060018560011b0183555b5050505050565b6000602082840312156152f757600080fd5b81518015158114613b9b57600080fd5b60008060006060848603121561531c57600080fd5b83519250602084015161532e81614edc565b8092505060408401519050925092509256fea264697066735822122007cf114e08bb54c5e187a967d6f8e378073903eb053db5f7a376a13a05e950b164736f6c6343000811003360a06040523480156200001157600080fd5b5060405162002c7c38038062002c7c833981016040819052620000349162000173565b6200003f3362000106565b6001600160a01b038216620000905760405162461bcd60e51b81526020600482015260126024820152714f776e65722061646472657373207a65726f60701b60448201526064015b60405180910390fd5b6001600160a01b038116620000e85760405162461bcd60e51b815260206004820152601960248201527f4170693353657276657256312061646472657373207a65726f00000000000000604482015260640162000087565b620000f38262000106565b6001600160a01b031660805250620001ab565b600080546001600160a01b038381166001600160a01b0319831681178455604051919092169283917f8be0079c531659141344cd1fd0a4f28419497f9722a3daafe3b4186f6b6457e09190a35050565b80516001600160a01b03811681146200016e57600080fd5b919050565b600080604083850312156200018757600080fd5b620001928362000156565b9150620001a26020840162000156565b90509250929050565b608051612a99620001e36000396000818161025e01528181611327015281816114b7015281816115cb01526118b60152612a996000f3fe608060405234801561001057600080fd5b50600436106101f05760003560e01c8063796b89b91161010f578063be3cc74d116100a2578063ddb2575211610071578063ddb2575214610420578063f2fde38b14610433578063f8b2cb4f14610446578063fba8f22f1461046157600080fd5b8063be3cc74d146103ca578063d23bab14146103dd578063d3cc6647146103f0578063d4a66d921461041857600080fd5b80638f634751116100de5780638f6347511461037c57806391af241114610384578063ac9650d814610397578063b07a0c2f146103b757600080fd5b8063796b89b91461033f5780637a821819146103455780637ca50e85146103585780638da5cb5b1461036b57600080fd5b806342cbb15c116101875780635d868194116101565780635d868194146103095780636e85b69a1461031c578063715018a61461032f578063773f2edc1461033757600080fd5b806342cbb15c146102af578063437b9116146102b55780634dcc19fe146102d65780635989eaeb146102dc57600080fd5b80632d6a744e116101c35780632d6a744e146102595780633408e4701461029857806336b7840d1461029e5780633aad52b9146102a757600080fd5b8063074244ce146101f5578063085df6ab146102115780631761c219146102315780632412a9cb14610246575b600080fd5b6101fe61010081565b6040519081526020015b60405180910390f35b61022461021f366004611f36565b610474565b6040516102089190611fa0565b61024461023f366004611ffc565b61050e565b005b610244610254366004612048565b610679565b6102807f000000000000000000000000000000000000000000000000000000000000000081565b6040516001600160a01b039091168152602001610208565b466101fe565b6101fe61040081565b6101fe601581565b436101fe565b6102c86102c3366004612061565b610700565b60405161020892919061212e565b486101fe565b6102f96102ea366004611f36565b6001600160a01b03163b151590565b6040519015158152602001610208565b6101fe610317366004612187565b610866565b61022461032a366004612048565b610cec565b610244610d05565b6101fe610d4d565b426101fe565b6102f9610353366004612048565b610d5e565b610224610366366004612048565b610d80565b6000546001600160a01b0316610280565b6101fe610e2f565b610244610392366004612048565b610e4b565b6103aa6103a5366004612061565b610ed3565b60405161020891906121c9565b6102446103c5366004612048565b611054565b6102446103d8366004612048565b6110dd565b6102446103eb366004611ffc565b611163565b6104036103fe366004612048565b6112b4565b60405161020899989796959493929190612272565b6101fe611ac8565b61022461042e366004612048565b611ad4565b610244610441366004611f36565b611afe565b6101fe610454366004611f36565b6001600160a01b03163190565b61024461046f366004612331565b611b46565b6001602052600090815260409020805461048d9061236d565b80601f01602080910402602001604051908101604052809291908181526020018280546104b99061236d565b80156105065780601f106104db57610100808354040283529160200191610506565b820191906000526020600020905b8154815290600101906020018083116104e957829003601f168201915b505050505081565b610516611cef565b828061055d5760405162461bcd60e51b8152602060048201526011602482015270446174612066656564204944207a65726f60781b60448201526064015b60405180910390fd5b82826104008111156105b15760405162461bcd60e51b815260206004820152601a60248201527f55706461746520706172616d657465727320746f6f206c6f6e670000000000006044820152606401610554565b600085856040516105c39291906123a7565b60405180910390209050806007600089815260200190815260200160002054146106705760008781526007602090815260408083208490558383526009909152902080548691906106139061236d565b90501461063557600081815260096020526040902061063386888361241b565b505b867f0aea1ab3b222f6786a08c16b8f93ba421dfe07d2511afa7250ec3e9163b0b4208787604051610667929190612505565b60405180910390a25b50505050505050565b610681611cef565b80806106c05760405162461bcd60e51b815260206004820152600e60248201526d64415049206e616d65207a65726f60901b6044820152606401610554565b6106cb600583611d4b565b156106fc5760405182907ff9f5c4d39275e5bd5f3c5c8c55bc35400693aeb978d180b545f88580dc4e1e7790600090a25b5050565b606080828067ffffffffffffffff81111561071d5761071d6123b7565b604051908082528060200260200182016040528015610746578160200160208202803683370190505b5092508067ffffffffffffffff811115610762576107626123b7565b60405190808252806020026020018201604052801561079557816020015b60608152602001906001900390816107805790505b50915060005b8181101561085d57308686838181106107b6576107b6612521565b90506020028101906107c89190612537565b6040516107d69291906123a7565b600060405180830381855af49150503d8060008114610811576040519150601f19603f3d011682016040523d82523d6000602084013e610816565b606091505b5085838151811061082957610829612521565b6020026020010185848151811061084257610842612521565b6020908102919091010191909152901515905260010161079b565b50509250929050565b600081603f198101610925576000806108818587018761257e565b90925090506001600160a01b0382166108dc5760405162461bcd60e51b815260206004820152601460248201527f4169726e6f64652061646472657373207a65726f0000000000000000000000006044820152606401610554565b60408051606084901b6bffffffffffffffffffffffff19166020808301919091526034808301859052835180840390910181526054909201909252805191012093505050610c6d565b6101008110610c255761093a601560206125c0565b6109459060206125d7565b610951601560206125c0565b61095c9060206125d7565b6109679060406125d7565b61097191906125d7565b8111156109c05760405162461bcd60e51b815260206004820152601a60248201527f4461746120666565642064657461696c7320746f6f206c6f6e670000000000006044820152606401610554565b6000806109cf858701876126aa565b915091508282826040516020016109e792919061279c565b6040516020818303038152906040525114610a445760405162461bcd60e51b815260206004820152601760248201527f4461746120666565642064657461696c7320747261696c0000000000000000006044820152606401610554565b815181518114610a965760405162461bcd60e51b815260206004820152601960248201527f506172616d65746572206c656e677468206d69736d61746368000000000000006044820152606401610554565b60008167ffffffffffffffff811115610ab157610ab16123b7565b604051908082528060200260200182016040528015610ada578160200160208202803683370190505b50905060005b82811015610c105760006001600160a01b0316858281518110610b0557610b05612521565b60200260200101516001600160a01b031603610b635760405162461bcd60e51b815260206004820152601460248201527f4169726e6f64652061646472657373207a65726f0000000000000000000000006044820152606401610554565b610be1858281518110610b7857610b78612521565b6020026020010151858381518110610b9257610b92612521565b60200260200101516040516bffffffffffffffffffffffff19606084901b1660208201526034810182905260009060540160405160208183030381529060405280519060200120905092915050565b828281518110610bf357610bf3612521565b602090810291909101015280610c08816127f2565b915050610ae0565b50610c1a81611d60565b955050505050610c6d565b60405162461bcd60e51b815260206004820152601b60248201527f4461746120666565642064657461696c7320746f6f2073686f727400000000006044820152606401610554565b60008281526002602052604090208054829190610c899061236d565b905014610ce5576000828152600260205260409020610ca984868361241b565b50817f4fe18adb29a4bae727e770ff666414a639679c10704d95f308a220b9a1b7477c8585604051610cdc929190612505565b60405180910390a25b5092915050565b6002602052600090815260409020805461048d9061236d565b60405162461bcd60e51b815260206004820152601d60248201527f4f776e6572736869702063616e6e6f742062652072656e6f756e6365640000006044820152606401610554565b6000610d596003611d90565b905090565b60008181526002602052604081208054610d779061236d565b15159392505050565b600081815260076020908152604080832054835260099091529020805460609190610daa9061236d565b80601f0160208091040260200160405190810160405280929190818152602001828054610dd69061236d565b8015610e235780601f10610df857610100808354040283529160200191610e23565b820191906000526020600020905b815481529060010190602001808311610e0657829003601f168201915b50505050509050919050565b6000610e39611ac8565b610e41610d4d565b610d5991906125d7565b610e53611cef565b8080610e955760405162461bcd60e51b8152602060048201526011602482015270446174612066656564204944207a65726f60781b6044820152606401610554565b610ea0600383611d4b565b156106fc5760405182907e58637e39931c35fef05bbfd96b3881a0301ada925534f93fbfd5544df032cd90600090a25050565b6060818067ffffffffffffffff811115610eef57610eef6123b7565b604051908082528060200260200182016040528015610f2257816020015b6060815260200190600190039081610f0d5790505b50915060005b8181101561104c57600030868684818110610f4557610f45612521565b9050602002810190610f579190612537565b604051610f659291906123a7565b600060405180830381855af49150503d8060008114610fa0576040519150601f19603f3d011682016040523d82523d6000602084013e610fa5565b606091505b50858481518110610fb857610fb8612521565b6020908102919091010152905080611043576000848381518110610fde57610fde612521565b60200260200101519050600081511115610ffb5780518082602001fd5b60405162461bcd60e51b815260206004820152601b60248201527f4d756c746963616c6c3a204e6f2072657665727420737472696e6700000000006044820152606401610554565b50600101610f28565b505092915050565b61105c611cef565b808061109e5760405162461bcd60e51b8152602060048201526011602482015270446174612066656564204944207a65726f60781b6044820152606401610554565b6110a9600383611d9a565b156106fc5760405182907f0b7c1d36481aee25427040847eb1bb0fe4419a9daf1a3daa7a2ed118a20128bf90600090a25050565b6110e5611cef565b80806111245760405162461bcd60e51b815260206004820152600e60248201526d64415049206e616d65207a65726f60901b6044820152606401610554565b61112f600583611d9a565b156106fc5760405182907f240586c4e7a24b6151c6cbee3daebf773eae2e14f003cf24b204cc164c3066a790600090a25050565b61116b611cef565b82806111aa5760405162461bcd60e51b815260206004820152600e60248201526d64415049206e616d65207a65726f60901b6044820152606401610554565b82826104008111156111fe5760405162461bcd60e51b815260206004820152601a60248201527f55706461746520706172616d657465727320746f6f206c6f6e670000000000006044820152606401610554565b600085856040516112109291906123a7565b60405180910390209050806008600089815260200190815260200160002054146106705760008781526008602090815260408083208490558383526009909152902080548691906112609061236d565b90501461128257600081815260096020526040902061128086888361241b565b505b867f3ebb9b0f7d1ab582553a43d38e03a3533602282ff4fc10f5073d0b67d990dbfd8787604051610667929190612505565b600080606060008060608060608060006112cc610d4d565b9050808b10156112f3576112e160038c611da6565b99506112ec8a610d80565b92506113ea565b6112fd6005611d90565b61130790826125d7565b8b10156113ea5761132361131b828d61280b565b600590611da6565b98507f00000000000000000000000000000000000000000000000000000000000000006001600160a01b031663472c22f18a60405160200161136791815260200190565b604051602081830303815290604052805190602001206040518263ffffffff1660e01b815260040161139b91815260200190565b602060405180830381865afa1580156113b8573d6000803e3d6000fd5b505050506040513d601f19601f820116820180604052508101906113dc919061281e565b99506113e789611ad4565b92505b89156115325760008a815260026020526040902080546114099061236d565b80601f01602080910402602001604051908101604052809291908181526020018280546114359061236d565b80156114825780601f1061145757610100808354040283529160200191611482565b820191906000526020600020905b81548152906001019060200180831161146557829003601f168201915b50506040517f67a7cfb7000000000000000000000000000000000000000000000000000000008152600481018f9052939b50507f00000000000000000000000000000000000000000000000000000000000000006001600160a01b0316926367a7cfb7925060240190506040805180830381865afa158015611508573d6000803e3d6000fd5b505050506040513d601f19601f8201168201806040525081019061152c9190612837565b90975095505b875115611aba5760408851036117b2576040805160018082528183019092529060208083019080368337505060408051600180825281830190925292975090506020808301908036833701905050604080516001808252818301909252919550816020015b6060815260200190600190039081611597579050509150600080898060200190518101906115c59190612880565b915091507f00000000000000000000000000000000000000000000000000000000000000006001600160a01b03166367a7cfb761164484846040516bffffffffffffffffffffffff19606084901b1660208201526034810182905260009060540160405160208183030381529060405280519060200120905092915050565b6040518263ffffffff1660e01b815260040161166291815260200190565b6040805180830381865afa15801561167e573d6000803e3d6000fd5b505050506040513d601f19601f820116820180604052508101906116a29190612837565b886000815181106116b5576116b5612521565b60200260200101886000815181106116cf576116cf612521565b63ffffffff909316602093840291909101830152601b9290920b9091526001600160a01b0383166000908152600190915260409020805461170f9061236d565b80601f016020809104026020016040519081016040528092919081815260200182805461173b9061236d565b80156117885780601f1061175d57610100808354040283529160200191611788565b820191906000526020600020905b81548152906001019060200180831161176b57829003601f168201915b5050505050846000815181106117a0576117a0612521565b60200260200101819052505050611aba565b600080898060200190518101906117c99190612909565b815191935091508067ffffffffffffffff8111156117e9576117e96123b7565b604051908082528060200260200182016040528015611812578160200160208202803683370190505b5097508067ffffffffffffffff81111561182e5761182e6123b7565b604051908082528060200260200182016040528015611857578160200160208202803683370190505b5096508067ffffffffffffffff811115611873576118736123b7565b6040519080825280602002602001820160405280156118a657816020015b60608152602001906001900390816118915790505b50945060005b81811015611ab5577f00000000000000000000000000000000000000000000000000000000000000006001600160a01b03166367a7cfb76119128684815181106118f8576118f8612521565b6020026020010151868581518110610b9257610b92612521565b6040518263ffffffff1660e01b815260040161193091815260200190565b6040805180830381865afa15801561194c573d6000803e3d6000fd5b505050506040513d601f19601f820116820180604052508101906119709190612837565b8a838151811061198257611982612521565b602002602001018a848151811061199b5761199b612521565b602002602001018263ffffffff1663ffffffff1681525082601b0b601b0b8152505050600160008583815181106119d4576119d4612521565b60200260200101516001600160a01b03166001600160a01b031681526020019081526020016000208054611a079061236d565b80601f0160208091040260200160405190810160405280929190818152602001828054611a339061236d565b8015611a805780601f10611a5557610100808354040283529160200191611a80565b820191906000526020600020905b815481529060010190602001808311611a6357829003601f168201915b5050505050868281518110611a9757611a97612521565b60200260200101819052508080611aad906127f2565b9150506118ac565b505050505b509193959799909294969850565b6000610d596005611d90565b600081815260086020908152604080832054835260099091529020805460609190610daa9061236d565b60405162461bcd60e51b815260206004820152601f60248201527f4f776e6572736869702063616e6e6f74206265207472616e73666572726564006044820152606401610554565b611b4e611cef565b6001600160a01b038316611ba45760405162461bcd60e51b815260206004820152601460248201527f4169726e6f64652061646472657373207a65726f0000000000000000000000006044820152606401610554565b6101008282604051602001611bba9291906123a7565b604051602081830303815290604052511115611c185760405162461bcd60e51b815260206004820152601760248201527f5369676e6564204150492055524c20746f6f206c6f6e670000000000000000006044820152606401610554565b8181604051602001611c2b9291906123a7565b60408051601f1981840301815282825280516020918201206001600160a01b038716600090815260018352929092209192611c679291016129c4565b6040516020818303038152906040528051906020012014611cea576001600160a01b0383166000908152600160205260409020611ca582848361241b565b50826001600160a01b03167f1de1502db80e21e5a66f15b7adabc8c7c32f1fa1a0b7c51dbe01f4e50fe65c498383604051611ce1929190612505565b60405180910390a25b505050565b6000546001600160a01b03163314611d495760405162461bcd60e51b815260206004820181905260248201527f4f776e61626c653a2063616c6c6572206973206e6f7420746865206f776e65726044820152606401610554565b565b6000611d578383611db2565b90505b92915050565b600081604051602001611d739190612a3a565b604051602081830303815290604052805190602001209050919050565b6000611d5a825490565b6000611d578383611ea5565b6000611d578383611ef4565b60008181526001830160205260408120548015611e9b576000611dd660018361280b565b8554909150600090611dea9060019061280b565b9050818114611e4f576000866000018281548110611e0a57611e0a612521565b9060005260206000200154905080876000018481548110611e2d57611e2d612521565b6000918252602080832090910192909255918252600188019052604090208390555b8554869080611e6057611e60612a4d565b600190038181906000526020600020016000905590558560010160008681526020019081526020016000206000905560019350505050611d5a565b6000915050611d5a565b6000818152600183016020526040812054611eec57508154600181810184556000848152602080822090930184905584548482528286019093526040902091909155611d5a565b506000611d5a565b6000826000018281548110611f0b57611f0b612521565b9060005260206000200154905092915050565b6001600160a01b0381168114611f3357600080fd5b50565b600060208284031215611f4857600080fd5b8135611f5381611f1e565b9392505050565b6000815180845260005b81811015611f8057602081850181015186830182015201611f64565b506000602082860101526020601f19601f83011685010191505092915050565b602081526000611d576020830184611f5a565b60008083601f840112611fc557600080fd5b50813567ffffffffffffffff811115611fdd57600080fd5b602083019150836020828501011115611ff557600080fd5b9250929050565b60008060006040848603121561201157600080fd5b83359250602084013567ffffffffffffffff81111561202f57600080fd5b61203b86828701611fb3565b9497909650939450505050565b60006020828403121561205a57600080fd5b5035919050565b6000806020838503121561207457600080fd5b823567ffffffffffffffff8082111561208c57600080fd5b818501915085601f8301126120a057600080fd5b8135818111156120af57600080fd5b8660208260051b85010111156120c457600080fd5b60209290920196919550909350505050565b600082825180855260208086019550808260051b84010181860160005b8481101561212157601f1986840301895261210f838351611f5a565b988401989250908301906001016120f3565b5090979650505050505050565b604080825283519082018190526000906020906060840190828701845b8281101561216957815115158452928401929084019060010161214b565b5050508381038285015261217d81866120d6565b9695505050505050565b6000806020838503121561219a57600080fd5b823567ffffffffffffffff8111156121b157600080fd5b6121bd85828601611fb3565b90969095509350505050565b602081526000611d5760208301846120d6565b600081518084526020808501945080840160005b8381101561221257815163ffffffff16875295820195908201906001016121f0565b509495945050505050565b600081518084526020808501808196508360051b8101915082860160005b85811015612265578284038952612253848351611f5a565b9885019893509084019060010161223b565b5091979650505050505050565b60006101208b835260208b818501528160408501526122938285018c611f5a565b601b8b810b606087015263ffffffff8b16608087015285820360a08701528951808352838b019450909183019060005b818110156122e1578551840b835294840194918401916001016122c3565b505085810360c08701526122f5818a6121dc565b935050505082810360e084015261230c8186611f5a565b9050828103610100840152612321818561221d565b9c9b505050505050505050505050565b60008060006040848603121561234657600080fd5b833561235181611f1e565b9250602084013567ffffffffffffffff81111561202f57600080fd5b600181811c9082168061238157607f821691505b6020821081036123a157634e487b7160e01b600052602260045260246000fd5b50919050565b8183823760009101908152919050565b634e487b7160e01b600052604160045260246000fd5b601f821115611cea57600081815260208120601f850160051c810160208610156123f45750805b601f850160051c820191505b8181101561241357828155600101612400565b505050505050565b67ffffffffffffffff831115612433576124336123b7565b61244783612441835461236d565b836123cd565b6000601f84116001811461247b57600085156124635750838201355b600019600387901b1c1916600186901b1783556124d5565b600083815260209020601f19861690835b828110156124ac578685013582556020948501946001909201910161248c565b50868210156124c95760001960f88860031b161c19848701351681555b505060018560011b0183555b5050505050565b81835281816020850137506000828201602090810191909152601f909101601f19169091010190565b6020815260006125196020830184866124dc565b949350505050565b634e487b7160e01b600052603260045260246000fd5b6000808335601e1984360301811261254e57600080fd5b83018035915067ffffffffffffffff82111561256957600080fd5b602001915036819003821315611ff557600080fd5b6000806040838503121561259157600080fd5b823561259c81611f1e565b946020939093013593505050565b634e487b7160e01b600052601160045260246000fd5b8082028115828204841417611d5a57611d5a6125aa565b80820180821115611d5a57611d5a6125aa565b604051601f8201601f1916810167ffffffffffffffff81118282101715612613576126136123b7565b604052919050565b600067ffffffffffffffff821115612635576126356123b7565b5060051b60200190565b600082601f83011261265057600080fd5b813560206126656126608361261b565b6125ea565b82815260059290921b8401810191818101908684111561268457600080fd5b8286015b8481101561269f5780358352918301918301612688565b509695505050505050565b600080604083850312156126bd57600080fd5b823567ffffffffffffffff808211156126d557600080fd5b818501915085601f8301126126e957600080fd5b813560206126f96126608361261b565b82815260059290921b8401810191818101908984111561271857600080fd5b948201945b8386101561273f57853561273081611f1e565b8252948201949082019061271d565b9650508601359250508082111561275557600080fd5b506127628582860161263f565b9150509250929050565b600081518084526020808501945080840160005b8381101561221257815187529582019590820190600101612780565b604080825283519082018190526000906020906060840190828701845b828110156127de5781516001600160a01b0316845292840192908401906001016127b9565b5050508381038285015261217d818661276c565b600060018201612804576128046125aa565b5060010190565b81810381811115611d5a57611d5a6125aa565b60006020828403121561283057600080fd5b5051919050565b6000806040838503121561284a57600080fd5b825180601b0b811461285b57600080fd5b602084015190925063ffffffff8116811461287557600080fd5b809150509250929050565b6000806040838503121561289357600080fd5b825161289e81611f1e565b6020939093015192949293505050565b600082601f8301126128bf57600080fd5b815160206128cf6126608361261b565b82815260059290921b840181019181810190868411156128ee57600080fd5b8286015b8481101561269f57805183529183019183016128f2565b6000806040838503121561291c57600080fd5b825167ffffffffffffffff8082111561293457600080fd5b818501915085601f83011261294857600080fd5b815160206129586126608361261b565b82815260059290921b8401810191818101908984111561297757600080fd5b948201945b8386101561299e57855161298f81611f1e565b8252948201949082019061297c565b918801519196509093505050808211156129b757600080fd5b50612762858286016128ae565b60008083546129d28161236d565b600182811680156129ea57600181146129ff57612a2e565b60ff1984168752821515830287019450612a2e565b8760005260208060002060005b85811015612a255781548a820152908401908201612a0c565b50505082870194505b50929695505050505050565b602081526000611d57602083018461276c565b634e487b7160e01b600052603160045260246000fdfea26469706673582212202d2355529b21fa1cea229167772a21d13bd67bbc950d4d21698af126d4a8f18364736f6c63430008110033",
  "devdoc": {
    "details": "The user is strongly recommended to use the API3 Market frontend while interacting with this contract, mostly because doing so successfully requires some amount of knowledge of other API3 contracts. Specifically, Api3Market requires the data feed for which the subscription is being purchased to be \"readied\", the correct Merkle proofs to be provided, and enough payment to be made. The API3 Market frontend will fetch the appropriate Merkle proofs, create a multicall transaction that will ready the data feed before making the call to buy the subscription, and compute the amount to be sent that will barely allow the subscription to be purchased. For most users, building such a transaction themselves would be too impractical.",
    "kind": "dev",
    "methods": {
      "buySubscription(bytes32,bytes32,address,bytes,bytes,uint256,uint256,bytes)": {
        "details": "The data feed that the dAPI name will be set to after this function is called must be readied (see `validateDataFeedReadiness()`) before calling this function. Enough funds must be sent to put the sponsor wallet balance over its expected amount after the subscription is bought. Since sponsor wallets send data feed update transactions, it is not possible to estimate what their balance will be at the time sent transactions are confirmed. To avoid transactions being reverted as a result of this, consider sending some extra.",
        "params": {
          "dapiManagementMerkleData": "ABI-encoded dAPI management Merkle root and proof",
          "dapiName": "dAPI name",
          "dapiPricingMerkleData": "ABI-encoded dAPI pricing Merkle root and proof",
          "dataFeedId": "Data feed ID",
          "duration": "Subscription duration",
          "price": "Subscription price",
          "sponsorWallet": "Sponsor wallet address",
          "updateParameters": "Update parameters"
        },
        "returns": {
          "subscriptionId": "Subscription ID"
        }
      },
      "computeExpectedSponsorWalletBalance(bytes32)": {
        "details": "API3 estimates the transaction fee cost of subscriptions, and prices them accordingly. The subscription fees paid for a dAPI are sent to the respective sponsor wallet, which will send the update transactions. In the case that a subscription is overpriced, the extra funds are automatically rolled over as a discount to the next subscription bought for the same dAPI. In the case that a subscription is underpriced, there is a risk of the sponsor wallet running out of funds, resulting in the subscription specs to not be met. To avoid this, API3 should poll this function for all active dAPI names, check the respective sponsor wallet balances, and top up the sponsor wallets as necessary. The conditions that result in the underpricing will most likely require an updated dAPI pricing Merkle root to be published.",
        "params": {
          "dapiName": "dAPI name"
        },
        "returns": {
          "expectedSponsorWalletBalance": "Expected sponsor wallet balance"
        }
      },
      "computeExpectedSponsorWalletBalanceAfterSubscriptionIsAdded(bytes32,bytes,uint256,uint256)": {
        "details": "This function is intended to be used by the API3 Market frontend to calculate how much the user should pay to purchase a specific subscription. As mentioned in the `buySubscription()` docstring, the user should aim for the sponsor wallet balance to be slightly more than the required amount in case it sends a transaction in the meantime, whose gas cost may decrease the sponsor wallet balance unexpectedly. Unit prices of the queued subscriptions are recorded on a daily basis and the expected balance is computed from these, which introduces a rounding error in the order of Weis. This also applies in practice (in that one can buy a subscription whose price is 1 ETH at 0.999... ETH). This behavior is accepted due to being trivial in effect.",
        "params": {
          "dapiName": "dAPI name",
          "duration": "Subscription duration",
          "price": "Subscription price",
          "updateParameters": "Update parameters"
        },
        "returns": {
          "expectedSponsorWalletBalance": "Expected sponsor wallet balance"
        }
      },
      "constructor": {
        "details": "Api3Market deploys its own AirseekerRegistry deterministically. This implies that Api3Market-specific Airseekers should be operated by pointing at this contract.",
        "params": {
          "owner_": "Owner address",
          "proxyFactory_": "ProxyFactory contract address"
        }
      },
      "containsBytecode(address)": {
        "details": "An account not containing any bytecode does not indicate that it is an EOA or it will not contain any bytecode in the future. Contract construction and `SELFDESTRUCT` updates the bytecode at the end of the transaction.",
        "returns": {
          "_0": "If the account contains bytecode"
        }
      },
      "deployDapiProxy(bytes32,bytes)": {
        "details": "It is recommended for the users to read data feeds through proxies deployed by ProxyFactory, rather than calling Api3ServerV1 directly. Even though proxy deployment is not a condition for purchasing subscriptions, the interface is implemented here to allow the user to purchase a dAPI subscription and deploy the respective proxy in the same transaction with a multicall.",
        "params": {
          "dapiName": "dAPI name",
          "metadata": "Metadata associated with the proxy"
        },
        "returns": {
          "proxyAddress": "Proxy address"
        }
      },
      "deployDapiProxyWithOev(bytes32,address,bytes)": {
        "params": {
          "dapiName": "dAPI name",
          "metadata": "Metadata associated with the proxy",
          "oevBeneficiary": "OEV beneficiary"
        },
        "returns": {
          "proxyAddress": "Proxy address"
        }
      },
      "getBalance(address)": {
        "params": {
          "account": "Account address"
        },
        "returns": {
          "_0": "Account balance"
        }
      },
      "getBlockBasefee()": {
        "returns": {
          "_0": "Current block basefee"
        }
      },
      "getBlockNumber()": {
        "returns": {
          "_0": "Current block number"
        }
      },
      "getBlockTimestamp()": {
        "returns": {
          "_0": "Current block timestamp"
        }
      },
      "getChainId()": {
        "returns": {
          "_0": "Chain ID"
        }
      },
      "getDapiData(bytes32)": {
        "details": "This function is intended to be used by the API3 Market frontend to get all data related to a specific dAPI. It returns the entire subscription queue, including the items whose end timestamps are in the past.",
        "params": {
          "dapiName": "dAPI name"
        },
        "returns": {
          "beaconTimestamps": "Beacon timestamps read from Api3ServerV1",
          "beaconValues": "Beacon values read from Api3ServerV1",
          "dailyPrices": "Daily prices of the subscriptions in the queue",
          "dapiTimestamp": "dAPI timestamp read from Api3ServerV1",
          "dapiValue": "dAPI value read from Api3ServerV1",
          "dataFeedDetails": "Data feed details",
          "endTimestamps": "End timestamps of the subscriptions in the queue",
          "updateParameters": "Update parameters of the subscriptions in the queue"
        }
      },
      "getDataFeedData(bytes32)": {
        "details": "This function is intended to be used by the API3 Market frontend to determine what needs to be done to ready the data feed to purchase the respective subscription.",
        "params": {
          "dataFeedId": "Data feed ID"
        },
        "returns": {
          "beaconTimestamps": "Beacon timestamps read from Api3ServerV1",
          "beaconValues": "Beacon values read from Api3ServerV1",
          "dataFeedDetails": "Data feed details",
          "dataFeedTimestamp": "Data feed timestamp read from Api3ServerV1",
          "dataFeedValue": "Data feed value read from Api3ServerV1"
        }
      },
      "getHashValue(bytes32)": {
        "params": {
          "hashType": "Hash type"
        },
        "returns": {
          "hashValue": "Hash value"
        }
      },
      "multicall(bytes[])": {
        "params": {
          "data": "Array of calldata of batched calls"
        },
        "returns": {
          "returndata": "Array of returndata of batched calls"
        }
      },
      "owner()": {
        "returns": {
          "_0": "Owner address"
        }
      },
      "registerDataFeed(bytes)": {
        "params": {
          "dataFeedDetails": "Data feed details"
        },
        "returns": {
          "dataFeedId": "Data feed ID"
        }
      },
      "registerHash(bytes32,bytes32,uint256,bytes[])": {
        "params": {
          "hashTimestamp": "Hash timestamp",
          "hashType": "Hash type",
          "hashValue": "Hash value",
          "signatures": "Signatures"
        }
      },
      "setHash(bytes32,bytes32)": {
        "params": {
          "hashType": "Hash type",
          "hashValue": "Hash value"
        }
      },
      "setSigners(bytes32,address[])": {
        "params": {
          "hashType": "Hash type",
          "signers": "Signer addresses"
        }
      },
      "signatureDelegationHashType()": {
        "returns": {
          "_0": "Signature delegation hash type"
        }
      },
      "subscriptionIdToUpdateParameters(bytes32)": {
        "params": {
          "subscriptionId": "Subscription ID"
        },
        "returns": {
          "updateParameters": "Update parameters"
        }
      },
      "tryMulticall(bytes[])": {
        "params": {
          "data": "Array of calldata of batched calls"
        },
        "returns": {
          "returndata": "Array of returndata of batched calls",
          "successes": "Array of success conditions of batched calls"
        }
      },
      "updateBeaconSetWithBeacons(bytes32[])": {
        "params": {
          "beaconIds": "Beacon IDs"
        },
        "returns": {
          "beaconSetId": "Updated Beacon set ID"
        }
      },
      "updateBeaconWithSignedData(address,bytes32,uint256,bytes,bytes)": {
        "details": "The user is intended to make a multicall transaction through the API3 Market frontend to satisfy the required conditions to be able to buy a subscription and buy the subscription in a single transaction. The functions to which external calls must be made to to satisfy said conditions (such as this one) are added to this contract so that they can be multi-called by the user.",
        "params": {
          "airnode": "Airnode address",
          "data": "Update data (an `int256` encoded in contract ABI)",
          "signature": "Template ID, timestamp and the update data signed by the Airnode",
          "templateId": "Template ID",
          "timestamp": "Signature timestamp"
        },
        "returns": {
          "beaconId": "Updated Beacon ID"
        }
      },
      "updateCurrentSubscriptionId(bytes32)": {
        "details": "The fact that there is a current subscription that has ended would mean that API3 is providing a service that was not paid for. Therefore, API3 should poll this function for all active dAPI names and call it whenever it is not going to revert to downgrade the specs.",
        "params": {
          "dapiName": "dAPI name"
        }
      },
      "updateDapiName(bytes32,bytes32,address,bytes)": {
        "details": "Buying a dAPI subscription always updates the dAPI name if necessary. However, API3 may also publish new Merkle roots between subscription purchases, in which case API3 should call this function to bring the chain state up to date. Therefore, API3 should poll this function for all active dAPI names and call it whenever it will not revert. Similar to `buySubscription()`, this function requires the data feed that the dAPI will be pointed to to be readied. This function is allowed to be called even when the respective dAPI is not active, which means that a dAPI name being set does not imply that the respective data feed is in service. Users should only use dAPIs for which there is an active subscription with the update parameters that satisfy their needs.",
        "params": {
          "dapiManagementMerkleData": "ABI-encoded dAPI management Merkle root and proof",
          "dapiName": "dAPI name",
          "dataFeedId": "Data feed ID",
          "sponsorWallet": "Sponsor wallet address"
        }
      },
      "updateSignedApiUrl(address,string,bytes)": {
        "details": "Unlike the dAPI management and pricing Merkle leaves, the signed API URL Merkle leaves are not registered by the users as a part of subscription purchase transactions. API3 should poll this function for all Airnodes that are used in active dAPIs and call it whenever it will not revert.",
        "params": {
          "airnode": "Airnode address",
          "signedApiUrl": "Signed API URL",
          "signedApiUrlMerkleData": "ABI-encoded signed API URL Merkle root and proof"
        }
      }
    },
    "stateVariables": {
      "DAPI_MANAGEMENT_MERKLE_ROOT_HASH_TYPE": {
        "details": "\"Hash type\" is what HashRegistry uses to address hashes used for different purposes"
      },
      "MAXIMUM_SUBSCRIPTION_QUEUE_LENGTH": {
        "details": "Some functionality in this contract requires to iterate through the entire subscription queue for a dAPI, and the queue length is limited to prevent this process from being bloated. Considering that each item in the subscription queue has unique update parameters, the length of the subscription queue is also limited by the number of unique update parameters offered in the dAPI pricing Merkle tree. For reference, at the time this contract is implemented, the API3 Market offers 4 update parameter options, and this number is not expected to be increased (i.e., we do not expect this queue length limit to be hit in practice)."
      }
    },
    "title": "The contract that API3 users interact with using the API3 Market frontend to purchase data feed subscriptions",
    "version": 1
  },
  "userdoc": {
    "kind": "user",
    "methods": {
      "DAPI_MANAGEMENT_MERKLE_ROOT_HASH_TYPE()": {
        "notice": "dAPI management Merkle root hash type"
      },
      "DAPI_PRICING_MERKLE_ROOT_HASH_TYPE()": {
        "notice": "dAPI pricing Merkle root hash type"
      },
      "MAXIMUM_DAPI_UPDATE_AGE()": {
        "notice": "Maximum dAPI update age. This contract cannot be used to set a dAPI name to a data feed that has not been updated in the last `MAXIMUM_DAPI_UPDATE_AGE`."
      },
      "MAXIMUM_SUBSCRIPTION_QUEUE_LENGTH()": {
        "notice": "Maximum subscription queue length for a dAPI"
      },
      "SIGNED_API_URL_MERKLE_ROOT_HASH_TYPE()": {
        "notice": "Signed API URL Merkle root hash type"
      },
      "airseekerRegistry()": {
        "notice": "AirseekerRegistry contract address"
      },
      "api3ServerV1()": {
        "notice": "Api3ServerV1 contract address"
      },
      "buySubscription(bytes32,bytes32,address,bytes,bytes,uint256,uint256,bytes)": {
        "notice": "Buys subscription and updates the current subscription ID if necessary. The user is recommended to interact with this contract only over the API3 Market frontend due to its complexity."
      },
      "computeExpectedSponsorWalletBalance(bytes32)": {
        "notice": "Computes the expected sponsor wallet balance based on the current subscription queue"
      },
      "computeExpectedSponsorWalletBalanceAfterSubscriptionIsAdded(bytes32,bytes,uint256,uint256)": {
        "notice": "Computes the expected sponsor wallet balance after the respective subscription is added to the queue"
      },
      "containsBytecode(address)": {
        "notice": "Returns if the account contains bytecode"
      },
      "dapiNameToCurrentSubscriptionId(bytes32)": {
        "notice": "dAPI name to current subscription ID, which denotes the start of the subscription queue for the dAPI"
      },
      "deployDapiProxy(bytes32,bytes)": {
        "notice": "Calls ProxyFactory to deterministically deploy the dAPI proxy"
      },
      "deployDapiProxyWithOev(bytes32,address,bytes)": {
        "notice": "Calls ProxyFactory to deterministically deploy the dAPI proxy with OEV support"
      },
      "getBalance(address)": {
        "notice": "Returns the account balance"
      },
      "getBlockBasefee()": {
        "notice": "Returns the current block basefee"
      },
      "getBlockNumber()": {
        "notice": "Returns the current block number"
      },
      "getBlockTimestamp()": {
        "notice": "Returns the current block timestamp"
      },
      "getChainId()": {
        "notice": "Returns the chain ID"
      },
      "getDapiData(bytes32)": {
        "notice": "Gets all data about the dAPI that is available"
      },
      "getDataFeedData(bytes32)": {
        "notice": "Gets all data about the data feed that is available"
      },
      "getHashValue(bytes32)": {
        "notice": "Returns get the hash value for the type"
      },
      "hashTypeToSignersHash(bytes32)": {
        "notice": "Hash type to the hash of the array of signer addresses"
      },
      "hashes(bytes32)": {
        "notice": "Hash type to the last registered value and timestamp"
      },
      "multicall(bytes[])": {
        "notice": "Batches calls to the inheriting contract and reverts as soon as one of the batched calls reverts"
      },
      "owner()": {
        "notice": "Returns the owner address"
      },
      "proxyFactory()": {
        "notice": "ProxyFactory contract address"
      },
      "registerDataFeed(bytes)": {
        "notice": "Calls AirseekerRegistry to register the data feed"
      },
      "registerHash(bytes32,bytes32,uint256,bytes[])": {
        "notice": "Registers the hash value and timestamp for the respective type. The hash value cannot be zero. The timestamp must not exceed the block timestamp, yet be larger than the timestamp of the previous registration. The signers must have been set for the hash type, and the signatures must be sorted for the respective signer addresses to be in ascending order. Each signature can either be a standalone signature by the respective signer, or a signature by the signer's delegate, encoded along with the delegation end timestamp and delegation signature."
      },
      "renounceOwnership()": {
        "notice": "Overriden to be disabled"
      },
      "setHash(bytes32,bytes32)": {
        "notice": "Called by the owner to set a hash. Overrides previous registrations and is allowed to set the value to `bytes32(0)`."
      },
      "setSigners(bytes32,address[])": {
        "notice": "Called by the contract owner to set signers for a hash type. The signer addresses must be in ascending order."
      },
      "signatureDelegationHashType()": {
        "notice": "Returns the signature delegation hash type used in delegation signatures"
      },
      "subscriptionIdToUpdateParameters(bytes32)": {
        "notice": "Subscription ID to update parameters"
      },
      "subscriptions(bytes32)": {
        "notice": "Subscriptions indexed by their IDs"
      },
      "transferOwnership(address)": {
        "notice": "Overriden to be disabled"
      },
      "tryMulticall(bytes[])": {
        "notice": "Batches calls to the inheriting contract but does not revert if any of the batched calls reverts"
      },
      "updateBeaconSetWithBeacons(bytes32[])": {
        "notice": "Calls Api3ServerV1 to update the Beacon set using the current values of its Beacons"
      },
      "updateBeaconWithSignedData(address,bytes32,uint256,bytes,bytes)": {
        "notice": "Calls Api3ServerV1 to update the Beacon using data signed by the Airnode"
      },
      "updateCurrentSubscriptionId(bytes32)": {
        "notice": "If the current subscription has ended, updates it with the one that will end next"
      },
      "updateDapiName(bytes32,bytes32,address,bytes)": {
        "notice": "Updates the dAPI name to match the respective Merkle leaf"
      },
      "updateSignedApiUrl(address,string,bytes)": {
        "notice": "Updates the signed API URL of the Airnode to match the respective Merkle leaf"
      }
    },
    "notice": "API3 aims to streamline and protocolize its integration processes through the API3 Market (https://market.api3.org), which is a data feed subscription marketplace. The Api3Market contract is the on-chain portion of this system. Api3Market enables API3 to predetermine the decisions related to its data feed services (such as the curation of data feed sources or subscription prices) and publish them on-chain. This streamlines the intergation flow, as it allows the users to initiate subscriptions immediately, without requiring any two-way communication with API3. Furthermore, this removes the need for API3 to have agents operating in the meatspace gathering order details, quoting prices and reviewing payments, and allows all such operations to be cryptographically secured with a multi-party scheme in an end-to-end manner.",
    "version": 1
  },
  "storageLayout": {
    "storage": [
      {
        "astId": 13462,
        "contract": "contracts/api3-server-v1/Api3Market.sol:Api3Market",
        "label": "_owner",
        "offset": 0,
        "slot": "0",
        "type": "t_address"
      },
      {
        "astId": 319,
        "contract": "contracts/api3-server-v1/Api3Market.sol:Api3Market",
        "label": "hashes",
        "offset": 0,
        "slot": "1",
        "type": "t_mapping(t_bytes32,t_struct(Hash)312_storage)"
      },
      {
        "astId": 325,
        "contract": "contracts/api3-server-v1/Api3Market.sol:Api3Market",
        "label": "hashTypeToSignersHash",
        "offset": 0,
        "slot": "2",
        "type": "t_mapping(t_bytes32,t_bytes32)"
      },
      {
        "astId": 2264,
        "contract": "contracts/api3-server-v1/Api3Market.sol:Api3Market",
        "label": "subscriptions",
        "offset": 0,
        "slot": "3",
        "type": "t_mapping(t_bytes32,t_struct(Subscription)2205_storage)"
      },
      {
        "astId": 2270,
        "contract": "contracts/api3-server-v1/Api3Market.sol:Api3Market",
        "label": "dapiNameToCurrentSubscriptionId",
        "offset": 0,
        "slot": "4",
        "type": "t_mapping(t_bytes32,t_bytes32)"
      },
      {
        "astId": 2274,
        "contract": "contracts/api3-server-v1/Api3Market.sol:Api3Market",
        "label": "updateParametersHashToValue",
        "offset": 0,
        "slot": "5",
        "type": "t_mapping(t_bytes32,t_bytes_storage)"
      }
    ],
    "types": {
      "t_address": {
        "encoding": "inplace",
        "label": "address",
        "numberOfBytes": "20"
      },
      "t_bytes32": {
        "encoding": "inplace",
        "label": "bytes32",
        "numberOfBytes": "32"
      },
      "t_bytes_storage": {
        "encoding": "bytes",
        "label": "bytes",
        "numberOfBytes": "32"
      },
      "t_mapping(t_bytes32,t_bytes32)": {
        "encoding": "mapping",
        "key": "t_bytes32",
        "label": "mapping(bytes32 => bytes32)",
        "numberOfBytes": "32",
        "value": "t_bytes32"
      },
      "t_mapping(t_bytes32,t_bytes_storage)": {
        "encoding": "mapping",
        "key": "t_bytes32",
        "label": "mapping(bytes32 => bytes)",
        "numberOfBytes": "32",
        "value": "t_bytes_storage"
      },
      "t_mapping(t_bytes32,t_struct(Hash)312_storage)": {
        "encoding": "mapping",
        "key": "t_bytes32",
        "label": "mapping(bytes32 => struct HashRegistry.Hash)",
        "numberOfBytes": "32",
        "value": "t_struct(Hash)312_storage"
      },
      "t_mapping(t_bytes32,t_struct(Subscription)2205_storage)": {
        "encoding": "mapping",
        "key": "t_bytes32",
        "label": "mapping(bytes32 => struct Api3Market.Subscription)",
        "numberOfBytes": "32",
        "value": "t_struct(Subscription)2205_storage"
      },
      "t_struct(Hash)312_storage": {
        "encoding": "inplace",
        "label": "struct HashRegistry.Hash",
        "members": [
          {
            "astId": 309,
            "contract": "contracts/api3-server-v1/Api3Market.sol:Api3Market",
            "label": "value",
            "offset": 0,
            "slot": "0",
            "type": "t_bytes32"
          },
          {
            "astId": 311,
            "contract": "contracts/api3-server-v1/Api3Market.sol:Api3Market",
            "label": "timestamp",
            "offset": 0,
            "slot": "1",
            "type": "t_uint256"
          }
        ],
        "numberOfBytes": "64"
      },
      "t_struct(Subscription)2205_storage": {
        "encoding": "inplace",
        "label": "struct Api3Market.Subscription",
        "members": [
          {
            "astId": 2198,
            "contract": "contracts/api3-server-v1/Api3Market.sol:Api3Market",
            "label": "updateParametersHash",
            "offset": 0,
            "slot": "0",
            "type": "t_bytes32"
          },
          {
            "astId": 2200,
            "contract": "contracts/api3-server-v1/Api3Market.sol:Api3Market",
            "label": "endTimestamp",
            "offset": 0,
            "slot": "1",
            "type": "t_uint32"
          },
          {
            "astId": 2202,
            "contract": "contracts/api3-server-v1/Api3Market.sol:Api3Market",
            "label": "dailyPrice",
            "offset": 4,
            "slot": "1",
            "type": "t_uint224"
          },
          {
            "astId": 2204,
            "contract": "contracts/api3-server-v1/Api3Market.sol:Api3Market",
            "label": "nextSubscriptionId",
            "offset": 0,
            "slot": "2",
            "type": "t_bytes32"
          }
        ],
        "numberOfBytes": "96"
      },
      "t_uint224": {
        "encoding": "inplace",
        "label": "uint224",
        "numberOfBytes": "28"
      },
      "t_uint256": {
        "encoding": "inplace",
        "label": "uint256",
        "numberOfBytes": "32"
      },
      "t_uint32": {
        "encoding": "inplace",
        "label": "uint32",
        "numberOfBytes": "4"
      }
    }
  }
}