{
  "address": "0x2b4401E59780e44d3b1Fd2D41FCb3047c830F286",
  "abi": [
    {
      "inputs": [
        {
          "internalType": "address",
          "name": "owner_",
          "type": "address"
        },
        {
          "internalType": "address",
          "name": "api3ReaderProxyV1Factory_",
          "type": "address"
        },
        {
          "internalType": "uint256",
          "name": "maximumSubscriptionQueueLength_",
          "type": "uint256"
        }
      ],
      "stateMutability": "nonpayable",
      "type": "constructor"
    },
    {
      "inputs": [],
      "name": "ECDSAInvalidSignature",
      "type": "error"
    },
    {
      "inputs": [
        {
          "internalType": "uint256",
          "name": "length",
          "type": "uint256"
        }
      ],
      "name": "ECDSAInvalidSignatureLength",
      "type": "error"
    },
    {
      "inputs": [
        {
          "internalType": "bytes32",
          "name": "s",
          "type": "bytes32"
        }
      ],
      "name": "ECDSAInvalidSignatureS",
      "type": "error"
    },
    {
      "inputs": [
        {
          "internalType": "address",
          "name": "owner",
          "type": "address"
        }
      ],
      "name": "OwnableInvalidOwner",
      "type": "error"
    },
    {
      "inputs": [
        {
          "internalType": "address",
          "name": "account",
          "type": "address"
        }
      ],
      "name": "OwnableUnauthorizedAccount",
      "type": "error"
    },
    {
      "inputs": [
        {
          "internalType": "uint8",
          "name": "bits",
          "type": "uint8"
        },
        {
          "internalType": "uint256",
          "name": "value",
          "type": "uint256"
        }
      ],
      "name": "SafeCastOverflowedUintDowncast",
      "type": "error"
    },
    {
      "anonymous": false,
      "inputs": [
        {
          "indexed": true,
          "internalType": "bytes32",
          "name": "dapiName",
          "type": "bytes32"
        },
        {
          "indexed": true,
          "internalType": "bytes32",
          "name": "subscriptionId",
          "type": "bytes32"
        },
        {
          "indexed": false,
          "internalType": "bytes32",
          "name": "dataFeedId",
          "type": "bytes32"
        },
        {
          "indexed": false,
          "internalType": "address",
          "name": "sponsorWallet",
          "type": "address"
        },
        {
          "indexed": false,
          "internalType": "bytes",
          "name": "updateParameters",
          "type": "bytes"
        },
        {
          "indexed": false,
          "internalType": "uint256",
          "name": "duration",
          "type": "uint256"
        },
        {
          "indexed": false,
          "internalType": "uint256",
          "name": "price",
          "type": "uint256"
        },
        {
          "indexed": false,
          "internalType": "uint256",
          "name": "paymentAmount",
          "type": "uint256"
        }
      ],
      "name": "BoughtSubscription",
      "type": "event"
    },
    {
      "anonymous": false,
      "inputs": [
        {
          "indexed": true,
          "internalType": "bytes32",
          "name": "dapiName",
          "type": "bytes32"
        }
      ],
      "name": "CanceledSubscriptions",
      "type": "event"
    },
    {
      "anonymous": false,
      "inputs": [
        {
          "indexed": true,
          "internalType": "address",
          "name": "previousOwner",
          "type": "address"
        },
        {
          "indexed": true,
          "internalType": "address",
          "name": "newOwner",
          "type": "address"
        }
      ],
      "name": "OwnershipTransferred",
      "type": "event"
    },
    {
      "anonymous": false,
      "inputs": [
        {
          "indexed": true,
          "internalType": "bytes32",
          "name": "hashType",
          "type": "bytes32"
        },
        {
          "indexed": false,
          "internalType": "bytes32",
          "name": "hashValue",
          "type": "bytes32"
        },
        {
          "indexed": false,
          "internalType": "uint256",
          "name": "hashTimestamp",
          "type": "uint256"
        }
      ],
      "name": "RegisteredHash",
      "type": "event"
    },
    {
      "anonymous": false,
      "inputs": [
        {
          "indexed": false,
          "internalType": "address",
          "name": "airseekerRegistry",
          "type": "address"
        }
      ],
      "name": "SetAirseekerRegistry",
      "type": "event"
    },
    {
      "anonymous": false,
      "inputs": [
        {
          "indexed": true,
          "internalType": "bytes32",
          "name": "hashType",
          "type": "bytes32"
        },
        {
          "indexed": false,
          "internalType": "bytes32",
          "name": "hashValue",
          "type": "bytes32"
        },
        {
          "indexed": false,
          "internalType": "uint256",
          "name": "hashTimestamp",
          "type": "uint256"
        }
      ],
      "name": "SetHash",
      "type": "event"
    },
    {
      "anonymous": false,
      "inputs": [
        {
          "indexed": true,
          "internalType": "bytes32",
          "name": "hashType",
          "type": "bytes32"
        },
        {
          "indexed": false,
          "internalType": "address[]",
          "name": "signers",
          "type": "address[]"
        }
      ],
      "name": "SetSigners",
      "type": "event"
    },
    {
      "anonymous": false,
      "inputs": [
        {
          "indexed": true,
          "internalType": "bytes32",
          "name": "dapiName",
          "type": "bytes32"
        },
        {
          "indexed": true,
          "internalType": "bytes32",
          "name": "subscriptionId",
          "type": "bytes32"
        }
      ],
      "name": "UpdatedCurrentSubscriptionId",
      "type": "event"
    },
    {
      "inputs": [],
      "name": "DAPI_MANAGEMENT_MERKLE_ROOT_HASH_TYPE",
      "outputs": [
        {
          "internalType": "bytes32",
          "name": "",
          "type": "bytes32"
        }
      ],
      "stateMutability": "view",
      "type": "function"
    },
    {
      "inputs": [],
      "name": "DAPI_PRICING_MERKLE_ROOT_HASH_TYPE",
      "outputs": [
        {
          "internalType": "bytes32",
          "name": "",
          "type": "bytes32"
        }
      ],
      "stateMutability": "view",
      "type": "function"
    },
    {
      "inputs": [],
      "name": "MAXIMUM_DAPI_UPDATE_AGE",
      "outputs": [
        {
          "internalType": "uint256",
          "name": "",
          "type": "uint256"
        }
      ],
      "stateMutability": "view",
      "type": "function"
    },
    {
      "inputs": [],
      "name": "SIGNED_API_URL_MERKLE_ROOT_HASH_TYPE",
      "outputs": [
        {
          "internalType": "bytes32",
          "name": "",
          "type": "bytes32"
        }
      ],
      "stateMutability": "view",
      "type": "function"
    },
    {
      "inputs": [],
      "name": "airseekerRegistry",
      "outputs": [
        {
          "internalType": "address",
          "name": "",
          "type": "address"
        }
      ],
      "stateMutability": "view",
      "type": "function"
    },
    {
      "inputs": [],
      "name": "api3ReaderProxyV1Factory",
      "outputs": [
        {
          "internalType": "address",
          "name": "",
          "type": "address"
        }
      ],
      "stateMutability": "view",
      "type": "function"
    },
    {
      "inputs": [],
      "name": "api3ServerV1",
      "outputs": [
        {
          "internalType": "address",
          "name": "",
          "type": "address"
        }
      ],
      "stateMutability": "view",
      "type": "function"
    },
    {
      "inputs": [
        {
          "internalType": "bytes32",
          "name": "dapiName",
          "type": "bytes32"
        },
        {
          "internalType": "bytes32",
          "name": "dataFeedId",
          "type": "bytes32"
        },
        {
          "internalType": "address payable",
          "name": "sponsorWallet",
          "type": "address"
        },
        {
          "internalType": "bytes",
          "name": "updateParameters",
          "type": "bytes"
        },
        {
          "internalType": "uint256",
          "name": "duration",
          "type": "uint256"
        },
        {
          "internalType": "uint256",
          "name": "price",
          "type": "uint256"
        },
        {
          "internalType": "bytes",
          "name": "dapiManagementAndDapiPricingMerkleData",
          "type": "bytes"
        }
      ],
      "name": "buySubscription",
      "outputs": [
        {
          "internalType": "bytes32",
          "name": "subscriptionId",
          "type": "bytes32"
        }
      ],
      "stateMutability": "payable",
      "type": "function"
    },
    {
      "inputs": [
        {
          "internalType": "bytes32",
          "name": "dapiName",
          "type": "bytes32"
        }
      ],
      "name": "cancelSubscriptions",
      "outputs": [],
      "stateMutability": "nonpayable",
      "type": "function"
    },
    {
      "inputs": [
        {
          "internalType": "bytes32",
          "name": "dapiName",
          "type": "bytes32"
        }
      ],
      "name": "computeExpectedSponsorWalletBalance",
      "outputs": [
        {
          "internalType": "uint256",
          "name": "expectedSponsorWalletBalance",
          "type": "uint256"
        }
      ],
      "stateMutability": "view",
      "type": "function"
    },
    {
      "inputs": [
        {
          "internalType": "bytes32",
          "name": "dapiName",
          "type": "bytes32"
        },
        {
          "internalType": "bytes",
          "name": "updateParameters",
          "type": "bytes"
        },
        {
          "internalType": "uint256",
          "name": "duration",
          "type": "uint256"
        },
        {
          "internalType": "uint256",
          "name": "price",
          "type": "uint256"
        }
      ],
      "name": "computeExpectedSponsorWalletBalanceAfterSubscriptionIsAdded",
      "outputs": [
        {
          "internalType": "uint256",
          "name": "expectedSponsorWalletBalance",
          "type": "uint256"
        }
      ],
      "stateMutability": "view",
      "type": "function"
    },
    {
      "inputs": [
        {
          "internalType": "address",
          "name": "account",
          "type": "address"
        }
      ],
      "name": "containsBytecode",
      "outputs": [
        {
          "internalType": "bool",
          "name": "",
          "type": "bool"
        }
      ],
      "stateMutability": "view",
      "type": "function"
    },
    {
      "inputs": [
        {
          "internalType": "bytes32",
          "name": "",
          "type": "bytes32"
        }
      ],
      "name": "dapiNameToCurrentSubscriptionId",
      "outputs": [
        {
          "internalType": "bytes32",
          "name": "",
          "type": "bytes32"
        }
      ],
      "stateMutability": "view",
      "type": "function"
    },
    {
      "inputs": [
        {
          "internalType": "bytes32",
          "name": "dapiName",
          "type": "bytes32"
        },
        {
          "internalType": "uint256",
          "name": "dappId",
          "type": "uint256"
        },
        {
          "internalType": "bytes",
          "name": "metadata",
          "type": "bytes"
        }
      ],
      "name": "deployApi3ReaderProxyV1",
      "outputs": [
        {
          "internalType": "address",
          "name": "api3ReaderProxyV1",
          "type": "address"
        }
      ],
      "stateMutability": "nonpayable",
      "type": "function"
    },
    {
      "inputs": [
        {
          "internalType": "address",
          "name": "account",
          "type": "address"
        }
      ],
      "name": "getBalance",
      "outputs": [
        {
          "internalType": "uint256",
          "name": "",
          "type": "uint256"
        }
      ],
      "stateMutability": "view",
      "type": "function"
    },
    {
      "inputs": [],
      "name": "getBlockBasefee",
      "outputs": [
        {
          "internalType": "uint256",
          "name": "",
          "type": "uint256"
        }
      ],
      "stateMutability": "view",
      "type": "function"
    },
    {
      "inputs": [],
      "name": "getBlockNumber",
      "outputs": [
        {
          "internalType": "uint256",
          "name": "",
          "type": "uint256"
        }
      ],
      "stateMutability": "view",
      "type": "function"
    },
    {
      "inputs": [],
      "name": "getBlockTimestamp",
      "outputs": [
        {
          "internalType": "uint256",
          "name": "",
          "type": "uint256"
        }
      ],
      "stateMutability": "view",
      "type": "function"
    },
    {
      "inputs": [],
      "name": "getChainId",
      "outputs": [
        {
          "internalType": "uint256",
          "name": "",
          "type": "uint256"
        }
      ],
      "stateMutability": "view",
      "type": "function"
    },
    {
      "inputs": [
        {
          "internalType": "bytes32",
          "name": "dapiName",
          "type": "bytes32"
        }
      ],
      "name": "getDapiData",
      "outputs": [
        {
          "internalType": "bytes",
          "name": "dataFeedDetails",
          "type": "bytes"
        },
        {
          "internalType": "int224",
          "name": "dapiValue",
          "type": "int224"
        },
        {
          "internalType": "uint32",
          "name": "dapiTimestamp",
          "type": "uint32"
        },
        {
          "internalType": "int224[]",
          "name": "beaconValues",
          "type": "int224[]"
        },
        {
          "internalType": "uint32[]",
          "name": "beaconTimestamps",
          "type": "uint32[]"
        },
        {
          "internalType": "bytes[]",
          "name": "updateParameters",
          "type": "bytes[]"
        },
        {
          "internalType": "uint32[]",
          "name": "endTimestamps",
          "type": "uint32[]"
        },
        {
          "internalType": "uint224[]",
          "name": "dailyPrices",
          "type": "uint224[]"
        }
      ],
      "stateMutability": "view",
      "type": "function"
    },
    {
      "inputs": [
        {
          "internalType": "bytes32",
          "name": "dataFeedId",
          "type": "bytes32"
        }
      ],
      "name": "getDataFeedData",
      "outputs": [
        {
          "internalType": "bytes",
          "name": "dataFeedDetails",
          "type": "bytes"
        },
        {
          "internalType": "int224",
          "name": "dataFeedValue",
          "type": "int224"
        },
        {
          "internalType": "uint32",
          "name": "dataFeedTimestamp",
          "type": "uint32"
        },
        {
          "internalType": "int224[]",
          "name": "beaconValues",
          "type": "int224[]"
        },
        {
          "internalType": "uint32[]",
          "name": "beaconTimestamps",
          "type": "uint32[]"
        }
      ],
      "stateMutability": "view",
      "type": "function"
    },
    {
      "inputs": [
        {
          "internalType": "bytes32",
          "name": "hashType",
          "type": "bytes32"
        }
      ],
      "name": "getHashValue",
      "outputs": [
        {
          "internalType": "bytes32",
          "name": "hashValue",
          "type": "bytes32"
        }
      ],
      "stateMutability": "view",
      "type": "function"
    },
    {
      "inputs": [
        {
          "internalType": "bytes32",
          "name": "",
          "type": "bytes32"
        }
      ],
      "name": "hashTypeToSignersHash",
      "outputs": [
        {
          "internalType": "bytes32",
          "name": "",
          "type": "bytes32"
        }
      ],
      "stateMutability": "view",
      "type": "function"
    },
    {
      "inputs": [
        {
          "internalType": "bytes32",
          "name": "",
          "type": "bytes32"
        }
      ],
      "name": "hashes",
      "outputs": [
        {
          "internalType": "bytes32",
          "name": "value",
          "type": "bytes32"
        },
        {
          "internalType": "uint256",
          "name": "timestamp",
          "type": "uint256"
        }
      ],
      "stateMutability": "view",
      "type": "function"
    },
    {
      "inputs": [],
      "name": "maximumSubscriptionQueueLength",
      "outputs": [
        {
          "internalType": "uint256",
          "name": "",
          "type": "uint256"
        }
      ],
      "stateMutability": "view",
      "type": "function"
    },
    {
      "inputs": [
        {
          "internalType": "bytes[]",
          "name": "data",
          "type": "bytes[]"
        }
      ],
      "name": "multicall",
      "outputs": [
        {
          "internalType": "bytes[]",
          "name": "returndata",
          "type": "bytes[]"
        }
      ],
      "stateMutability": "nonpayable",
      "type": "function"
    },
    {
      "inputs": [
        {
          "internalType": "bytes[]",
          "name": "multicallData",
          "type": "bytes[]"
        },
        {
          "internalType": "bytes32",
          "name": "dapiName",
          "type": "bytes32"
        },
        {
          "internalType": "bytes32",
          "name": "dataFeedId",
          "type": "bytes32"
        },
        {
          "internalType": "address payable",
          "name": "sponsorWallet",
          "type": "address"
        },
        {
          "internalType": "bytes",
          "name": "updateParameters",
          "type": "bytes"
        },
        {
          "internalType": "uint256",
          "name": "duration",
          "type": "uint256"
        },
        {
          "internalType": "uint256",
          "name": "price",
          "type": "uint256"
        },
        {
          "internalType": "bytes",
          "name": "dapiManagementAndDapiPricingMerkleData",
          "type": "bytes"
        }
      ],
      "name": "multicallAndBuySubscription",
      "outputs": [
        {
          "internalType": "bytes[]",
          "name": "returndata",
          "type": "bytes[]"
        },
        {
          "internalType": "bytes32",
          "name": "subscriptionId",
          "type": "bytes32"
        }
      ],
      "stateMutability": "payable",
      "type": "function"
    },
    {
      "inputs": [],
      "name": "owner",
      "outputs": [
        {
          "internalType": "address",
          "name": "",
          "type": "address"
        }
      ],
      "stateMutability": "view",
      "type": "function"
    },
    {
      "inputs": [
        {
          "internalType": "bytes",
          "name": "dataFeedDetails",
          "type": "bytes"
        }
      ],
      "name": "registerDataFeed",
      "outputs": [
        {
          "internalType": "bytes32",
          "name": "dataFeedId",
          "type": "bytes32"
        }
      ],
      "stateMutability": "nonpayable",
      "type": "function"
    },
    {
      "inputs": [
        {
          "internalType": "bytes32",
          "name": "hashType",
          "type": "bytes32"
        },
        {
          "internalType": "bytes32",
          "name": "hashValue",
          "type": "bytes32"
        },
        {
          "internalType": "uint256",
          "name": "hashTimestamp",
          "type": "uint256"
        },
        {
          "internalType": "bytes[]",
          "name": "signatures",
          "type": "bytes[]"
        }
      ],
      "name": "registerHash",
      "outputs": [],
      "stateMutability": "nonpayable",
      "type": "function"
    },
    {
      "inputs": [],
      "name": "renounceOwnership",
      "outputs": [],
      "stateMutability": "pure",
      "type": "function"
    },
    {
      "inputs": [
        {
          "internalType": "address",
          "name": "airseekerRegistry_",
          "type": "address"
        }
      ],
      "name": "setAirseekerRegistry",
      "outputs": [],
      "stateMutability": "nonpayable",
      "type": "function"
    },
    {
      "inputs": [
        {
          "internalType": "bytes32",
          "name": "hashType",
          "type": "bytes32"
        },
        {
          "internalType": "bytes32",
          "name": "hashValue",
          "type": "bytes32"
        }
      ],
      "name": "setHash",
      "outputs": [],
      "stateMutability": "nonpayable",
      "type": "function"
    },
    {
      "inputs": [
        {
          "internalType": "bytes32",
          "name": "hashType",
          "type": "bytes32"
        },
        {
          "internalType": "address[]",
          "name": "signers",
          "type": "address[]"
        }
      ],
      "name": "setSigners",
      "outputs": [],
      "stateMutability": "nonpayable",
      "type": "function"
    },
    {
      "inputs": [],
      "name": "signatureDelegationHashType",
      "outputs": [
        {
          "internalType": "bytes32",
          "name": "",
          "type": "bytes32"
        }
      ],
      "stateMutability": "view",
      "type": "function"
    },
    {
      "inputs": [
        {
          "internalType": "bytes32",
          "name": "subscriptionId",
          "type": "bytes32"
        }
      ],
      "name": "subscriptionIdToUpdateParameters",
      "outputs": [
        {
          "internalType": "bytes",
          "name": "updateParameters",
          "type": "bytes"
        }
      ],
      "stateMutability": "view",
      "type": "function"
    },
    {
      "inputs": [
        {
          "internalType": "bytes32",
          "name": "",
          "type": "bytes32"
        }
      ],
      "name": "subscriptions",
      "outputs": [
        {
          "internalType": "bytes32",
          "name": "updateParametersHash",
          "type": "bytes32"
        },
        {
          "internalType": "uint32",
          "name": "endTimestamp",
          "type": "uint32"
        },
        {
          "internalType": "uint224",
          "name": "dailyPrice",
          "type": "uint224"
        },
        {
          "internalType": "bytes32",
          "name": "nextSubscriptionId",
          "type": "bytes32"
        }
      ],
      "stateMutability": "view",
      "type": "function"
    },
    {
      "inputs": [
        {
          "internalType": "address",
          "name": "",
          "type": "address"
        }
      ],
      "name": "transferOwnership",
      "outputs": [],
      "stateMutability": "pure",
      "type": "function"
    },
    {
      "inputs": [
        {
          "internalType": "bytes[]",
          "name": "data",
          "type": "bytes[]"
        }
      ],
      "name": "tryMulticall",
      "outputs": [
        {
          "internalType": "bool[]",
          "name": "successes",
          "type": "bool[]"
        },
        {
          "internalType": "bytes[]",
          "name": "returndata",
          "type": "bytes[]"
        }
      ],
      "stateMutability": "nonpayable",
      "type": "function"
    },
    {
      "inputs": [
        {
          "internalType": "bytes[]",
          "name": "tryMulticallData",
          "type": "bytes[]"
        },
        {
          "internalType": "bytes32",
          "name": "dapiName",
          "type": "bytes32"
        },
        {
          "internalType": "bytes32",
          "name": "dataFeedId",
          "type": "bytes32"
        },
        {
          "internalType": "address payable",
          "name": "sponsorWallet",
          "type": "address"
        },
        {
          "internalType": "bytes",
          "name": "updateParameters",
          "type": "bytes"
        },
        {
          "internalType": "uint256",
          "name": "duration",
          "type": "uint256"
        },
        {
          "internalType": "uint256",
          "name": "price",
          "type": "uint256"
        },
        {
          "internalType": "bytes",
          "name": "dapiManagementAndDapiPricingMerkleData",
          "type": "bytes"
        }
      ],
      "name": "tryMulticallAndBuySubscription",
      "outputs": [
        {
          "internalType": "bool[]",
          "name": "successes",
          "type": "bool[]"
        },
        {
          "internalType": "bytes[]",
          "name": "returndata",
          "type": "bytes[]"
        },
        {
          "internalType": "bytes32",
          "name": "subscriptionId",
          "type": "bytes32"
        }
      ],
      "stateMutability": "payable",
      "type": "function"
    },
    {
      "inputs": [
        {
          "internalType": "bytes32[]",
          "name": "beaconIds",
          "type": "bytes32[]"
        }
      ],
      "name": "updateBeaconSetWithBeacons",
      "outputs": [
        {
          "internalType": "bytes32",
          "name": "beaconSetId",
          "type": "bytes32"
        }
      ],
      "stateMutability": "nonpayable",
      "type": "function"
    },
    {
      "inputs": [
        {
          "internalType": "address",
          "name": "airnode",
          "type": "address"
        },
        {
          "internalType": "bytes32",
          "name": "templateId",
          "type": "bytes32"
        },
        {
          "internalType": "uint256",
          "name": "timestamp",
          "type": "uint256"
        },
        {
          "internalType": "bytes",
          "name": "data",
          "type": "bytes"
        },
        {
          "internalType": "bytes",
          "name": "signature",
          "type": "bytes"
        }
      ],
      "name": "updateBeaconWithSignedData",
      "outputs": [
        {
          "internalType": "bytes32",
          "name": "beaconId",
          "type": "bytes32"
        }
      ],
      "stateMutability": "nonpayable",
      "type": "function"
    },
    {
      "inputs": [
        {
          "internalType": "bytes32",
          "name": "dapiName",
          "type": "bytes32"
        }
      ],
      "name": "updateCurrentSubscriptionId",
      "outputs": [],
      "stateMutability": "nonpayable",
      "type": "function"
    },
    {
      "inputs": [
        {
          "internalType": "bytes32",
          "name": "dapiName",
          "type": "bytes32"
        },
        {
          "internalType": "bytes32",
          "name": "dataFeedId",
          "type": "bytes32"
        },
        {
          "internalType": "address",
          "name": "sponsorWallet",
          "type": "address"
        },
        {
          "internalType": "bytes",
          "name": "dapiManagementMerkleData",
          "type": "bytes"
        }
      ],
      "name": "updateDapiName",
      "outputs": [],
      "stateMutability": "nonpayable",
      "type": "function"
    },
    {
      "inputs": [
        {
          "internalType": "address",
          "name": "airnode",
          "type": "address"
        },
        {
          "internalType": "string",
          "name": "signedApiUrl",
          "type": "string"
        },
        {
          "internalType": "bytes",
          "name": "signedApiUrlMerkleData",
          "type": "bytes"
        }
      ],
      "name": "updateSignedApiUrl",
      "outputs": [],
      "stateMutability": "nonpayable",
      "type": "function"
    }
  ],
  "transactionHash": "0x894724324160d261e64f2ae822b5a4f363eae96340373a6eb6af0c9d4e30654f",
  "args": [
    "0x25C6f371Cf8d4200B89dF84f9dE69d011013B086",
    "0x1DCE40DC2AfA7131C4838c8BFf635ae9d198d1cE",
    10
  ],
  "numDeployments": 1,
  "solcInputHash": "de732d772112aad69480d1de96d03ebc",
  "bytecode": "0x60e060405234801561001057600080fd5b50604051615da4380380615da483398101604081905261002f9161020f565b82806001600160a01b03811661006057604051631e4fbdf760e01b8152600060048201526024015b60405180910390fd5b610069816101a3565b5050806000036100bb5760405162461bcd60e51b815260206004820152601960248201527f4d6178696d756d207175657565206c656e677468207a65726f000000000000006044820152606401610057565b6001600160a01b03821660a08190526040805163ce7ebd6d60e01b8152905163ce7ebd6d9160048082019260209290919082900301816000875af1158015610107573d6000803e3d6000fd5b505050506040513d601f19601f8201168201806040525081019061012b919061024b565b6001600160a01b0316632d6a744e6040518163ffffffff1660e01b8152600401602060405180830381865afa158015610168573d6000803e3d6000fd5b505050506040513d601f19601f8201168201806040525081019061018c919061024b565b6001600160a01b031660805260c0525061026d9050565b600080546001600160a01b038381166001600160a01b0319831681178455604051919092169283917f8be0079c531659141344cd1fd0a4f28419497f9722a3daafe3b4186f6b6457e09190a35050565b80516001600160a01b038116811461020a57600080fd5b919050565b60008060006060848603121561022457600080fd5b61022d846101f3565b925061023b602085016101f3565b9150604084015190509250925092565b60006020828403121561025d57600080fd5b610266826101f3565b9392505050565b60805160a05160c051615aad6102f7600039600081816107340152613c030152600081816104b40152612360015260008181610440015281816109d901528181610fb2015281816123f8015281816128b10152818161298f01528181612b7901528181612df401528181612f26015281816138c50152818161399c0152613dc50152615aad6000f3fe6080604052600436106102f15760003560e01c8063715018a61161018f578063b7afd507116100e1578063d7fa10071161008a578063f2fde38b11610064578063f2fde38b1461093f578063f8b2cb4f1461095f578063fa0130671461098757600080fd5b8063d7fa1007146108d7578063d8d2f90f146108f7578063e637cf001461092857600080fd5b8063c6c04e16116100bb578063c6c04e1614610845578063d5659f3114610879578063d658d2e91461088e57600080fd5b8063b7afd507146107f2578063c1516e5414610805578063c30027601461082557600080fd5b806394259c6c11610143578063a89307b41161011d578063a89307b414610776578063aa2b44e414610798578063ac9650d8146107c557600080fd5b806394259c6c1461069957806397f679d314610722578063a5f36cb11461075657600080fd5b8063845ebe4311610174578063845ebe43146106215780638c9f4c791461064e5780638da5cb5b1461067b57600080fd5b8063715018a6146105f9578063796b89b91461060e57600080fd5b80633adb35fe116102485780634dcc19fe116101fc5780635989eaeb116101d65780635989eaeb1461057f5780635d868194146105b957806364c2359d146105d957600080fd5b80634dcc19fe1461053757806353130e261461054a5780635885c7711461056a57600080fd5b806342cbb15c1161022d57806342cbb15c146104d6578063437b9116146104e95780634dc610d41461051757600080fd5b80633adb35fe1461048d5780633db35663146104a257600080fd5b80631a0a0b3e116102aa578063288ddb6111610284578063288ddb61146104195780632d6a744e1461042e5780633408e4701461047a57600080fd5b80631a0a0b3e146103b85780631b1f24d8146103d85780631d911b6d146103f957600080fd5b8063044c9bd7116102db578063044c9bd71461034b5780630b62ebf21461037857806318d6e2d41461039857600080fd5b8062aae33f146102f65780630141ff4814610329575b600080fd5b34801561030257600080fd5b50610316610311366004614456565b6109a7565b6040519081526020015b60405180910390f35b34801561033557600080fd5b50610349610344366004614498565b610a5b565b005b34801561035757600080fd5b50610316610366366004614498565b60009081526001602052604090205490565b34801561038457600080fd5b506103496103933660046144c9565b610b33565b3480156103a457600080fd5b506103496103b33660046144e6565b610d18565b3480156103c457600080fd5b506103166103d3366004614574565b610f7f565b6103eb6103e636600461461f565b611042565b6040516103209291906147ac565b34801561040557600080fd5b506103496104143660046147ce565b6110e0565b34801561042557600080fd5b5061031661129a565b34801561043a57600080fd5b506104627f000000000000000000000000000000000000000000000000000000000000000081565b6040516001600160a01b039091168152602001610320565b34801561048657600080fd5b5046610316565b34801561049957600080fd5b506103166112e0565b3480156104ae57600080fd5b506104627f000000000000000000000000000000000000000000000000000000000000000081565b3480156104e257600080fd5b5043610316565b3480156104f557600080fd5b50610509610504366004614456565b611356565b604051610320929190614894565b34801561052357600080fd5b50610349610532366004614498565b6114bc565b34801561054357600080fd5b5048610316565b34801561055657600080fd5b50600354610462906001600160a01b031681565b34801561057657600080fd5b506103166115bd565b34801561058b57600080fd5b506105a961059a3660046144c9565b6001600160a01b03163b151590565b6040519015158152602001610320565b3480156105c557600080fd5b506103166105d43660046148b9565b6115ee565b3480156105e557600080fd5b506103166105f4366004614498565b61163a565b34801561060557600080fd5b506103496116f0565b34801561061a57600080fd5b5042610316565b34801561062d57600080fd5b5061031661063c366004614498565b60026020526000908152604090205481565b34801561065a57600080fd5b5061066e610669366004614498565b611738565b60405161032091906148ef565b34801561068757600080fd5b506000546001600160a01b0316610462565b3480156106a557600080fd5b506106ef6106b4366004614498565b600460205260009081526040902080546001820154600290920154909163ffffffff8116916401000000009091046001600160e01b03169084565b6040805194855263ffffffff90931660208501526001600160e01b03909116918301919091526060820152608001610320565b34801561072e57600080fd5b506103167f000000000000000000000000000000000000000000000000000000000000000081565b34801561076257600080fd5b50610349610771366004614902565b6117e7565b61078961078436600461461f565b611d2f565b60405161032093929190614952565b3480156107a457600080fd5b506103166107b3366004614498565b60056020526000908152604090205481565b3480156107d157600080fd5b506107e56107e0366004614456565b611dd2565b6040516103209190614988565b61031661080036600461499b565b611f53565b34801561081157600080fd5b50610316610820366004614a4b565b612181565b34801561083157600080fd5b50610462610840366004614aa9565b61232d565b34801561085157600080fd5b50610865610860366004614498565b6123e7565b604051610320989796959493929190614b69565b34801561088557600080fd5b50610316612762565b34801561089a57600080fd5b506108c26108a9366004614498565b6001602081905260009182526040909120805491015482565b60408051928352602083019190915201610320565b3480156108e357600080fd5b506103496108f2366004614c35565b612793565b34801561090357600080fd5b50610917610912366004614498565b612804565b604051610320959493929190614c57565b34801561093457600080fd5b506103166201518081565b34801561094b57600080fd5b5061034961095a3660046144c9565b612ce3565b34801561096b57600080fd5b5061031661097a3660046144c9565b6001600160a01b03163190565b34801561099357600080fd5b506103496109a2366004614ca5565b612d2b565b6040517eaae33f0000000000000000000000000000000000000000000000000000000081526000906001600160a01b037f0000000000000000000000000000000000000000000000000000000000000000169062aae33f90610a0f9086908690600401614cf2565b6020604051808303816000875af1158015610a2e573d6000803e3d6000fd5b505050506040513d601f19601f82011682018060405250810190610a529190614d44565b90505b92915050565b60008181526005602052604090205480610abc5760405162461bcd60e51b815260206004820152601860248201527f537562736372697074696f6e20717565756520656d707479000000000000000060448201526064015b60405180910390fd5b6000818152600460205260409020600101544263ffffffff9091161115610b255760405162461bcd60e51b815260206004820152601e60248201527f43757272656e7420737562736372697074696f6e206e6f7420656e64656400006044820152606401610ab3565b610b2f8282612f92565b5050565b610b3b6130af565b6001600160a01b038116610b915760405162461bcd60e51b815260206004820152601e60248201527f4169727365656b657252656769737472792061646472657373207a65726f00006044820152606401610ab3565b6003546001600160a01b031615610bea5760405162461bcd60e51b815260206004820152601d60248201527f4169727365656b6572526567697374727920616c7265616479207365740000006044820152606401610ab3565b306001600160a01b0316816001600160a01b0316638da5cb5b6040518163ffffffff1660e01b8152600401602060405180830381865afa158015610c32573d6000803e3d6000fd5b505050506040513d601f19601f82011682018060405250810190610c569190614d5d565b6001600160a01b031614610cac5760405162461bcd60e51b815260206004820152601b60248201527f4e6f74204169727365656b65725265676973747279206f776e657200000000006044820152606401610ab3565b600380547fffffffffffffffffffffffff0000000000000000000000000000000000000000166001600160a01b0383169081179091556040519081527f90f2d5c680e476ebdec8de98d28cd387630163236f0975752747b4075c8300f89060200160405180910390a150565b610d206130af565b82610d6d5760405162461bcd60e51b815260206004820152600e60248201527f486173682074797065207a65726f0000000000000000000000000000000000006044820152606401610ab3565b806000819003610dbf5760405162461bcd60e51b815260206004820152600d60248201527f5369676e65727320656d707479000000000000000000000000000000000000006044820152606401610ab3565b600083838281610dd157610dd1614d7a565b9050602002016020810190610de691906144c9565b6001600160a01b031603610e3c5760405162461bcd60e51b815260206004820152601960248201527f4669727374207369676e65722061646472657373207a65726f000000000000006044820152606401610ab3565b60015b81811015610f06578383610e54600184614da6565b818110610e6357610e63614d7a565b9050602002016020810190610e7891906144c9565b6001600160a01b0316848483818110610e9357610e93614d7a565b9050602002016020810190610ea891906144c9565b6001600160a01b031611610efe5760405162461bcd60e51b815260206004820152601e60248201527f5369676e657273206e6f7420696e20617363656e64696e67206f7264657200006044820152606401610ab3565b600101610e3f565b508282604051602001610f1a929190614db9565b60408051601f198184030181528282528051602091820120600088815260029092529190205584907f5a1f5ee4ceedd78b1982374b4790e8aa9f31e8af1c32aaef46b2afd8a789193a90610f719086908690614dfb565b60405180910390a250505050565b6040517f1a0a0b3e0000000000000000000000000000000000000000000000000000000081526000906001600160a01b037f00000000000000000000000000000000000000000000000000000000000000001690631a0a0b3e90610ff3908b908b908b908b908b908b908b90600401614e71565b6020604051808303816000875af1158015611012573d6000803e3d6000fd5b505050506040513d601f19601f820116820180604052508101906110369190614d44565b98975050505050505050565b60606000306001600160a01b031663ac9650d88e8e6040518363ffffffff1660e01b8152600401611074929190614ec1565b6000604051808303816000875af1158015611093573d6000803e3d6000fd5b505050506040513d6000823e601f3d908101601f191682016040526110bb91908101906150cf565b91506110ce8b8b8b8b8b8b8b8b8b611f53565b90509b509b9950505050505050505050565b6110ed8585858585613106565b6003546040517f085df6ab0000000000000000000000000000000000000000000000000000000081526001600160a01b0387811660048301529091169063085df6ab90602401600060405180830381865afa158015611150573d6000803e3d6000fd5b505050506040513d6000823e601f3d908101601f191682016040526111789190810190615104565b604051602001611188919061514d565b6040516020818303038152906040528051906020012084846040516020016111b1929190615169565b60405160208183030381529060405280519060200120036112145760405162461bcd60e51b815260206004820152601e60248201527f446f6573206e6f7420757064617465207369676e6564204150492055524c00006044820152606401610ab3565b6003546040517ffba8f22f0000000000000000000000000000000000000000000000000000000081526001600160a01b039091169063fba8f22f9061126190889088908890600401615179565b600060405180830381600087803b15801561127b57600080fd5b505af115801561128f573d6000803e3d6000fd5b505050505050505050565b6040517f644150492070726963696e67204d65726b6c6520726f6f74000000000000000060208201526038015b6040516020818303038152906040528051906020012081565b600060405160200161133b907f417069334d61726b65745632207369676e61747572652064656c65676174696f81527f6e00000000000000000000000000000000000000000000000000000000000000602082015260210190565b60405160208183030381529060405280519060200120905090565b606080828067ffffffffffffffff81111561137357611373614f64565b60405190808252806020026020018201604052801561139c578160200160208202803683370190505b5092508067ffffffffffffffff8111156113b8576113b8614f64565b6040519080825280602002602001820160405280156113eb57816020015b60608152602001906001900390816113d65790505b50915060005b818110156114b3573086868381811061140c5761140c614d7a565b905060200281019061141e919061519c565b60405161142c929190615169565b600060405180830381855af49150503d8060008114611467576040519150601f19603f3d011682016040523d82523d6000602084013e61146c565b606091505b5085838151811061147f5761147f614d7a565b6020026020010185848151811061149857611498614d7a565b602090810291909101019190915290151590526001016113f1565b50509250929050565b6114c46130af565b60008181526005602052604090205461151f5760405162461bcd60e51b815260206004820152601860248201527f537562736372697074696f6e20717565756520656d70747900000000000000006044820152606401610ab3565b600081815260056020526040808220919091556003549051632412a9cb60e01b8152600481018390526001600160a01b0390911690632412a9cb90602401600060405180830381600087803b15801561157757600080fd5b505af115801561158b573d6000803e3d6000fd5b50506040518392507f07731f198aeecb61ff6de517fa82a003ba1bb3846140b23b62d7563dc2ddfb6a9150600090a250565b6040517f64415049206d616e6167656d656e74204d65726b6c6520726f6f7400000000006020820152603b016112c7565b6003546040517f5d8681940000000000000000000000000000000000000000000000000000000081526000916001600160a01b031690635d86819490610a0f90869086906004016151e3565b6000806116464261324c565b600084815260056020526040812054919250905b80156116e8576000818152600460205260409020600181015490925063ffffffff16428111156116dc576001830154620151809064010000000090046001600160e01b03166116a986846151f7565b63ffffffff166116b99190615213565b6116c39190615261565b6116d6906001600160e01b03168661528f565b94508093505b5050600281015461165a565b505050919050565b60405162461bcd60e51b815260206004820152601d60248201527f4f776e6572736869702063616e6e6f742062652072656e6f756e6365640000006044820152606401610ab3565b600081815260046020908152604080832054835260069091529020805460609190611762906152a2565b80601f016020809104026020016040519081016040528092919081815260200182805461178e906152a2565b80156117db5780601f106117b0576101008083540402835291602001916117db565b820191906000526020600020905b8154815290600101906020018083116117be57829003601f168201915b50505050509050919050565b836118345760405162461bcd60e51b815260206004820152600f60248201527f486173682076616c7565207a65726f00000000000000000000000000000000006044820152606401610ab3565b428311156118845760405162461bcd60e51b815260206004820152601a60248201527f486173682074696d657374616d702066726f6d206675747572650000000000006044820152606401610ab3565b6000858152600160208190526040909120015483116118e55760405162461bcd60e51b815260206004820152601e60248201527f486173682074696d657374616d70206e6f74206d6f726520726563656e7400006044820152606401610ab3565b600085815260026020526040902054806119415760405162461bcd60e51b815260206004820152600f60248201527f5369676e657273206e6f742073657400000000000000000000000000000000006044820152606401610ab3565b8160008167ffffffffffffffff81111561195d5761195d614f64565b604051908082528060200260200182016040528015611986578160200160208202803683370190505b5060408051602081018b9052908101899052606081018890529091506000906119f6906080015b604051602081830303815290604052805190602001207f19457468657265756d205369676e6564204d6573736167653a0a3332000000006000908152601c91909152603c902090565b905060005b83811015611c41576000878783818110611a1757611a17614d7a565b9050602002810190611a29919061519c565b9150506040198101611ace57611a9783898985818110611a4b57611a4b614d7a565b9050602002810190611a5d919061519c565b8080601f01602080910402602001604051908101604052809392919081815260200183838082843760009201919091525061328192505050565b848381518110611aa957611aa9614d7a565b60200260200101906001600160a01b031690816001600160a01b031681525050611c38565b6101608103611bf05760008060008a8a86818110611aee57611aee614d7a565b9050602002810190611b00919061519c565b810190611b0d919061532d565b925092509250824210611b625760405162461bcd60e51b815260206004820152601060248201527f44656c65676174696f6e20656e646564000000000000000000000000000000006044820152606401610ab3565b611bb6611bb0611b706112e0565b611b7a8985613281565b866040516020016119ad9392919092835260609190911b6bffffffffffffffffffffffff19166020830152603482015260540190565b83613281565b878681518110611bc857611bc8614d7a565b60200260200101906001600160a01b031690816001600160a01b031681525050505050611c38565b60405162461bcd60e51b815260206004820152601860248201527f496e76616c6964207369676e6174757265206c656e67746800000000000000006044820152606401610ab3565b506001016119fb565b5081604051602001611c53919061539f565b604051602081830303815290604052805190602001208414611cb75760405162461bcd60e51b815260206004820152601260248201527f5369676e6174757265206d69736d6174636800000000000000000000000000006044820152606401610ab3565b60408051808201825289815260208082018a815260008d815260019283905284902092518355519101555189907fa33e8931ee2a869317bbe04201dab2907fd39d2d7f014c15b8459986e62c279190611d1c908b908b90918252602082015260400190565b60405180910390a2505050505050505050565b6060806000306001600160a01b031663437b91168f8f6040518363ffffffff1660e01b8152600401611d62929190614ec1565b6000604051808303816000875af1158015611d81573d6000803e3d6000fd5b505050506040513d6000823e601f3d908101601f19168201604052611da991908101906153ee565b9093509150611dbf8c8c8c8c8c8c8c8c8c611f53565b90509b509b509b98505050505050505050565b6060818067ffffffffffffffff811115611dee57611dee614f64565b604051908082528060200260200182016040528015611e2157816020015b6060815260200190600190039081611e0c5790505b50915060005b81811015611f4b57600030868684818110611e4457611e44614d7a565b9050602002810190611e56919061519c565b604051611e64929190615169565b600060405180830381855af49150503d8060008114611e9f576040519150601f19603f3d011682016040523d82523d6000602084013e611ea4565b606091505b50858481518110611eb757611eb7614d7a565b6020908102919091010152905080611f42576000848381518110611edd57611edd614d7a565b60200260200101519050600081511115611efa5780518082602001fd5b60405162461bcd60e51b815260206004820152601b60248201527f4d756c746963616c6c3a204e6f2072657665727420737472696e6700000000006044820152606401610ab3565b50600101611e27565b505092915050565b600088611fa25760405162461bcd60e51b815260206004820152601160248201527f446174612066656564204944207a65726f0000000000000000000000000000006044820152606401610ab3565b6001600160a01b038816611ff85760405162461bcd60e51b815260206004820152601b60248201527f53706f6e736f722077616c6c65742061646472657373207a65726f00000000006044820152606401610ab3565b6120098a8a8a8a8a8a8a8a8a6132ab565b6120178a8a89898989613610565b90506120228a61163a565b612036346001600160a01b038b163161528f565b10156120845760405162461bcd60e51b815260206004820152601460248201527f496e73756666696369656e74207061796d656e740000000000000000000000006044820152606401610ab3565b808a7fd44e8abecc305a9434d27a049c731a8331cee8bca6496154f47835b396ce55068b8b8b8b8b8b346040516120c197969594939291906154b9565b60405180910390a33415612174576000886001600160a01b03163460405160006040518083038185875af1925050503d806000811461211c576040519150601f19603f3d011682016040523d82523d6000602084013e612121565b606091505b50509050806121725760405162461bcd60e51b815260206004820152601560248201527f5472616e7366657220756e7375636365737366756c00000000000000000000006044820152606401610ab3565b505b9998505050505050505050565b6000606084146121d35760405162461bcd60e51b815260206004820181905260248201527f55706461746520706172616d6574657273206c656e67746820696e76616c69646044820152606401610ab3565b6000806000806121e58a8a8a8a613a0f565b935093509350935060008787620151806121ff9190615501565b6122099190615518565b905060006122164261324c565b9050600084156122345760008d815260056020526040902054612236565b865b90505b801561231d5786810361228657620151808361225584896151f7565b63ffffffff166122659190615501565b61226f9190615518565b612279908961528f565b9750859150839050612239565b6000818152600460205260409020600181015463ffffffff16428111156122ff576001820154620151809064010000000090046001600160e01b03166122cc86846151f7565b63ffffffff166122dc9190615213565b6122e69190615261565b6122f9906001600160e01b03168b61528f565b99508093505b82870361230e57889250612316565b816002015492505b5050612239565b5050505050505095945050505050565b6040517fc30027600000000000000000000000000000000000000000000000000000000081526000906001600160a01b037f0000000000000000000000000000000000000000000000000000000000000000169063c30027609061239b90889088908890889060040161552c565b6020604051808303816000875af11580156123ba573d6000803e3d6000fd5b505050506040513d601f19601f820116820180604052508101906123de9190614d5d565b95945050505050565b6060600080606080606080606060007f00000000000000000000000000000000000000000000000000000000000000006001600160a01b031663472c22f18b60405160200161243891815260200190565b604051602081830303815290604052805190602001206040518263ffffffff1660e01b815260040161246c91815260200190565b602060405180830381865afa158015612489573d6000803e3d6000fd5b505050506040513d601f19601f820116820180604052508101906124ad9190614d44565b90506124b881612804565b60008f815260056020526040812054959e50939c50919a5098509650905b801561250357816124e681615556565b600092835260046020526040909220600201549192506124d69050565b508067ffffffffffffffff81111561251d5761251d614f64565b60405190808252806020026020018201604052801561255057816020015b606081526020019060019003908161253b5790505b5094508067ffffffffffffffff81111561256c5761256c614f64565b604051908082528060200260200182016040528015612595578160200160208202803683370190505b5093508067ffffffffffffffff8111156125b1576125b1614f64565b6040519080825280602002602001820160405280156125da578160200160208202803683370190505b5060008c8152600560209081526040808320548352600490915281209194505b828110156127535781546000908152600660205260409020805461261d906152a2565b80601f0160208091040260200160405190810160405280929190818152602001828054612649906152a2565b80156126965780601f1061266b57610100808354040283529160200191612696565b820191906000526020600020905b81548152906001019060200180831161267957829003601f168201915b50505050508782815181106126ad576126ad614d7a565b60209081029190910101526001820154865163ffffffff909116908790839081106126da576126da614d7a565b602002602001019063ffffffff16908163ffffffff16815250508160010160049054906101000a90046001600160e01b031685828151811061271e5761271e614d7a565b6001600160e01b03909216602092830291909101820152600290920154600090815260049092526040909120906001016125fa565b50505050919395975091939597565b6040517f5369676e6564204150492055524c204d65726b6c6520726f6f740000000000006020820152603a016112c7565b61279b6130af565b604080518082018252828152426020808301828152600087815260018084529086902094518555905193019290925582518481529182015283917f19cb5bc6996c2541fb44252778e9c8c952662cce4670a75a4174b50c765bd7d1910160405180910390a25050565b6003546040517f6e85b69a000000000000000000000000000000000000000000000000000000008152600481018390526060916000918291849182916001600160a01b031690636e85b69a90602401600060405180830381865afa158015612870573d6000803e3d6000fd5b505050506040513d6000823e601f3d908101601f19168201604052612898919081019061556f565b6040516367a7cfb760e01b8152600481018890529095507f00000000000000000000000000000000000000000000000000000000000000006001600160a01b0316906367a7cfb7906024016040805180830381865afa1580156128ff573d6000803e3d6000fd5b505050506040513d601f19601f8201168201806040525081019061292391906155b3565b86519195509350603f1901612abd57604080516001808252818301909252906020808301908036833750506040805160018082528183019092529294509050602080830190803683370190505090506000808680602001905181019061298991906155f6565b915091507f00000000000000000000000000000000000000000000000000000000000000006001600160a01b03166367a7cfb7612a0884846040516bffffffffffffffffffffffff19606084901b1660208201526034810182905260009060540160405160208183030381529060405280519060200120905092915050565b6040518263ffffffff1660e01b8152600401612a2691815260200190565b6040805180830381865afa158015612a42573d6000803e3d6000fd5b505050506040513d601f19601f82011682018060405250810190612a6691906155b3565b85600081518110612a7957612a79614d7a565b6020026020010185600081518110612a9357612a93614d7a565b602002602001018263ffffffff1663ffffffff1681525082601b0b601b0b81525050505050612cda565b845115612cda5760008086806020019051810190612adb9190615682565b815191935091508067ffffffffffffffff811115612afb57612afb614f64565b604051908082528060200260200182016040528015612b24578160200160208202803683370190505b5094508067ffffffffffffffff811115612b4057612b40614f64565b604051908082528060200260200182016040528015612b69578160200160208202803683370190505b50935060005b81811015612cd5577f00000000000000000000000000000000000000000000000000000000000000006001600160a01b03166367a7cfb7612c24868481518110612bbb57612bbb614d7a565b6020026020010151868581518110612bd557612bd5614d7a565b60200260200101516040516bffffffffffffffffffffffff19606084901b1660208201526034810182905260009060540160405160208183030381529060405280519060200120905092915050565b6040518263ffffffff1660e01b8152600401612c4291815260200190565b6040805180830381865afa158015612c5e573d6000803e3d6000fd5b505050506040513d601f19601f82011682018060405250810190612c8291906155b3565b878381518110612c9457612c94614d7a565b60200260200101878481518110612cad57612cad614d7a565b63ffffffff90931660209384029190910190920191909152601b9190910b9052600101612b6f565b505050505b91939590929450565b60405162461bcd60e51b815260206004820152601f60248201527f4f776e6572736869702063616e6e6f74206265207472616e73666572726564006044820152606401610ab3565b8315612d8c576001600160a01b038316612d875760405162461bcd60e51b815260206004820152601b60248201527f53706f6e736f722077616c6c65742061646472657373207a65726f00000000006044820152606401610ab3565b612de3565b6001600160a01b03831615612de35760405162461bcd60e51b815260206004820152601f60248201527f53706f6e736f722077616c6c65742061646472657373206e6f74207a65726f006044820152606401610ab3565b612df08585858585613c80565b60007f00000000000000000000000000000000000000000000000000000000000000006001600160a01b031663472c22f187604051602001612e3491815260200190565b604051602081830303815290604052805190602001206040518263ffffffff1660e01b8152600401612e6891815260200190565b602060405180830381865afa158015612e85573d6000803e3d6000fd5b505050506040513d601f19601f82011682018060405250810190612ea99190614d44565b9050848103612efa5760405162461bcd60e51b815260206004820152601960248201527f446f6573206e6f74207570646174652064415049206e616d65000000000000006044820152606401610ab3565b8415612f0957612f0985613dac565b6040516391eed08560e01b815260048101879052602481018690527f00000000000000000000000000000000000000000000000000000000000000006001600160a01b0316906391eed08590604401600060405180830381600087803b158015612f7257600080fd5b505af1158015612f86573d6000803e3d6000fd5b50505050505050505050565b5b6000908152600460205260409020600201548015801590612fcd57506000818152600460205260409020600101544263ffffffff90911611155b612f9357604051819083907fe08aff0930a0c84c077d2ce7e690a3f910c0f8705376b2405816efb89b9869b790600090a360008281526005602052604090208190558061307757600354604051632412a9cb60e01b8152600481018490526001600160a01b0390911690632412a9cb906024015b600060405180830381600087803b15801561305b57600080fd5b505af115801561306f573d6000803e3d6000fd5b505050505050565b6003546001600160a01b031663d23bab148361309284611738565b6040518363ffffffff1660e01b8152600401613041929190615745565b336130c26000546001600160a01b031690565b6001600160a01b031614613104576040517f118cdaa7000000000000000000000000000000000000000000000000000000008152336004820152602401610ab3565b565b600080613115838501856157bc565b915091508160016000604051602001613151907f5369676e6564204150492055524c204d65726b6c6520726f6f740000000000008152601a0190565b60405160208183030381529060405280519060200120815260200190815260200160002060000154146131b55760405162461bcd60e51b815260206004820152600c60248201526b125b9d985b1a59081c9bdbdd60a21b6044820152606401610ab3565b61320781838989896040516020016131cf93929190615179565b60408051601f198184030181528282528051602091820120908301520160405160208183030381529060405280519060200120613f6f565b6132435760405162461bcd60e51b815260206004820152600d60248201526c24b73b30b634b210383937b7b360991b6044820152606401610ab3565b50505050505050565b600063ffffffff82111561327d576040516306dfcc6560e41b81526020600482015260248101839052604401610ab3565b5090565b6000806000806132918686613f87565b9250925092506132a18282613fd4565b5090949350505050565b886132f85760405162461bcd60e51b815260206004820152600e60248201527f64415049206e616d65207a65726f0000000000000000000000000000000000006044820152606401610ab3565b606085146133485760405162461bcd60e51b815260206004820181905260248201527f55706461746520706172616d6574657273206c656e67746820696e76616c69646044820152606401610ab3565b836000036133985760405162461bcd60e51b815260206004820152600d60248201527f4475726174696f6e207a65726f000000000000000000000000000000000000006044820152606401610ab3565b826000036133e85760405162461bcd60e51b815260206004820152600a60248201527f5072696365207a65726f000000000000000000000000000000000000000000006044820152606401610ab3565b60008080806133f9858701876157f9565b93509350935093508360016000604051602001613439907f64415049206d616e6167656d656e74204d65726b6c6520726f6f7400000000008152601b0190565b604051602081830303815290604052805190602001208152602001908152602001600020600001541461349d5760405162461bcd60e51b815260206004820152600c60248201526b125b9d985b1a59081c9bdbdd60a21b6044820152606401610ab3565b60408051602081018f90529081018d90526001600160a01b038c1660608201526134cd90849086906080016131cf565b6135095760405162461bcd60e51b815260206004820152600d60248201526c24b73b30b634b210383937b7b360991b6044820152606401610ab3565b8160016000604051602001613541907f644150492070726963696e67204d65726b6c6520726f6f740000000000000000815260180190565b60405160208183030381529060405280519060200120815260200190815260200160002060000154146135a55760405162461bcd60e51b815260206004820152600c60248201526b125b9d985b1a59081c9bdbdd60a21b6044820152606401610ab3565b6135c581838f468e8e8e8e6040516020016131cf96959493929190615875565b6136015760405162461bcd60e51b815260206004820152600d60248201526c24b73b30b634b210383937b7b360991b6044820152606401610ab3565b50505050505050505050505050565b6000806000806136228a898989613a0f565b6040519397509195509350915060009061363f908a908a90615169565b60405180910390209050600660008281526020019081526020016000208054613667906152a2565b905060000361368b576000818152600660205260409020613689898b836158f9565b505b6040805160808101825282815263ffffffff861660208201529081016136c7896136b88a62015180615501565b6136c29190615518565b6140d8565b6001600160e01b03908116825260209182018590526000888152600483526040908190208451815592840151908401519091166401000000000263ffffffff9091161760018201556060909101516002909101558261386f5760008b81526005602052604090205485146137745760405185908c907fe08aff0930a0c84c077d2ce7e690a3f910c0f8705376b2405816efb89b9869b790600090a360008b81526005602052604090208590555b6003546040517fd23bab140000000000000000000000000000000000000000000000000000000081526001600160a01b039091169063d23bab14906137c1908e908d908d906004016159b9565b600060405180830381600087803b1580156137db57600080fd5b505af11580156137ef573d6000803e3d6000fd5b50506003546040517fbe3cc74d000000000000000000000000000000000000000000000000000000008152600481018f90526001600160a01b03909116925063be3cc74d9150602401600060405180830381600087803b15801561385257600080fd5b505af1158015613866573d6000803e3d6000fd5b505050506138b9565b60008381526004602081815260408084206002018990558e8452600582528084205480855292909152909120600101544263ffffffff909116116138b7576138b78c82612f92565b505b6138c28a613dac565b897f00000000000000000000000000000000000000000000000000000000000000006001600160a01b031663472c22f18d60405160200161390591815260200190565b604051602081830303815290604052805190602001206040518263ffffffff1660e01b815260040161393991815260200190565b602060405180830381865afa158015613956573d6000803e3d6000fd5b505050506040513d601f19601f8201168201806040525081019061397a9190614d44565b14613a01576040516391eed08560e01b8152600481018c9052602481018b90527f00000000000000000000000000000000000000000000000000000000000000006001600160a01b0316906391eed08590604401600060405180830381600087803b1580156139e857600080fd5b505af11580156139fc573d6000803e3d6000fd5b505050505b505050509695505050505050565b600080600080878787604051613a26929190615169565b604051908190038120613a459291602001918252602082015260400190565b604051602081830303815290604052805190602001209350613a718542613a6c919061528f565b61324c565b925060008080613a83898b018b6159d3565b60008e81526005602052604081205493965091945092509081905b8015613c005760008181526004602052604081208054909350613ac69088908890889061410c565b60018085015491925063ffffffff90911690826002811115613aea57613aea615a0b565b1480613b0157508063ffffffff168b63ffffffff16115b613b4d5760405162461bcd60e51b815260206004820152601d60248201527f537562736372697074696f6e20646f6573206e6f7420757067726164650000006044820152606401610ab3565b6002826002811115613b6157613b61615a0b565b148015613b735750428163ffffffff16115b15613b8a578299508480613b8690615556565b9550505b6001826002811115613b9e57613b9e615a0b565b148015613bb657508063ffffffff168b63ffffffff16105b15613bf3578298505b8215613bec5784613bcf81615556565b60009485526004602052604090942060020154939550613bbf9050565b5050613c00565b5050506002810154613a9e565b507f00000000000000000000000000000000000000000000000000000000000000008210613c705760405162461bcd60e51b815260206004820152601760248201527f537562736372697074696f6e2071756575652066756c6c0000000000000000006044820152606401610ab3565b5050505050945094509450949050565b84613ccd5760405162461bcd60e51b815260206004820152600e60248201527f64415049206e616d65207a65726f0000000000000000000000000000000000006044820152606401610ab3565b600080613cdc838501856157bc565b915091508160016000604051602001613d18907f64415049206d616e6167656d656e74204d65726b6c6520726f6f7400000000008152601b0190565b6040516020818303038152906040528051906020012081526020019081526020016000206000015414613d7c5760405162461bcd60e51b815260206004820152600c60248201526b125b9d985b1a59081c9bdbdd60a21b6044820152606401610ab3565b60408051602081018990529081018790526001600160a01b038616606082015261320790829084906080016131cf565b6040516367a7cfb760e01b8152600481018290526000907f00000000000000000000000000000000000000000000000000000000000000006001600160a01b0316906367a7cfb7906024016040805180830381865afa158015613e13573d6000803e3d6000fd5b505050506040513d601f19601f82011682018060405250810190613e3791906155b3565b9150613e4e90506201518063ffffffff831661528f565b421115613e9d5760405162461bcd60e51b815260206004820152601560248201527f4461746120666565642076616c7565207374616c6500000000000000000000006044820152606401610ab3565b6003546040517f7a821819000000000000000000000000000000000000000000000000000000008152600481018490526001600160a01b0390911690637a82181990602401602060405180830381865afa158015613eff573d6000803e3d6000fd5b505050506040513d601f19601f82011682018060405250810190613f239190615a21565b610b2f5760405162461bcd60e51b815260206004820152601860248201527f446174612066656564206e6f74207265676973746572656400000000000000006044820152606401610ab3565b600082613f7c85846142c9565b1490505b9392505050565b60008060008351604103613fc15760208401516040850151606086015160001a613fb38882858561430c565b955095509550505050613fcd565b50508151600091506002905b9250925092565b6000826003811115613fe857613fe8615a0b565b03613ff1575050565b600182600381111561400557614005615a0b565b0361403c576040517ff645eedf00000000000000000000000000000000000000000000000000000000815260040160405180910390fd5b600282600381111561405057614050615a0b565b0361408a576040517ffce698f700000000000000000000000000000000000000000000000000000000815260048101829052602401610ab3565b600382600381111561409e5761409e615a0b565b03610b2f576040517fd78bce0c00000000000000000000000000000000000000000000000000000000815260048101829052602401610ab3565b60006001600160e01b0382111561327d576040516306dfcc6560e41b815260e0600482015260248101839052604401610ab3565b600081815260066020526040812080548291829182919061412c906152a2565b80601f0160208091040260200160405190810160405280929190818152602001828054614158906152a2565b80156141a55780601f1061417a576101008083540402835291602001916141a5565b820191906000526020600020905b81548152906001019060200180831161418857829003601f168201915b50505050508060200190518101906141bd9190615a3c565b92509250925081601b0b87601b0b146142185760405162461bcd60e51b815260206004820152601e60248201527f446576696174696f6e207265666572656e636573206e6f7420657175616c00006044820152606401610ab3565b828814801561422657508086145b1561423757600093505050506142c1565b8288111580156142475750808611155b1561425857600193505050506142c1565b8288101580156142685750808610155b1561427957600293505050506142c1565b60405162461bcd60e51b815260206004820152601e60248201527f55706461746520706172616d657465727320696e636f6d70617261626c6500006044820152606401610ab3565b949350505050565b600081815b8451811015614304576142fa828683815181106142ed576142ed614d7a565b60200260200101516143db565b91506001016142ce565b509392505050565b600080807f7fffffffffffffffffffffffffffffff5d576e7357a4501ddfe92f46681b20a084111561434757506000915060039050826143d1565b604080516000808252602082018084528a905260ff891692820192909252606081018790526080810186905260019060a0016020604051602081039080840390855afa15801561439b573d6000803e3d6000fd5b5050604051601f1901519150506001600160a01b0381166143c7575060009250600191508290506143d1565b9250600091508190505b9450945094915050565b60008183106143f7576000828152602084905260409020610a52565b6000838152602083905260409020610a52565b60008083601f84011261441c57600080fd5b50813567ffffffffffffffff81111561443457600080fd5b6020830191508360208260051b850101111561444f57600080fd5b9250929050565b6000806020838503121561446957600080fd5b823567ffffffffffffffff81111561448057600080fd5b61448c8582860161440a565b90969095509350505050565b6000602082840312156144aa57600080fd5b5035919050565b6001600160a01b03811681146144c657600080fd5b50565b6000602082840312156144db57600080fd5b8135613f80816144b1565b6000806000604084860312156144fb57600080fd5b83359250602084013567ffffffffffffffff81111561451957600080fd5b6145258682870161440a565b9497909650939450505050565b60008083601f84011261454457600080fd5b50813567ffffffffffffffff81111561455c57600080fd5b60208301915083602082850101111561444f57600080fd5b600080600080600080600060a0888a03121561458f57600080fd5b873561459a816144b1565b96506020880135955060408801359450606088013567ffffffffffffffff8111156145c457600080fd5b6145d08a828b01614532565b909550935050608088013567ffffffffffffffff8111156145f057600080fd5b6145fc8a828b01614532565b989b979a50959850939692959293505050565b803561461a816144b1565b919050565b60008060008060008060008060008060006101008c8e03121561464157600080fd5b8b3567ffffffffffffffff81111561465857600080fd5b6146648e828f0161440a565b909c509a505060208c0135985060408c0135975061468460608d0161460f565b965060808c013567ffffffffffffffff8111156146a057600080fd5b6146ac8e828f01614532565b90975095505060a08c0135935060c08c0135925060e08c013567ffffffffffffffff8111156146da57600080fd5b6146e68e828f01614532565b915080935050809150509295989b509295989b9093969950565b60005b8381101561471b578181015183820152602001614703565b50506000910152565b6000815180845261473c816020860160208601614700565b601f01601f19169290920160200192915050565b600082825180855260208501945060208160051b8301016020850160005b838110156147a057601f1985840301885261478a838351614724565b602098890198909350919091019060010161476e565b50909695505050505050565b6040815260006147bf6040830185614750565b90508260208301529392505050565b6000806000806000606086880312156147e657600080fd5b85356147f1816144b1565b9450602086013567ffffffffffffffff81111561480d57600080fd5b61481988828901614532565b909550935050604086013567ffffffffffffffff81111561483957600080fd5b61484588828901614532565b969995985093965092949392505050565b600081518084526020840193506020830160005b8281101561488a578151151586526020958601959091019060010161486a565b5093949350505050565b6040815260006148a76040830185614856565b82810360208401526123de8185614750565b600080602083850312156148cc57600080fd5b823567ffffffffffffffff8111156148e357600080fd5b61448c85828601614532565b602081526000610a526020830184614724565b60008060008060006080868803121561491a57600080fd5b853594506020860135935060408601359250606086013567ffffffffffffffff81111561494657600080fd5b6148458882890161440a565b6060815260006149656060830186614856565b82810360208401526149778186614750565b915050826040830152949350505050565b602081526000610a526020830184614750565b600080600080600080600080600060e08a8c0312156149b957600080fd5b8935985060208a0135975060408a01356149d2816144b1565b965060608a013567ffffffffffffffff8111156149ee57600080fd5b6149fa8c828d01614532565b90975095505060808a0135935060a08a0135925060c08a013567ffffffffffffffff811115614a2857600080fd5b614a348c828d01614532565b915080935050809150509295985092959850929598565b600080600080600060808688031215614a6357600080fd5b85359450602086013567ffffffffffffffff811115614a8157600080fd5b614a8d88828901614532565b9699909850959660408101359660609091013595509350505050565b60008060008060608587031215614abf57600080fd5b8435935060208501359250604085013567ffffffffffffffff811115614ae457600080fd5b614af087828801614532565b95989497509550505050565b600081518084526020840193506020830160005b8281101561488a578151601b0b865260209586019590910190600101614b10565b600081518084526020840193506020830160005b8281101561488a57815163ffffffff16865260209586019590910190600101614b45565b61010081526000614b7e61010083018b614724565b89601b0b602084015263ffffffff891660408401528281036060840152614ba58189614afc565b90508281036080840152614bb98188614b31565b905082810360a0840152614bcd8187614750565b905082810360c0840152614be18186614b31565b83810360e08501528451808252602080870193509091019060005b81811015614c235783516001600160e01b0316835260209384019390920191600101614bfc565b50909c9b505050505050505050505050565b60008060408385031215614c4857600080fd5b50508035926020909101359150565b60a081526000614c6a60a0830188614724565b86601b0b602084015263ffffffff861660408401528281036060840152614c918186614afc565b905082810360808401526110368185614b31565b600080600080600060808688031215614cbd57600080fd5b85359450602086013593506040860135614cd6816144b1565b9250606086013567ffffffffffffffff81111561483957600080fd5b6020815281602082015260007f07ffffffffffffffffffffffffffffffffffffffffffffffffffffffffffffff831115614d2b57600080fd5b8260051b80856040850137919091016040019392505050565b600060208284031215614d5657600080fd5b5051919050565b600060208284031215614d6f57600080fd5b8151613f80816144b1565b634e487b7160e01b600052603260045260246000fd5b634e487b7160e01b600052601160045260246000fd5b81810381811115610a5557610a55614d90565b60008184825b85811015614df0578135614dd2816144b1565b6001600160a01b031683526020928301929190910190600101614dbf565b509095945050505050565b6020808252810182905260008360408301825b85811015614e3e578235614e21816144b1565b6001600160a01b0316825260209283019290910190600101614e0e565b5095945050505050565b81835281816020850137506000828201602090810191909152601f909101601f19169091010190565b6001600160a01b038816815286602082015285604082015260a060608201526000614ea060a083018688614e48565b8281036080840152614eb3818587614e48565b9a9950505050505050505050565b6020808252810182905260006040600584901b830181019083018583601e1936839003015b87821015614f5757868503603f190184528235818112614f0557600080fd5b890160208101903567ffffffffffffffff811115614f2257600080fd5b803603821315614f3157600080fd5b614f3c878284614e48565b96505050602083019250602084019350600182019150614ee6565b5092979650505050505050565b634e487b7160e01b600052604160045260246000fd5b604051601f8201601f1916810167ffffffffffffffff81118282101715614fa357614fa3614f64565b604052919050565b600067ffffffffffffffff821115614fc557614fc5614f64565b5060051b60200190565b600067ffffffffffffffff821115614fe957614fe9614f64565b50601f01601f191660200190565b600061500a61500584614fcf565b614f7a565b905082815283838301111561501e57600080fd5b613f80836020830184614700565b600082601f83011261503d57600080fd5b610a5283835160208501614ff7565b600082601f83011261505d57600080fd5b815161506b61500582614fab565b8082825260208201915060208360051b86010192508583111561508d57600080fd5b602085015b83811015614e3e57805167ffffffffffffffff8111156150b157600080fd5b6150c0886020838a010161502c565b84525060209283019201615092565b6000602082840312156150e157600080fd5b815167ffffffffffffffff8111156150f857600080fd5b6142c18482850161504c565b60006020828403121561511657600080fd5b815167ffffffffffffffff81111561512d57600080fd5b8201601f8101841361513e57600080fd5b6142c184825160208401614ff7565b6000825161515f818460208701614700565b9190910192915050565b8183823760009101908152919050565b6001600160a01b03841681526040602082015260006123de604083018486614e48565b6000808335601e198436030181126151b357600080fd5b83018035915067ffffffffffffffff8211156151ce57600080fd5b60200191503681900382131561444f57600080fd5b6020815260006142c1602083018486614e48565b63ffffffff8281168282160390811115610a5557610a55614d90565b60006001600160e01b0382166001600160e01b0384166001600160e01b038183021692508183048114821517611f4b57611f4b614d90565b634e487b7160e01b600052601260045260246000fd5b60006001600160e01b0383168061527a5761527a61524b565b806001600160e01b0384160491505092915050565b80820180821115610a5557610a55614d90565b600181811c908216806152b657607f821691505b6020821081036152d657634e487b7160e01b600052602260045260246000fd5b50919050565b600082601f8301126152ed57600080fd5b81356152fb61500582614fcf565b81815284602083860101111561531057600080fd5b816020850160208301376000918101602001919091529392505050565b60008060006060848603121561534257600080fd5b83359250602084013567ffffffffffffffff81111561536057600080fd5b61536c868287016152dc565b925050604084013567ffffffffffffffff81111561538957600080fd5b615395868287016152dc565b9150509250925092565b8151600090829060208501835b828110156153d35781516001600160a01b03168452602093840193909101906001016153ac565b509195945050505050565b8051801515811461461a57600080fd5b6000806040838503121561540157600080fd5b825167ffffffffffffffff81111561541857600080fd5b8301601f8101851361542957600080fd5b805161543761500582614fab565b8082825260208201915060208360051b85010192508783111561545957600080fd5b6020840193505b8284101561548257615471846153de565b825260209384019390910190615460565b80955050505050602083015167ffffffffffffffff8111156154a357600080fd5b6154af8582860161504c565b9150509250929050565b8781526001600160a01b038716602082015260c0604082015260006154e260c083018789614e48565b606083019590955250608081019290925260a090910152949350505050565b8082028115828204841417610a5557610a55614d90565b6000826155275761552761524b565b500490565b84815283602082015260606040820152600061554c606083018486614e48565b9695505050505050565b60006001820161556857615568614d90565b5060010190565b60006020828403121561558157600080fd5b815167ffffffffffffffff81111561559857600080fd5b6142c18482850161502c565b80601b0b81146144c657600080fd5b600080604083850312156155c657600080fd5b82516155d1816155a4565b602084015190925063ffffffff811681146155eb57600080fd5b809150509250929050565b6000806040838503121561560957600080fd5b8251615614816144b1565b6020939093015192949293505050565b600082601f83011261563557600080fd5b815161564361500582614fab565b8082825260208201915060208360051b86010192508583111561566557600080fd5b602085015b83811015614e3e57805183526020928301920161566a565b6000806040838503121561569557600080fd5b825167ffffffffffffffff8111156156ac57600080fd5b8301601f810185136156bd57600080fd5b80516156cb61500582614fab565b8082825260208201915060208360051b8501019250878311156156ed57600080fd5b6020840193505b82841015615718578351615707816144b1565b8252602093840193909101906156f4565b80955050505050602083015167ffffffffffffffff81111561573957600080fd5b6154af85828601615624565b8281526040602082015260006142c16040830184614724565b600082601f83011261576f57600080fd5b813561577d61500582614fab565b8082825260208201915060208360051b86010192508583111561579f57600080fd5b602085015b83811015614e3e5780358352602092830192016157a4565b600080604083850312156157cf57600080fd5b82359150602083013567ffffffffffffffff8111156157ed57600080fd5b6154af8582860161575e565b6000806000806080858703121561580f57600080fd5b84359350602085013567ffffffffffffffff81111561582d57600080fd5b6158398782880161575e565b93505060408501359150606085013567ffffffffffffffff81111561585d57600080fd5b6158698782880161575e565b91505092959194509250565b86815285602082015260a06040820152600061589560a083018688614e48565b60608301949094525060800152949350505050565b601f8211156158f457806000526020600020601f840160051c810160208510156158d15750805b601f840160051c820191505b818110156158f157600081556001016158dd565b50505b505050565b67ffffffffffffffff83111561591157615911614f64565b6159258361591f83546152a2565b836158aa565b6000601f84116001811461595957600085156159415750838201355b600019600387901b1c1916600186901b1783556158f1565b600083815260209020601f19861690835b8281101561598a578685013582556020948501946001909201910161596a565b50868210156159a75760001960f88860031b161c19848701351681555b505060018560011b0183555050505050565b8381526040602082015260006123de604083018486614e48565b6000806000606084860312156159e857600080fd5b8335925060208401356159fa816155a4565b929592945050506040919091013590565b634e487b7160e01b600052602160045260246000fd5b600060208284031215615a3357600080fd5b610a52826153de565b600080600060608486031215615a5157600080fd5b83516020850151909350615a64816155a4565b604094909401519295939450919291505056fea26469706673582212201b8cf3e3f921ba8d94c9d11a75500ff4b930f86d1e5ad035d17793956ee9e95064736f6c634300081b0033",
  "devdoc": {
    "details": "The user is strongly recommended to use the API3 Market frontend while interacting with this contract, mostly because doing so successfully requires some amount of knowledge of other API3 contracts. Specifically, Api3MarketV2 requires the data feed for which the subscription is being purchased to be \"readied\", the correct Merkle proofs to be provided, and enough payment to be made. The API3 Market frontend will fetch the appropriate Merkle proofs, create a multicall transaction that will ready the data feed before making the call to buy the subscription, and compute the amount to be sent that will barely allow the subscription to be purchased. For most users, building such a transaction themselves would be impractical.",
    "errors": {
      "ECDSAInvalidSignature()": [
        {
          "details": "The signature derives the `address(0)`."
        }
      ],
      "ECDSAInvalidSignatureLength(uint256)": [
        {
          "details": "The signature has an invalid length."
        }
      ],
      "ECDSAInvalidSignatureS(bytes32)": [
        {
          "details": "The signature has an S value that is in the upper half order."
        }
      ],
      "OwnableInvalidOwner(address)": [
        {
          "details": "The owner is not a valid owner account. (eg. `address(0)`)"
        }
      ],
      "OwnableUnauthorizedAccount(address)": [
        {
          "details": "The caller account is not authorized to perform an operation."
        }
      ],
      "SafeCastOverflowedUintDowncast(uint8,uint256)": [
        {
          "details": "Value doesn't fit in an uint of `bits` size."
        }
      ]
    },
    "kind": "dev",
    "methods": {
      "buySubscription(bytes32,bytes32,address,bytes,uint256,uint256,bytes)": {
        "details": "The data feed that the dAPI name will be set to after this function is called must be readied (see `validateDataFeedReadiness()`) before calling this function. Enough funds must be sent to put the sponsor wallet balance over its expected amount after the subscription is bought. Since sponsor wallets send data feed update transactions, it is not possible to determine what their balance will be at the time sent transactions are confirmed. To avoid transactions being reverted as a result of this, consider sending some extra.",
        "params": {
          "dapiManagementAndDapiPricingMerkleData": "ABI-encoded dAPI management and dAPI pricing Merkle roots and proofs",
          "dapiName": "dAPI name",
          "dataFeedId": "Data feed ID",
          "duration": "Subscription duration",
          "price": "Subscription price",
          "sponsorWallet": "Sponsor wallet address",
          "updateParameters": "Update parameters"
        },
        "returns": {
          "subscriptionId": "Subscription ID"
        }
      },
      "cancelSubscriptions(bytes32)": {
        "details": "The root of a new dAPI pricing Merkle tree that excludes the dAPI should be registered before canceling the subscriptions. Otherwise, anyone can immediately buy the subscriptions again.",
        "params": {
          "dapiName": "dAPI name"
        }
      },
      "computeExpectedSponsorWalletBalance(bytes32)": {
        "details": "API3 estimates the transaction fee cost of subscriptions, and prices them accordingly. The subscription fees paid for a dAPI are sent to the respective sponsor wallet, which will send the update transactions. In the case that a subscription is overpriced, the extra funds are automatically rolled over as a discount to the next subscription bought for the same dAPI. In the case that a subscription is underpriced, there is a risk of the sponsor wallet running out of funds, resulting in the subscription specs to not be met. To avoid this, API3 should poll this function for all active dAPI names, check the respective sponsor wallet balances, and top up the sponsor wallets as necessary. The conditions that result in the underpricing will most likely require an updated dAPI pricing Merkle root to be published.",
        "params": {
          "dapiName": "dAPI name"
        },
        "returns": {
          "expectedSponsorWalletBalance": "Expected sponsor wallet balance"
        }
      },
      "computeExpectedSponsorWalletBalanceAfterSubscriptionIsAdded(bytes32,bytes,uint256,uint256)": {
        "details": "This function is intended to be used by the API3 Market frontend to calculate how much the user should pay to purchase a specific subscription. As mentioned in the `buySubscription()` docstring, the user should aim for the sponsor wallet balance to be slightly more than the required amount in case it sends a transaction in the meantime, whose gas cost may decrease the sponsor wallet balance unexpectedly. Unit prices of the queued subscriptions are recorded on a daily basis and the expected balance is computed from these, which introduces a rounding error in the order of Weis. This also applies in practice (in that one can buy a subscription whose price is 1 ETH at 0.999... ETH). This behavior is accepted due to its effect being negligible.",
        "params": {
          "dapiName": "dAPI name",
          "duration": "Subscription duration",
          "price": "Subscription price",
          "updateParameters": "Update parameters"
        },
        "returns": {
          "expectedSponsorWalletBalance": "Expected sponsor wallet balance"
        }
      },
      "constructor": {
        "details": "The maximum subscription queue length should be large enough to not obstruct subscription purchases under usual conditions, and small enough to keep the queue at an iterable size. For example, if the number of unique update parameters in the dAPI pricing Merkle trees that are being used is around 5, a maximum subscription queue length of 10 would be acceptable for a chain with typical gas costs.",
        "params": {
          "api3ReaderProxyV1Factory_": "Api3ReaderProxyV1Factory contract address",
          "maximumSubscriptionQueueLength_": "Maximum subscription queue length",
          "owner_": "Owner address"
        }
      },
      "containsBytecode(address)": {
        "details": "An account not containing any bytecode does not indicate that it is an EOA or it will not contain any bytecode in the future. Contract construction and `SELFDESTRUCT` updates the bytecode at the end of the transaction.",
        "returns": {
          "_0": "If the account contains bytecode"
        }
      },
      "deployApi3ReaderProxyV1(bytes32,uint256,bytes)": {
        "details": "It is recommended for the users to read data feeds through proxies deployed by Api3ReaderProxyV1Factory, rather than calling the underlying contracts directly. Even though proxy deployment is not a condition for purchasing subscriptions, the interface is implemented here to allow the user to purchase a dAPI subscription and deploy the respective proxy in the same transaction with a multicall.",
        "params": {
          "dapiName": "dAPI name",
          "dappId": "dApp ID",
          "metadata": "Metadata associated with the proxy"
        },
        "returns": {
          "api3ReaderProxyV1": "Api3ReaderProxyV1 address"
        }
      },
      "getBalance(address)": {
        "params": {
          "account": "Account address"
        },
        "returns": {
          "_0": "Account balance"
        }
      },
      "getBlockBasefee()": {
        "returns": {
          "_0": "Current block basefee"
        }
      },
      "getBlockNumber()": {
        "returns": {
          "_0": "Current block number"
        }
      },
      "getBlockTimestamp()": {
        "returns": {
          "_0": "Current block timestamp"
        }
      },
      "getChainId()": {
        "returns": {
          "_0": "Chain ID"
        }
      },
      "getDapiData(bytes32)": {
        "details": "This function is intended to be used by the API3 Market frontend to get all data related to a specific dAPI. It returns the entire subscription queue, including the items whose end timestamps are in the past.",
        "params": {
          "dapiName": "dAPI name"
        },
        "returns": {
          "beaconTimestamps": "Beacon timestamps read from Api3ServerV1",
          "beaconValues": "Beacon values read from Api3ServerV1",
          "dailyPrices": "Daily prices of the subscriptions in the queue",
          "dapiTimestamp": "dAPI timestamp read from Api3ServerV1",
          "dapiValue": "dAPI value read from Api3ServerV1",
          "dataFeedDetails": "Data feed details",
          "endTimestamps": "End timestamps of the subscriptions in the queue",
          "updateParameters": "Update parameters of the subscriptions in the queue"
        }
      },
      "getDataFeedData(bytes32)": {
        "details": "This function is intended to be used by the API3 Market frontend to determine what needs to be done to ready the data feed to purchase the respective subscription. In the case that the client wants to use this to fetch the respective Beacon readings for an unregistered data feed, they can do a static multicall where the `getDataFeedData()` call is preceded by a `registerDataFeed()` call.",
        "params": {
          "dataFeedId": "Data feed ID"
        },
        "returns": {
          "beaconTimestamps": "Beacon timestamps read from Api3ServerV1",
          "beaconValues": "Beacon values read from Api3ServerV1",
          "dataFeedDetails": "Data feed details",
          "dataFeedTimestamp": "Data feed timestamp read from Api3ServerV1",
          "dataFeedValue": "Data feed value read from Api3ServerV1"
        }
      },
      "getHashValue(bytes32)": {
        "params": {
          "hashType": "Hash type"
        },
        "returns": {
          "hashValue": "Hash value"
        }
      },
      "multicall(bytes[])": {
        "params": {
          "data": "Array of calldata of batched calls"
        },
        "returns": {
          "returndata": "Array of returndata of batched calls"
        }
      },
      "multicallAndBuySubscription(bytes[],bytes32,bytes32,address,bytes,uint256,uint256,bytes)": {
        "details": "This function is for the API3 Market frontend to call `eth_estimateGas` on a single transaction that readies a data feed and buys the respective subscription",
        "params": {
          "dapiManagementAndDapiPricingMerkleData": "ABI-encoded dAPI management and dAPI pricing Merkle roots and proofs",
          "dapiName": "dAPI name",
          "dataFeedId": "Data feed ID",
          "duration": "Subscription duration",
          "multicallData": "Array of calldata of batched calls",
          "price": "Subscription price",
          "sponsorWallet": "Sponsor wallet address",
          "updateParameters": "Update parameters"
        },
        "returns": {
          "returndata": "Array of returndata of batched calls",
          "subscriptionId": "Subscription ID"
        }
      },
      "owner()": {
        "returns": {
          "_0": "Owner address"
        }
      },
      "registerDataFeed(bytes)": {
        "params": {
          "dataFeedDetails": "Data feed details"
        },
        "returns": {
          "dataFeedId": "Data feed ID"
        }
      },
      "registerHash(bytes32,bytes32,uint256,bytes[])": {
        "params": {
          "hashTimestamp": "Hash timestamp",
          "hashType": "Hash type",
          "hashValue": "Hash value",
          "signatures": "Signatures"
        }
      },
      "setAirseekerRegistry(address)": {
        "details": "There is a circular dependency between an Api3MarketV2 and its respective AirseekerRegistry. In a previous implementation, Api3Market deployed its AirseekerRegistry in its constructor, yet the resulting deployment transaction required too much gas, which ended up being an issue on some chains. Instead, the current deployment flow is for Api3MarketV2 to be deployed with a transaction, AirseekerRegistry to be deployed with another transaction with the Api3MarketV2 address as an argument, and finally, for the Api3MarketV2 owner to set the AirseekerRegister address with a third transaction. Once the AirseekerRegister address is set, it cannot be updated.",
        "params": {
          "airseekerRegistry_": "AirseekerRegistry address"
        }
      },
      "setHash(bytes32,bytes32)": {
        "params": {
          "hashType": "Hash type",
          "hashValue": "Hash value"
        }
      },
      "setSigners(bytes32,address[])": {
        "params": {
          "hashType": "Hash type",
          "signers": "Signer addresses"
        }
      },
      "signatureDelegationHashType()": {
        "returns": {
          "_0": "Signature delegation hash type"
        }
      },
      "subscriptionIdToUpdateParameters(bytes32)": {
        "params": {
          "subscriptionId": "Subscription ID"
        },
        "returns": {
          "updateParameters": "Update parameters"
        }
      },
      "tryMulticall(bytes[])": {
        "params": {
          "data": "Array of calldata of batched calls"
        },
        "returns": {
          "returndata": "Array of returndata of batched calls",
          "successes": "Array of success conditions of batched calls"
        }
      },
      "tryMulticallAndBuySubscription(bytes[],bytes32,bytes32,address,bytes,uint256,uint256,bytes)": {
        "details": "This function is for the API3 Market frontend to send a single transaction that readies a data feed and buys the respective subscription. `tryMulticall()` is preferred in the purchase transaction because the readying calls may revert due to race conditions.",
        "params": {
          "dapiManagementAndDapiPricingMerkleData": "ABI-encoded dAPI management and dAPI pricing Merkle roots and proofs",
          "dapiName": "dAPI name",
          "dataFeedId": "Data feed ID",
          "duration": "Subscription duration",
          "price": "Subscription price",
          "sponsorWallet": "Sponsor wallet address",
          "tryMulticallData": "Array of calldata of batched calls",
          "updateParameters": "Update parameters"
        },
        "returns": {
          "returndata": "Array of returndata of batched calls",
          "subscriptionId": "Subscription ID",
          "successes": "Array of success conditions of batched calls"
        }
      },
      "updateBeaconSetWithBeacons(bytes32[])": {
        "params": {
          "beaconIds": "Beacon IDs"
        },
        "returns": {
          "beaconSetId": "Updated Beacon set ID"
        }
      },
      "updateBeaconWithSignedData(address,bytes32,uint256,bytes,bytes)": {
        "details": "The user is intended to make a multicall transaction through the API3 Market frontend to satisfy the required conditions to be able to buy a subscription and buy the subscription in a single transaction. The functions to which external calls must be made to to satisfy said conditions (such as this one) are added to this contract so that they can be multi-called by the user.",
        "params": {
          "airnode": "Airnode address",
          "data": "Update data (an `int256` encoded in contract ABI)",
          "signature": "Template ID, timestamp and the update data signed by the Airnode",
          "templateId": "Template ID",
          "timestamp": "Signature timestamp"
        },
        "returns": {
          "beaconId": "Updated Beacon ID"
        }
      },
      "updateCurrentSubscriptionId(bytes32)": {
        "details": "The fact that there is a current subscription that has ended would mean that API3 is providing a service that was not paid for. Therefore, API3 should poll this function for all active dAPI names and call it whenever it is not going to revert to downgrade the specs.",
        "params": {
          "dapiName": "dAPI name"
        }
      },
      "updateDapiName(bytes32,bytes32,address,bytes)": {
        "details": "Buying a dAPI subscription always updates the dAPI name if necessary. However, API3 may also publish new Merkle roots between subscription purchases, in which case API3 should call this function to bring the chain state up to date. Therefore, API3 should poll this function for all active dAPI names and call it whenever it will not revert. Similar to `buySubscription()`, this function requires the data feed that the dAPI will be pointed to to be readied. This function is allowed to be called even when the respective dAPI is not active, which means that a dAPI name being set does not imply that the respective data feed is in service. Users should only use dAPIs for which there is an active subscription with update parameters that satisfy their needs.",
        "params": {
          "dapiManagementMerkleData": "ABI-encoded dAPI management Merkle root and proof",
          "dapiName": "dAPI name",
          "dataFeedId": "Data feed ID",
          "sponsorWallet": "Sponsor wallet address"
        }
      },
      "updateSignedApiUrl(address,string,bytes)": {
        "details": "Unlike the dAPI management and pricing Merkle leaves, the signed API URL Merkle leaves are not registered by the users as a part of subscription purchase transactions. API3 should poll this function for all Airnodes that are used in active dAPIs and call it whenever it will not revert.",
        "params": {
          "airnode": "Airnode address",
          "signedApiUrl": "Signed API URL",
          "signedApiUrlMerkleData": "ABI-encoded signed API URL Merkle root and proof"
        }
      }
    },
    "stateVariables": {
      "DAPI_MANAGEMENT_MERKLE_ROOT_HASH_TYPE": {
        "details": "\"Hash type\" is what HashRegistry uses to address hashes used for different purposes"
      },
      "maximumSubscriptionQueueLength": {
        "details": "Some functionality in this contract requires to iterate through the entire subscription queue for a dAPI, and the queue length is limited to prevent this process from being bloated. Considering that each item in the subscription queue has unique update parameters, the length of the subscription queue is also limited by the number of unique update parameters offered in the dAPI pricing Merkle tree. For reference, at the time this contract is implemented, the API3 Market offers 4 update parameter options."
      }
    },
    "title": "The contract that API3 users interact with using the API3 Market frontend to purchase data feed subscriptions",
    "version": 1
  },
  "userdoc": {
    "kind": "user",
    "methods": {
      "DAPI_MANAGEMENT_MERKLE_ROOT_HASH_TYPE()": {
        "notice": "dAPI management Merkle root hash type"
      },
      "DAPI_PRICING_MERKLE_ROOT_HASH_TYPE()": {
        "notice": "dAPI pricing Merkle root hash type"
      },
      "MAXIMUM_DAPI_UPDATE_AGE()": {
        "notice": "Maximum dAPI update age. This contract cannot be used to set a dAPI name to a data feed that has not been updated in the last `MAXIMUM_DAPI_UPDATE_AGE`."
      },
      "SIGNED_API_URL_MERKLE_ROOT_HASH_TYPE()": {
        "notice": "Signed API URL Merkle root hash type"
      },
      "airseekerRegistry()": {
        "notice": "AirseekerRegistry contract address"
      },
      "api3ReaderProxyV1Factory()": {
        "notice": "Api3ReaderProxyV1Factory contract address"
      },
      "api3ServerV1()": {
        "notice": "Api3ServerV1 contract address"
      },
      "buySubscription(bytes32,bytes32,address,bytes,uint256,uint256,bytes)": {
        "notice": "Buys subscription and updates the current subscription ID if necessary. The user is recommended to interact with this contract over the API3 Market frontend due to its complexity."
      },
      "cancelSubscriptions(bytes32)": {
        "notice": "Called by the owner to cancel all subscriptions for a dAPI that needs to be decommissioned urgently"
      },
      "computeExpectedSponsorWalletBalance(bytes32)": {
        "notice": "Computes the expected sponsor wallet balance based on the current subscription queue"
      },
      "computeExpectedSponsorWalletBalanceAfterSubscriptionIsAdded(bytes32,bytes,uint256,uint256)": {
        "notice": "Computes the expected sponsor wallet balance after the respective subscription is added to the queue"
      },
      "containsBytecode(address)": {
        "notice": "Returns if the account contains bytecode"
      },
      "dapiNameToCurrentSubscriptionId(bytes32)": {
        "notice": "dAPI name to current subscription ID, which denotes the start of the subscription queue for the dAPI"
      },
      "deployApi3ReaderProxyV1(bytes32,uint256,bytes)": {
        "notice": "Calls Api3ReaderProxyV1Factory to deterministically deploy an Api3ReaderProxyV1"
      },
      "getBalance(address)": {
        "notice": "Returns the account balance"
      },
      "getBlockBasefee()": {
        "notice": "Returns the current block basefee"
      },
      "getBlockNumber()": {
        "notice": "Returns the current block number"
      },
      "getBlockTimestamp()": {
        "notice": "Returns the current block timestamp"
      },
      "getChainId()": {
        "notice": "Returns the chain ID"
      },
      "getDapiData(bytes32)": {
        "notice": "Gets all data about the dAPI that is available"
      },
      "getDataFeedData(bytes32)": {
        "notice": "Gets all data about the data feed that is available"
      },
      "getHashValue(bytes32)": {
        "notice": "Returns get the hash value for the type"
      },
      "hashTypeToSignersHash(bytes32)": {
        "notice": "Hash type to the hash of the array of signer addresses"
      },
      "hashes(bytes32)": {
        "notice": "Hash type to the last registered value and timestamp"
      },
      "maximumSubscriptionQueueLength()": {
        "notice": "Maximum subscription queue length for a dAPI"
      },
      "multicall(bytes[])": {
        "notice": "Batches calls to the inheriting contract and reverts as soon as one of the batched calls reverts"
      },
      "multicallAndBuySubscription(bytes[],bytes32,bytes32,address,bytes,uint256,uint256,bytes)": {
        "notice": "Multi-calls this contract, followed by a call with value to buy the subscription"
      },
      "owner()": {
        "notice": "Returns the owner address"
      },
      "registerDataFeed(bytes)": {
        "notice": "Calls AirseekerRegistry to register the data feed"
      },
      "registerHash(bytes32,bytes32,uint256,bytes[])": {
        "notice": "Registers the hash value and timestamp for the respective type. The hash value cannot be zero. The timestamp must not exceed the block timestamp, yet be larger than the timestamp of the previous registration. The signers must have been set for the hash type, and the signatures must be sorted for the respective signer addresses to be in ascending order. Each signature can either be a standalone signature by the respective signer, or a signature by the signer's delegate, encoded along with the delegation end timestamp and delegation signature."
      },
      "renounceOwnership()": {
        "notice": "Overriden to be disabled"
      },
      "setAirseekerRegistry(address)": {
        "notice": "Called once by the owner to set the AirseekerRegistry address"
      },
      "setHash(bytes32,bytes32)": {
        "notice": "Called by the owner to set a hash. Overrides previous registrations and is allowed to set the value to `bytes32(0)`."
      },
      "setSigners(bytes32,address[])": {
        "notice": "Called by the contract owner to set signers for a hash type. The signer addresses must be in ascending order."
      },
      "signatureDelegationHashType()": {
        "notice": "Returns the signature delegation hash type used in delegation signatures"
      },
      "subscriptionIdToUpdateParameters(bytes32)": {
        "notice": "Subscription ID to update parameters"
      },
      "subscriptions(bytes32)": {
        "notice": "Subscriptions indexed by their IDs"
      },
      "transferOwnership(address)": {
        "notice": "Overriden to be disabled"
      },
      "tryMulticall(bytes[])": {
        "notice": "Batches calls to the inheriting contract but does not revert if any of the batched calls reverts"
      },
      "tryMulticallAndBuySubscription(bytes[],bytes32,bytes32,address,bytes,uint256,uint256,bytes)": {
        "notice": "Multi-calls this contract in a way that the transaction does not revert if any of the batched calls reverts, followed by a call with value to buy the subscription"
      },
      "updateBeaconSetWithBeacons(bytes32[])": {
        "notice": "Calls Api3ServerV1 to update the Beacon set using the current values of its Beacons"
      },
      "updateBeaconWithSignedData(address,bytes32,uint256,bytes,bytes)": {
        "notice": "Calls Api3ServerV1 to update the Beacon using data signed by the Airnode"
      },
      "updateCurrentSubscriptionId(bytes32)": {
        "notice": "If the current subscription has ended, updates it with the one that will end next"
      },
      "updateDapiName(bytes32,bytes32,address,bytes)": {
        "notice": "Updates the dAPI name to match the respective Merkle leaf"
      },
      "updateSignedApiUrl(address,string,bytes)": {
        "notice": "Updates the signed API URL of the Airnode to match the respective Merkle leaf"
      }
    },
    "notice": "API3 streamlines and protocolizes its integration processes through the API3 Market (https://market.api3.org), which is a data feed subscription marketplace. The Api3MarketV2 contract is the on-chain portion of this system. Api3MarketV2 enables API3 to predetermine the decisions related to its data feed services (such as the curation of data feed sources or subscription prices) and publish them on-chain. This streamlines the intergation flow, as it allows the users to initiate subscriptions immediately, without requiring any two-way communication with API3. Furthermore, this removes the need for API3 to have agents operating in the meatspace gathering order details, quoting prices and reviewing payments, and allows all such operations to be cryptographically secured with a multi-party scheme in an end-to-end manner.",
    "version": 1
  },
  "storageLayout": {
    "storage": [
      {
        "astId": 13488,
        "contract": "contracts/api3-server-v1/Api3MarketV2.sol:Api3MarketV2",
        "label": "_owner",
        "offset": 0,
        "slot": "0",
        "type": "t_address"
      },
      {
        "astId": 164,
        "contract": "contracts/api3-server-v1/Api3MarketV2.sol:Api3MarketV2",
        "label": "hashes",
        "offset": 0,
        "slot": "1",
        "type": "t_mapping(t_bytes32,t_struct(Hash)157_storage)"
      },
      {
        "astId": 170,
        "contract": "contracts/api3-server-v1/Api3MarketV2.sol:Api3MarketV2",
        "label": "hashTypeToSignersHash",
        "offset": 0,
        "slot": "2",
        "type": "t_mapping(t_bytes32,t_bytes32)"
      },
      {
        "astId": 2033,
        "contract": "contracts/api3-server-v1/Api3MarketV2.sol:Api3MarketV2",
        "label": "airseekerRegistry",
        "offset": 0,
        "slot": "3",
        "type": "t_address"
      },
      {
        "astId": 2044,
        "contract": "contracts/api3-server-v1/Api3MarketV2.sol:Api3MarketV2",
        "label": "subscriptions",
        "offset": 0,
        "slot": "4",
        "type": "t_mapping(t_bytes32,t_struct(Subscription)1986_storage)"
      },
      {
        "astId": 2050,
        "contract": "contracts/api3-server-v1/Api3MarketV2.sol:Api3MarketV2",
        "label": "dapiNameToCurrentSubscriptionId",
        "offset": 0,
        "slot": "5",
        "type": "t_mapping(t_bytes32,t_bytes32)"
      },
      {
        "astId": 2054,
        "contract": "contracts/api3-server-v1/Api3MarketV2.sol:Api3MarketV2",
        "label": "updateParametersHashToValue",
        "offset": 0,
        "slot": "6",
        "type": "t_mapping(t_bytes32,t_bytes_storage)"
      }
    ],
    "types": {
      "t_address": {
        "encoding": "inplace",
        "label": "address",
        "numberOfBytes": "20"
      },
      "t_bytes32": {
        "encoding": "inplace",
        "label": "bytes32",
        "numberOfBytes": "32"
      },
      "t_bytes_storage": {
        "encoding": "bytes",
        "label": "bytes",
        "numberOfBytes": "32"
      },
      "t_mapping(t_bytes32,t_bytes32)": {
        "encoding": "mapping",
        "key": "t_bytes32",
        "label": "mapping(bytes32 => bytes32)",
        "numberOfBytes": "32",
        "value": "t_bytes32"
      },
      "t_mapping(t_bytes32,t_bytes_storage)": {
        "encoding": "mapping",
        "key": "t_bytes32",
        "label": "mapping(bytes32 => bytes)",
        "numberOfBytes": "32",
        "value": "t_bytes_storage"
      },
      "t_mapping(t_bytes32,t_struct(Hash)157_storage)": {
        "encoding": "mapping",
        "key": "t_bytes32",
        "label": "mapping(bytes32 => struct HashRegistry.Hash)",
        "numberOfBytes": "32",
        "value": "t_struct(Hash)157_storage"
      },
      "t_mapping(t_bytes32,t_struct(Subscription)1986_storage)": {
        "encoding": "mapping",
        "key": "t_bytes32",
        "label": "mapping(bytes32 => struct Api3MarketV2.Subscription)",
        "numberOfBytes": "32",
        "value": "t_struct(Subscription)1986_storage"
      },
      "t_struct(Hash)157_storage": {
        "encoding": "inplace",
        "label": "struct HashRegistry.Hash",
        "members": [
          {
            "astId": 154,
            "contract": "contracts/api3-server-v1/Api3MarketV2.sol:Api3MarketV2",
            "label": "value",
            "offset": 0,
            "slot": "0",
            "type": "t_bytes32"
          },
          {
            "astId": 156,
            "contract": "contracts/api3-server-v1/Api3MarketV2.sol:Api3MarketV2",
            "label": "timestamp",
            "offset": 0,
            "slot": "1",
            "type": "t_uint256"
          }
        ],
        "numberOfBytes": "64"
      },
      "t_struct(Subscription)1986_storage": {
        "encoding": "inplace",
        "label": "struct Api3MarketV2.Subscription",
        "members": [
          {
            "astId": 1979,
            "contract": "contracts/api3-server-v1/Api3MarketV2.sol:Api3MarketV2",
            "label": "updateParametersHash",
            "offset": 0,
            "slot": "0",
            "type": "t_bytes32"
          },
          {
            "astId": 1981,
            "contract": "contracts/api3-server-v1/Api3MarketV2.sol:Api3MarketV2",
            "label": "endTimestamp",
            "offset": 0,
            "slot": "1",
            "type": "t_uint32"
          },
          {
            "astId": 1983,
            "contract": "contracts/api3-server-v1/Api3MarketV2.sol:Api3MarketV2",
            "label": "dailyPrice",
            "offset": 4,
            "slot": "1",
            "type": "t_uint224"
          },
          {
            "astId": 1985,
            "contract": "contracts/api3-server-v1/Api3MarketV2.sol:Api3MarketV2",
            "label": "nextSubscriptionId",
            "offset": 0,
            "slot": "2",
            "type": "t_bytes32"
          }
        ],
        "numberOfBytes": "96"
      },
      "t_uint224": {
        "encoding": "inplace",
        "label": "uint224",
        "numberOfBytes": "28"
      },
      "t_uint256": {
        "encoding": "inplace",
        "label": "uint256",
        "numberOfBytes": "32"
      },
      "t_uint32": {
        "encoding": "inplace",
        "label": "uint32",
        "numberOfBytes": "4"
      }
    }
  }
}