{
  "address": "0x9EB9798Dc1b602067DFe5A57c3bfc914B965acFD",
  "abi": [
    {
      "inputs": [
        {
          "internalType": "address",
          "name": "_api3ServerV1",
          "type": "address"
        }
      ],
      "stateMutability": "nonpayable",
      "type": "constructor"
    },
    {
      "anonymous": false,
      "inputs": [
        {
          "indexed": true,
          "internalType": "address",
          "name": "proxyAddress",
          "type": "address"
        },
        {
          "indexed": true,
          "internalType": "bytes32",
          "name": "dapiName",
          "type": "bytes32"
        },
        {
          "indexed": false,
          "internalType": "bytes",
          "name": "metadata",
          "type": "bytes"
        }
      ],
      "name": "DeployedDapiProxy",
      "type": "event"
    },
    {
      "anonymous": false,
      "inputs": [
        {
          "indexed": true,
          "internalType": "address",
          "name": "proxyAddress",
          "type": "address"
        },
        {
          "indexed": true,
          "internalType": "bytes32",
          "name": "dapiName",
          "type": "bytes32"
        },
        {
          "indexed": false,
          "internalType": "address",
          "name": "oevBeneficiary",
          "type": "address"
        },
        {
          "indexed": false,
          "internalType": "bytes",
          "name": "metadata",
          "type": "bytes"
        }
      ],
      "name": "DeployedDapiProxyWithOev",
      "type": "event"
    },
    {
      "anonymous": false,
      "inputs": [
        {
          "indexed": true,
          "internalType": "address",
          "name": "proxyAddress",
          "type": "address"
        },
        {
          "indexed": true,
          "internalType": "bytes32",
          "name": "dataFeedId",
          "type": "bytes32"
        },
        {
          "indexed": false,
          "internalType": "bytes",
          "name": "metadata",
          "type": "bytes"
        }
      ],
      "name": "DeployedDataFeedProxy",
      "type": "event"
    },
    {
      "anonymous": false,
      "inputs": [
        {
          "indexed": true,
          "internalType": "address",
          "name": "proxyAddress",
          "type": "address"
        },
        {
          "indexed": true,
          "internalType": "bytes32",
          "name": "dataFeedId",
          "type": "bytes32"
        },
        {
          "indexed": false,
          "internalType": "address",
          "name": "oevBeneficiary",
          "type": "address"
        },
        {
          "indexed": false,
          "internalType": "bytes",
          "name": "metadata",
          "type": "bytes"
        }
      ],
      "name": "DeployedDataFeedProxyWithOev",
      "type": "event"
    },
    {
      "inputs": [],
      "name": "api3ServerV1",
      "outputs": [
        {
          "internalType": "address",
          "name": "",
          "type": "address"
        }
      ],
      "stateMutability": "view",
      "type": "function"
    },
    {
      "inputs": [
        {
          "internalType": "bytes32",
          "name": "dapiName",
          "type": "bytes32"
        },
        {
          "internalType": "bytes",
          "name": "metadata",
          "type": "bytes"
        }
      ],
      "name": "computeDapiProxyAddress",
      "outputs": [
        {
          "internalType": "address",
          "name": "proxyAddress",
          "type": "address"
        }
      ],
      "stateMutability": "view",
      "type": "function"
    },
    {
      "inputs": [
        {
          "internalType": "bytes32",
          "name": "dapiName",
          "type": "bytes32"
        },
        {
          "internalType": "address",
          "name": "oevBeneficiary",
          "type": "address"
        },
        {
          "internalType": "bytes",
          "name": "metadata",
          "type": "bytes"
        }
      ],
      "name": "computeDapiProxyWithOevAddress",
      "outputs": [
        {
          "internalType": "address",
          "name": "proxyAddress",
          "type": "address"
        }
      ],
      "stateMutability": "view",
      "type": "function"
    },
    {
      "inputs": [
        {
          "internalType": "bytes32",
          "name": "dataFeedId",
          "type": "bytes32"
        },
        {
          "internalType": "bytes",
          "name": "metadata",
          "type": "bytes"
        }
      ],
      "name": "computeDataFeedProxyAddress",
      "outputs": [
        {
          "internalType": "address",
          "name": "proxyAddress",
          "type": "address"
        }
      ],
      "stateMutability": "view",
      "type": "function"
    },
    {
      "inputs": [
        {
          "internalType": "bytes32",
          "name": "dataFeedId",
          "type": "bytes32"
        },
        {
          "internalType": "address",
          "name": "oevBeneficiary",
          "type": "address"
        },
        {
          "internalType": "bytes",
          "name": "metadata",
          "type": "bytes"
        }
      ],
      "name": "computeDataFeedProxyWithOevAddress",
      "outputs": [
        {
          "internalType": "address",
          "name": "proxyAddress",
          "type": "address"
        }
      ],
      "stateMutability": "view",
      "type": "function"
    },
    {
      "inputs": [
        {
          "internalType": "bytes32",
          "name": "dapiName",
          "type": "bytes32"
        },
        {
          "internalType": "bytes",
          "name": "metadata",
          "type": "bytes"
        }
      ],
      "name": "deployDapiProxy",
      "outputs": [
        {
          "internalType": "address",
          "name": "proxyAddress",
          "type": "address"
        }
      ],
      "stateMutability": "nonpayable",
      "type": "function"
    },
    {
      "inputs": [
        {
          "internalType": "bytes32",
          "name": "dapiName",
          "type": "bytes32"
        },
        {
          "internalType": "address",
          "name": "oevBeneficiary",
          "type": "address"
        },
        {
          "internalType": "bytes",
          "name": "metadata",
          "type": "bytes"
        }
      ],
      "name": "deployDapiProxyWithOev",
      "outputs": [
        {
          "internalType": "address",
          "name": "proxyAddress",
          "type": "address"
        }
      ],
      "stateMutability": "nonpayable",
      "type": "function"
    },
    {
      "inputs": [
        {
          "internalType": "bytes32",
          "name": "dataFeedId",
          "type": "bytes32"
        },
        {
          "internalType": "bytes",
          "name": "metadata",
          "type": "bytes"
        }
      ],
      "name": "deployDataFeedProxy",
      "outputs": [
        {
          "internalType": "address",
          "name": "proxyAddress",
          "type": "address"
        }
      ],
      "stateMutability": "nonpayable",
      "type": "function"
    },
    {
      "inputs": [
        {
          "internalType": "bytes32",
          "name": "dataFeedId",
          "type": "bytes32"
        },
        {
          "internalType": "address",
          "name": "oevBeneficiary",
          "type": "address"
        },
        {
          "internalType": "bytes",
          "name": "metadata",
          "type": "bytes"
        }
      ],
      "name": "deployDataFeedProxyWithOev",
      "outputs": [
        {
          "internalType": "address",
          "name": "proxyAddress",
          "type": "address"
        }
      ],
      "stateMutability": "nonpayable",
      "type": "function"
    }
  ],
  "transactionHash": "0x33877e5340ae74a39c990f60b6bfef167f2d663a22be75d5dd5cb23426bdfd31",
  "args": [
    "0x709944a48cAf83535e43471680fDA4905FB3920a"
  ],
  "numDeployments": 1,
  "solcInputHash": "244b8e05fc2166c1983c7be433cf9254",
  "bytecode": "0x60a060405234801561001057600080fd5b50604051611ae1380380611ae183398101604081905261002f9161009a565b6001600160a01b0381166100895760405162461bcd60e51b815260206004820152601960248201527f4170693353657276657256312061646472657373207a65726f00000000000000604482015260640160405180910390fd5b6001600160a01b03166080526100ca565b6000602082840312156100ac57600080fd5b81516001600160a01b03811681146100c357600080fd5b9392505050565b6080516119c561011c6000396000818160ad0152818161020b0152818161032901528181610501015281816105a4015281816106fd01528181610805015281816109a60152610a7d01526119c56000f3fe608060405234801561001057600080fd5b50600436106100a35760003560e01c80637dba7458116100765780639ae06c841161005b5780639ae06c841461014a578063d67564bd1461015d578063da1b7d0f1461017057600080fd5b80637dba7458146101245780638dae1a471461013757600080fd5b80632d6a744e146100a857806350763e84146100eb5780635849e5ef146100fe5780636c9d6c0914610111575b600080fd5b6100cf7f000000000000000000000000000000000000000000000000000000000000000081565b6040516001600160a01b03909116815260200160405180910390f35b6100cf6100f9366004610b72565b610183565b6100cf61010c366004610bbe565b610282565b6100cf61011f366004610bbe565b61040f565b6100cf610132366004610b72565b610547565b6100cf610145366004610bbe565b610653565b6100cf610158366004610b72565b6107ab565b6100cf61016b366004610bbe565b6108cd565b6100cf61017e366004610b72565b6109e1565b6000836101cb5760405162461bcd60e51b8152602060048201526011602482015270446174612066656564204944207a65726f60781b60448201526064015b60405180910390fd5b61027a83836040516101de929190610c26565b604051908190038120906101f460208201610af5565b601f1982820381018352601f9091011660408181527f00000000000000000000000000000000000000000000000000000000000000006001600160a01b0316602083015281018890526060015b60408051601f198184030181529082905261025f9291602001610c66565b60405160208183030381529060405280519060200120610ab7565b949350505050565b6000846102c25760405162461bcd60e51b815260206004820152600e60248201526d64415049206e616d65207a65726f60901b60448201526064016101c2565b6001600160a01b03841661030f5760405162461bcd60e51b81526020600482015260146024820152734f45562062656e6566696369617279207a65726f60601b60448201526064016101c2565b828260405161031f929190610c26565b60405180910390207f00000000000000000000000000000000000000000000000000000000000000008660405160200161035b91815260200190565b604051602081830303815290604052805190602001208660405161037e90610b02565b6001600160a01b039384168152602081019290925290911660408201526060018190604051809103906000f59050801580156103be573d6000803e3d6000fd5b50905084816001600160a01b03167f31d654553da13df7303eb8db83942ff8816845087d3149515a220f5afb37aedd8686866040516103ff93929190610ca4565b60405180910390a3949350505050565b60008461044f5760405162461bcd60e51b815260206004820152600e60248201526d64415049206e616d65207a65726f60901b60448201526064016101c2565b6001600160a01b03841661049c5760405162461bcd60e51b81526020600482015260146024820152734f45562062656e6566696369617279207a65726f60601b60448201526064016101c2565b61053e83836040516104af929190610c26565b604051908190038120906104c560208201610b02565b818103601f199081018352601f90910116604081815260208083018b905281518084038201815282840190925281519101206001600160a01b037f0000000000000000000000000000000000000000000000000000000000000000811660608401526080830191909152881660a082015260c001610241565b95945050505050565b60008361058a5760405162461bcd60e51b8152602060048201526011602482015270446174612066656564204944207a65726f60781b60448201526064016101c2565b828260405161059a929190610c26565b60405180910390207f0000000000000000000000000000000000000000000000000000000000000000856040516105d090610af5565b6001600160a01b03909216825260208201526040018190604051809103906000f5905080158015610605573d6000803e3d6000fd5b50905083816001600160a01b03167f9a2a9d77287e93a2addaf0c5f3e354d075dfb475f5e197f9abc9b11b922fa9438585604051610644929190610cc7565b60405180910390a39392505050565b6000846106965760405162461bcd60e51b8152602060048201526011602482015270446174612066656564204944207a65726f60781b60448201526064016101c2565b6001600160a01b0384166106e35760405162461bcd60e51b81526020600482015260146024820152734f45562062656e6566696369617279207a65726f60601b60448201526064016101c2565b82826040516106f3929190610c26565b60405180910390207f0000000000000000000000000000000000000000000000000000000000000000868660405161072a90610b0f565b6001600160a01b039384168152602081019290925290911660408201526060018190604051809103906000f590508015801561076a573d6000803e3d6000fd5b50905084816001600160a01b03167fff915717e95cf852fef69474bc2bfb3c26ccc15a6978a90ab0a78bc565644d4e8686866040516103ff93929190610ca4565b6000836107eb5760405162461bcd60e51b815260206004820152600e60248201526d64415049206e616d65207a65726f60901b60448201526064016101c2565b82826040516107fb929190610c26565b60405180910390207f00000000000000000000000000000000000000000000000000000000000000008560405160200161083791815260200190565b6040516020818303038152906040528051906020012060405161085990610b1c565b6001600160a01b03909216825260208201526040018190604051809103906000f590508015801561088e573d6000803e3d6000fd5b50905083816001600160a01b03167f5212a04ae578b0432469e3d61a28f222c00cf2f5e14d69b0f08c7d327b623d1d8585604051610644929190610cc7565b6000846109105760405162461bcd60e51b8152602060048201526011602482015270446174612066656564204944207a65726f60781b60448201526064016101c2565b6001600160a01b03841661095d5760405162461bcd60e51b81526020600482015260146024820152734f45562062656e6566696369617279207a65726f60601b60448201526064016101c2565b61053e8383604051610970929190610c26565b6040519081900381209061098660208201610b0f565b818103601f199081018352601f9091011660408181526001600160a01b037f0000000000000000000000000000000000000000000000000000000000000000811660208401529082018a905288166060820152608001610241565b600083610a215760405162461bcd60e51b815260206004820152600e60248201526d64415049206e616d65207a65726f60901b60448201526064016101c2565b61027a8383604051610a34929190610c26565b60405190819003812090610a4a60208201610b1c565b601f1982820381018352601f90910116604081815260208083018a905281518084038201815282840190925281519101207f00000000000000000000000000000000000000000000000000000000000000006001600160a01b03166060830152608082015260a001610241565b6000610ac4838330610acb565b9392505050565b6000604051836040820152846020820152828152600b8101905060ff815360559020949350505050565b6102fd80610cdc83390190565b61035d80610fd983390190565b61035d8061133683390190565b6102fd8061169383390190565b60008083601f840112610b3b57600080fd5b50813567ffffffffffffffff811115610b5357600080fd5b602083019150836020828501011115610b6b57600080fd5b9250929050565b600080600060408486031215610b8757600080fd5b83359250602084013567ffffffffffffffff811115610ba557600080fd5b610bb186828701610b29565b9497909650939450505050565b60008060008060608587031215610bd457600080fd5b8435935060208501356001600160a01b0381168114610bf257600080fd5b9250604085013567ffffffffffffffff811115610c0e57600080fd5b610c1a87828801610b29565b95989497509550505050565b8183823760009101908152919050565b6000815160005b81811015610c575760208185018101518683015201610c3d565b50600093019283525090919050565b600061027a610c758386610c36565b84610c36565b81835281816020850137506000828201602090810191909152601f909101601f19169091010190565b6001600160a01b038416815260406020820152600061053e604083018486610c7b565b60208152600061027a602083018486610c7b56fe60c060405234801561001057600080fd5b506040516102fd3803806102fd83398101604081905261002f91610045565b6001600160a01b0390911660805260a05261007f565b6000806040838503121561005857600080fd5b82516001600160a01b038116811461006f57600080fd5b6020939093015192949293505050565b60805160a05161024d6100b060003960008181609c015261011b015260008181604b015261015b015261024d6000f3fe608060405234801561001057600080fd5b50600436106100415760003560e01c80632d6a744e14610046578063370c826b1461009757806357de26a4146100cc575b600080fd5b61006d7f000000000000000000000000000000000000000000000000000000000000000081565b60405173ffffffffffffffffffffffffffffffffffffffff90911681526020015b60405180910390f35b6100be7f000000000000000000000000000000000000000000000000000000000000000081565b60405190815260200161008e565b6100d46100f3565b60408051601b9390930b835263ffffffff90911660208301520161008e565b6040517fa5fc076f0000000000000000000000000000000000000000000000000000000081527f00000000000000000000000000000000000000000000000000000000000000006004820152600090819073ffffffffffffffffffffffffffffffffffffffff7f0000000000000000000000000000000000000000000000000000000000000000169063a5fc076f906024016040805180830381865afa1580156101a1573d6000803e3d6000fd5b505050506040513d601f19601f820116820180604052508101906101c591906101ce565b90939092509050565b600080604083850312156101e157600080fd5b825180601b0b81146101f257600080fd5b602084015190925063ffffffff8116811461020c57600080fd5b80915050925092905056fea26469706673582212204c00c55f37d9d93afc24a97a86b86c67275c3e6f0288edd31c678400d06b4dcc64736f6c6343000811003360e060405234801561001057600080fd5b5060405161035d38038061035d83398101604081905261002f91610068565b6001600160a01b0392831660805260a0919091521660c0526100a4565b80516001600160a01b038116811461006357600080fd5b919050565b60008060006060848603121561007d57600080fd5b6100868461004c565b92506020840151915061009b6040850161004c565b90509250925092565b60805160a05160c05161027f6100de6000396000605601526000818160f5015261014d01526000818160a7015261018d015261027f6000f3fe608060405234801561001057600080fd5b506004361061004c5760003560e01c80630e15999d146100515780632d6a744e146100a257806357de26a4146100c9578063dcf8da92146100f0575b600080fd5b6100787f000000000000000000000000000000000000000000000000000000000000000081565b60405173ffffffffffffffffffffffffffffffffffffffff90911681526020015b60405180910390f35b6100787f000000000000000000000000000000000000000000000000000000000000000081565b6100d1610125565b60408051601b9390930b835263ffffffff909116602083015201610099565b6101177f000000000000000000000000000000000000000000000000000000000000000081565b604051908152602001610099565b6040517f32be8f0b0000000000000000000000000000000000000000000000000000000081527f00000000000000000000000000000000000000000000000000000000000000006004820152600090819073ffffffffffffffffffffffffffffffffffffffff7f000000000000000000000000000000000000000000000000000000000000000016906332be8f0b906024016040805180830381865afa1580156101d3573d6000803e3d6000fd5b505050506040513d601f19601f820116820180604052508101906101f79190610200565b90939092509050565b6000806040838503121561021357600080fd5b825180601b0b811461022457600080fd5b602084015190925063ffffffff8116811461023e57600080fd5b80915050925092905056fea2646970667358221220165f090121acbfb6f16face0e037df12b601e08d2e0fd3fd3f5e021e053308ce64736f6c6343000811003360e060405234801561001057600080fd5b5060405161035d38038061035d83398101604081905261002f91610068565b6001600160a01b0392831660805260a0919091521660c0526100a4565b80516001600160a01b038116811461006357600080fd5b919050565b60008060006060848603121561007d57600080fd5b6100868461004c565b92506020840151915061009b6040850161004c565b90509250925092565b60805160a05160c05161027f6100de6000396000605601526000818160ce015261014d01526000818160a7015261018d015261027f6000f3fe608060405234801561001057600080fd5b506004361061004c5760003560e01c80630e15999d146100515780632d6a744e146100a2578063370c826b146100c957806357de26a4146100fe575b600080fd5b6100787f000000000000000000000000000000000000000000000000000000000000000081565b60405173ffffffffffffffffffffffffffffffffffffffff90911681526020015b60405180910390f35b6100787f000000000000000000000000000000000000000000000000000000000000000081565b6100f07f000000000000000000000000000000000000000000000000000000000000000081565b604051908152602001610099565b610106610125565b60408051601b9390930b835263ffffffff909116602083015201610099565b6040517fcfaf49710000000000000000000000000000000000000000000000000000000081527f00000000000000000000000000000000000000000000000000000000000000006004820152600090819073ffffffffffffffffffffffffffffffffffffffff7f0000000000000000000000000000000000000000000000000000000000000000169063cfaf4971906024016040805180830381865afa1580156101d3573d6000803e3d6000fd5b505050506040513d601f19601f820116820180604052508101906101f79190610200565b90939092509050565b6000806040838503121561021357600080fd5b825180601b0b811461022457600080fd5b602084015190925063ffffffff8116811461023e57600080fd5b80915050925092905056fea2646970667358221220491c4b81100c410951a4eacc896ef33bf2f2865d87768147c4ca7217d63d79c864736f6c6343000811003360c060405234801561001057600080fd5b506040516102fd3803806102fd83398101604081905261002f91610045565b6001600160a01b0390911660805260a05261007f565b6000806040838503121561005857600080fd5b82516001600160a01b038116811461006f57600080fd5b6020939093015192949293505050565b60805160a05161024d6100b06000396000818160c3015261011b015260008181604b015261015b015261024d6000f3fe608060405234801561001057600080fd5b50600436106100415760003560e01c80632d6a744e1461004657806357de26a414610097578063dcf8da92146100be575b600080fd5b61006d7f000000000000000000000000000000000000000000000000000000000000000081565b60405173ffffffffffffffffffffffffffffffffffffffff90911681526020015b60405180910390f35b61009f6100f3565b60408051601b9390930b835263ffffffff90911660208301520161008e565b6100e57f000000000000000000000000000000000000000000000000000000000000000081565b60405190815260200161008e565b6040517fb62408a30000000000000000000000000000000000000000000000000000000081527f00000000000000000000000000000000000000000000000000000000000000006004820152600090819073ffffffffffffffffffffffffffffffffffffffff7f0000000000000000000000000000000000000000000000000000000000000000169063b62408a3906024016040805180830381865afa1580156101a1573d6000803e3d6000fd5b505050506040513d601f19601f820116820180604052508101906101c591906101ce565b90939092509050565b600080604083850312156101e157600080fd5b825180601b0b81146101f257600080fd5b602084015190925063ffffffff8116811461020c57600080fd5b80915050925092905056fea26469706673582212201d061d50f160b049953a990ae61794869544bc65e5a0d25812e444c431cb90f964736f6c63430008110033a2646970667358221220c65d86e8fe1882ee9717fe8fadf286e2319482a7213942b09ed85c68e3cb244164736f6c63430008110033",
  "devdoc": {
    "details": "The proxies are deployed normally and not cloned to minimize the gas cost overhead while using them to read data feed values",
    "kind": "dev",
    "methods": {
      "computeDapiProxyAddress(bytes32,bytes)": {
        "params": {
          "dapiName": "dAPI name",
          "metadata": "Metadata associated with the proxy"
        },
        "returns": {
          "proxyAddress": "Proxy address"
        }
      },
      "computeDapiProxyWithOevAddress(bytes32,address,bytes)": {
        "params": {
          "dapiName": "dAPI name",
          "metadata": "Metadata associated with the proxy",
          "oevBeneficiary": "OEV beneficiary"
        },
        "returns": {
          "proxyAddress": "Proxy address"
        }
      },
      "computeDataFeedProxyAddress(bytes32,bytes)": {
        "params": {
          "dataFeedId": "Data feed ID",
          "metadata": "Metadata associated with the proxy"
        },
        "returns": {
          "proxyAddress": "Proxy address"
        }
      },
      "computeDataFeedProxyWithOevAddress(bytes32,address,bytes)": {
        "params": {
          "dataFeedId": "Data feed ID",
          "metadata": "Metadata associated with the proxy",
          "oevBeneficiary": "OEV beneficiary"
        },
        "returns": {
          "proxyAddress": "Proxy address"
        }
      },
      "constructor": {
        "params": {
          "_api3ServerV1": "Api3ServerV1 address"
        }
      },
      "deployDapiProxy(bytes32,bytes)": {
        "params": {
          "dapiName": "dAPI name",
          "metadata": "Metadata associated with the proxy"
        },
        "returns": {
          "proxyAddress": "Proxy address"
        }
      },
      "deployDapiProxyWithOev(bytes32,address,bytes)": {
        "params": {
          "dapiName": "dAPI name",
          "metadata": "Metadata associated with the proxy",
          "oevBeneficiary": "OEV beneficiary"
        },
        "returns": {
          "proxyAddress": "Proxy address"
        }
      },
      "deployDataFeedProxy(bytes32,bytes)": {
        "params": {
          "dataFeedId": "Data feed ID",
          "metadata": "Metadata associated with the proxy"
        },
        "returns": {
          "proxyAddress": "Proxy address"
        }
      },
      "deployDataFeedProxyWithOev(bytes32,address,bytes)": {
        "params": {
          "dataFeedId": "Data feed ID",
          "metadata": "Metadata associated with the proxy",
          "oevBeneficiary": "OEV beneficiary"
        },
        "returns": {
          "proxyAddress": "Proxy address"
        }
      }
    },
    "title": "Contract factory that deterministically deploys proxies that read data feeds (Beacons or Beacon sets) or dAPIs, along with optional OEV support",
    "version": 1
  },
  "userdoc": {
    "kind": "user",
    "methods": {
      "api3ServerV1()": {
        "notice": "Api3ServerV1 address"
      },
      "computeDapiProxyAddress(bytes32,bytes)": {
        "notice": "Computes the address of the dAPI proxy"
      },
      "computeDapiProxyWithOevAddress(bytes32,address,bytes)": {
        "notice": "Computes the address of the dAPI proxy with OEV support"
      },
      "computeDataFeedProxyAddress(bytes32,bytes)": {
        "notice": "Computes the address of the data feed proxy"
      },
      "computeDataFeedProxyWithOevAddress(bytes32,address,bytes)": {
        "notice": "Computes the address of the data feed proxy with OEV support"
      },
      "deployDapiProxy(bytes32,bytes)": {
        "notice": "Deterministically deploys a dAPI proxy"
      },
      "deployDapiProxyWithOev(bytes32,address,bytes)": {
        "notice": "Deterministically deploys a dAPI proxy with OEV support"
      },
      "deployDataFeedProxy(bytes32,bytes)": {
        "notice": "Deterministically deploys a data feed proxy"
      },
      "deployDataFeedProxyWithOev(bytes32,address,bytes)": {
        "notice": "Deterministically deploys a data feed proxy with OEV support"
      }
    },
    "version": 1
  },
  "storageLayout": {
    "storage": [],
    "types": null
  }
}