{
  "address": "0x709944a48cAf83535e43471680fDA4905FB3920a",
  "abi": [
    {
      "inputs": [
        {
          "internalType": "address",
          "name": "_accessControlRegistry",
          "type": "address"
        },
        {
          "internalType": "string",
          "name": "_adminRoleDescription",
          "type": "string"
        },
        {
          "internalType": "address",
          "name": "_manager",
          "type": "address"
        }
      ],
      "stateMutability": "nonpayable",
      "type": "constructor"
    },
    {
      "anonymous": false,
      "inputs": [
        {
          "indexed": true,
          "internalType": "bytes32",
          "name": "dataFeedId",
          "type": "bytes32"
        },
        {
          "indexed": true,
          "internalType": "bytes32",
          "name": "dapiName",
          "type": "bytes32"
        },
        {
          "indexed": false,
          "internalType": "address",
          "name": "sender",
          "type": "address"
        }
      ],
      "name": "SetDapiName",
      "type": "event"
    },
    {
      "anonymous": false,
      "inputs": [
        {
          "indexed": true,
          "internalType": "bytes32",
          "name": "beaconSetId",
          "type": "bytes32"
        },
        {
          "indexed": false,
          "internalType": "int224",
          "name": "value",
          "type": "int224"
        },
        {
          "indexed": false,
          "internalType": "uint32",
          "name": "timestamp",
          "type": "uint32"
        }
      ],
      "name": "UpdatedBeaconSetWithBeacons",
      "type": "event"
    },
    {
      "anonymous": false,
      "inputs": [
        {
          "indexed": true,
          "internalType": "bytes32",
          "name": "beaconId",
          "type": "bytes32"
        },
        {
          "indexed": false,
          "internalType": "int224",
          "name": "value",
          "type": "int224"
        },
        {
          "indexed": false,
          "internalType": "uint32",
          "name": "timestamp",
          "type": "uint32"
        }
      ],
      "name": "UpdatedBeaconWithSignedData",
      "type": "event"
    },
    {
      "anonymous": false,
      "inputs": [
        {
          "indexed": true,
          "internalType": "bytes32",
          "name": "beaconSetId",
          "type": "bytes32"
        },
        {
          "indexed": true,
          "internalType": "address",
          "name": "proxy",
          "type": "address"
        },
        {
          "indexed": true,
          "internalType": "bytes32",
          "name": "updateId",
          "type": "bytes32"
        },
        {
          "indexed": false,
          "internalType": "int224",
          "name": "value",
          "type": "int224"
        },
        {
          "indexed": false,
          "internalType": "uint32",
          "name": "timestamp",
          "type": "uint32"
        }
      ],
      "name": "UpdatedOevProxyBeaconSetWithSignedData",
      "type": "event"
    },
    {
      "anonymous": false,
      "inputs": [
        {
          "indexed": true,
          "internalType": "bytes32",
          "name": "beaconId",
          "type": "bytes32"
        },
        {
          "indexed": true,
          "internalType": "address",
          "name": "proxy",
          "type": "address"
        },
        {
          "indexed": true,
          "internalType": "bytes32",
          "name": "updateId",
          "type": "bytes32"
        },
        {
          "indexed": false,
          "internalType": "int224",
          "name": "value",
          "type": "int224"
        },
        {
          "indexed": false,
          "internalType": "uint32",
          "name": "timestamp",
          "type": "uint32"
        }
      ],
      "name": "UpdatedOevProxyBeaconWithSignedData",
      "type": "event"
    },
    {
      "anonymous": false,
      "inputs": [
        {
          "indexed": true,
          "internalType": "address",
          "name": "oevProxy",
          "type": "address"
        },
        {
          "indexed": false,
          "internalType": "address",
          "name": "oevBeneficiary",
          "type": "address"
        },
        {
          "indexed": false,
          "internalType": "uint256",
          "name": "amount",
          "type": "uint256"
        }
      ],
      "name": "Withdrew",
      "type": "event"
    },
    {
      "inputs": [],
      "name": "DAPI_NAME_SETTER_ROLE_DESCRIPTION",
      "outputs": [
        {
          "internalType": "string",
          "name": "",
          "type": "string"
        }
      ],
      "stateMutability": "view",
      "type": "function"
    },
    {
      "inputs": [],
      "name": "accessControlRegistry",
      "outputs": [
        {
          "internalType": "address",
          "name": "",
          "type": "address"
        }
      ],
      "stateMutability": "view",
      "type": "function"
    },
    {
      "inputs": [],
      "name": "adminRole",
      "outputs": [
        {
          "internalType": "bytes32",
          "name": "",
          "type": "bytes32"
        }
      ],
      "stateMutability": "view",
      "type": "function"
    },
    {
      "inputs": [],
      "name": "adminRoleDescription",
      "outputs": [
        {
          "internalType": "string",
          "name": "",
          "type": "string"
        }
      ],
      "stateMutability": "view",
      "type": "function"
    },
    {
      "inputs": [
        {
          "internalType": "address",
          "name": "account",
          "type": "address"
        }
      ],
      "name": "containsBytecode",
      "outputs": [
        {
          "internalType": "bool",
          "name": "",
          "type": "bool"
        }
      ],
      "stateMutability": "view",
      "type": "function"
    },
    {
      "inputs": [
        {
          "internalType": "bytes32",
          "name": "",
          "type": "bytes32"
        }
      ],
      "name": "dapiNameHashToDataFeedId",
      "outputs": [
        {
          "internalType": "bytes32",
          "name": "",
          "type": "bytes32"
        }
      ],
      "stateMutability": "view",
      "type": "function"
    },
    {
      "inputs": [],
      "name": "dapiNameSetterRole",
      "outputs": [
        {
          "internalType": "bytes32",
          "name": "",
          "type": "bytes32"
        }
      ],
      "stateMutability": "view",
      "type": "function"
    },
    {
      "inputs": [
        {
          "internalType": "bytes32",
          "name": "dapiName",
          "type": "bytes32"
        }
      ],
      "name": "dapiNameToDataFeedId",
      "outputs": [
        {
          "internalType": "bytes32",
          "name": "",
          "type": "bytes32"
        }
      ],
      "stateMutability": "view",
      "type": "function"
    },
    {
      "inputs": [
        {
          "internalType": "bytes32",
          "name": "dataFeedId",
          "type": "bytes32"
        }
      ],
      "name": "dataFeeds",
      "outputs": [
        {
          "internalType": "int224",
          "name": "value",
          "type": "int224"
        },
        {
          "internalType": "uint32",
          "name": "timestamp",
          "type": "uint32"
        }
      ],
      "stateMutability": "view",
      "type": "function"
    },
    {
      "inputs": [
        {
          "internalType": "address",
          "name": "account",
          "type": "address"
        }
      ],
      "name": "getBalance",
      "outputs": [
        {
          "internalType": "uint256",
          "name": "",
          "type": "uint256"
        }
      ],
      "stateMutability": "view",
      "type": "function"
    },
    {
      "inputs": [],
      "name": "getBlockBasefee",
      "outputs": [
        {
          "internalType": "uint256",
          "name": "",
          "type": "uint256"
        }
      ],
      "stateMutability": "view",
      "type": "function"
    },
    {
      "inputs": [],
      "name": "getBlockNumber",
      "outputs": [
        {
          "internalType": "uint256",
          "name": "",
          "type": "uint256"
        }
      ],
      "stateMutability": "view",
      "type": "function"
    },
    {
      "inputs": [],
      "name": "getBlockTimestamp",
      "outputs": [
        {
          "internalType": "uint256",
          "name": "",
          "type": "uint256"
        }
      ],
      "stateMutability": "view",
      "type": "function"
    },
    {
      "inputs": [],
      "name": "getChainId",
      "outputs": [
        {
          "internalType": "uint256",
          "name": "",
          "type": "uint256"
        }
      ],
      "stateMutability": "view",
      "type": "function"
    },
    {
      "inputs": [],
      "name": "manager",
      "outputs": [
        {
          "internalType": "address",
          "name": "",
          "type": "address"
        }
      ],
      "stateMutability": "view",
      "type": "function"
    },
    {
      "inputs": [
        {
          "internalType": "bytes[]",
          "name": "data",
          "type": "bytes[]"
        }
      ],
      "name": "multicall",
      "outputs": [
        {
          "internalType": "bytes[]",
          "name": "returndata",
          "type": "bytes[]"
        }
      ],
      "stateMutability": "nonpayable",
      "type": "function"
    },
    {
      "inputs": [
        {
          "internalType": "address",
          "name": "",
          "type": "address"
        }
      ],
      "name": "oevProxyToBalance",
      "outputs": [
        {
          "internalType": "uint256",
          "name": "",
          "type": "uint256"
        }
      ],
      "stateMutability": "view",
      "type": "function"
    },
    {
      "inputs": [
        {
          "internalType": "address",
          "name": "proxy",
          "type": "address"
        },
        {
          "internalType": "bytes32",
          "name": "dataFeedId",
          "type": "bytes32"
        }
      ],
      "name": "oevProxyToIdToDataFeed",
      "outputs": [
        {
          "internalType": "int224",
          "name": "value",
          "type": "int224"
        },
        {
          "internalType": "uint32",
          "name": "timestamp",
          "type": "uint32"
        }
      ],
      "stateMutability": "view",
      "type": "function"
    },
    {
      "inputs": [
        {
          "internalType": "bytes32",
          "name": "dapiNameHash",
          "type": "bytes32"
        }
      ],
      "name": "readDataFeedWithDapiNameHash",
      "outputs": [
        {
          "internalType": "int224",
          "name": "value",
          "type": "int224"
        },
        {
          "internalType": "uint32",
          "name": "timestamp",
          "type": "uint32"
        }
      ],
      "stateMutability": "view",
      "type": "function"
    },
    {
      "inputs": [
        {
          "internalType": "bytes32",
          "name": "dapiNameHash",
          "type": "bytes32"
        }
      ],
      "name": "readDataFeedWithDapiNameHashAsOevProxy",
      "outputs": [
        {
          "internalType": "int224",
          "name": "value",
          "type": "int224"
        },
        {
          "internalType": "uint32",
          "name": "timestamp",
          "type": "uint32"
        }
      ],
      "stateMutability": "view",
      "type": "function"
    },
    {
      "inputs": [
        {
          "internalType": "bytes32",
          "name": "dataFeedId",
          "type": "bytes32"
        }
      ],
      "name": "readDataFeedWithId",
      "outputs": [
        {
          "internalType": "int224",
          "name": "value",
          "type": "int224"
        },
        {
          "internalType": "uint32",
          "name": "timestamp",
          "type": "uint32"
        }
      ],
      "stateMutability": "view",
      "type": "function"
    },
    {
      "inputs": [
        {
          "internalType": "bytes32",
          "name": "dataFeedId",
          "type": "bytes32"
        }
      ],
      "name": "readDataFeedWithIdAsOevProxy",
      "outputs": [
        {
          "internalType": "int224",
          "name": "value",
          "type": "int224"
        },
        {
          "internalType": "uint32",
          "name": "timestamp",
          "type": "uint32"
        }
      ],
      "stateMutability": "view",
      "type": "function"
    },
    {
      "inputs": [
        {
          "internalType": "bytes32",
          "name": "dapiName",
          "type": "bytes32"
        },
        {
          "internalType": "bytes32",
          "name": "dataFeedId",
          "type": "bytes32"
        }
      ],
      "name": "setDapiName",
      "outputs": [],
      "stateMutability": "nonpayable",
      "type": "function"
    },
    {
      "inputs": [
        {
          "internalType": "bytes[]",
          "name": "data",
          "type": "bytes[]"
        }
      ],
      "name": "tryMulticall",
      "outputs": [
        {
          "internalType": "bool[]",
          "name": "successes",
          "type": "bool[]"
        },
        {
          "internalType": "bytes[]",
          "name": "returndata",
          "type": "bytes[]"
        }
      ],
      "stateMutability": "nonpayable",
      "type": "function"
    },
    {
      "inputs": [
        {
          "internalType": "bytes32[]",
          "name": "beaconIds",
          "type": "bytes32[]"
        }
      ],
      "name": "updateBeaconSetWithBeacons",
      "outputs": [
        {
          "internalType": "bytes32",
          "name": "beaconSetId",
          "type": "bytes32"
        }
      ],
      "stateMutability": "nonpayable",
      "type": "function"
    },
    {
      "inputs": [
        {
          "internalType": "address",
          "name": "airnode",
          "type": "address"
        },
        {
          "internalType": "bytes32",
          "name": "templateId",
          "type": "bytes32"
        },
        {
          "internalType": "uint256",
          "name": "timestamp",
          "type": "uint256"
        },
        {
          "internalType": "bytes",
          "name": "data",
          "type": "bytes"
        },
        {
          "internalType": "bytes",
          "name": "signature",
          "type": "bytes"
        }
      ],
      "name": "updateBeaconWithSignedData",
      "outputs": [
        {
          "internalType": "bytes32",
          "name": "beaconId",
          "type": "bytes32"
        }
      ],
      "stateMutability": "nonpayable",
      "type": "function"
    },
    {
      "inputs": [
        {
          "internalType": "address",
          "name": "oevProxy",
          "type": "address"
        },
        {
          "internalType": "bytes32",
          "name": "dataFeedId",
          "type": "bytes32"
        },
        {
          "internalType": "bytes32",
          "name": "updateId",
          "type": "bytes32"
        },
        {
          "internalType": "uint256",
          "name": "timestamp",
          "type": "uint256"
        },
        {
          "internalType": "bytes",
          "name": "data",
          "type": "bytes"
        },
        {
          "internalType": "bytes[]",
          "name": "packedOevUpdateSignatures",
          "type": "bytes[]"
        }
      ],
      "name": "updateOevProxyDataFeedWithSignedData",
      "outputs": [],
      "stateMutability": "payable",
      "type": "function"
    },
    {
      "inputs": [
        {
          "internalType": "address",
          "name": "oevProxy",
          "type": "address"
        }
      ],
      "name": "withdraw",
      "outputs": [],
      "stateMutability": "nonpayable",
      "type": "function"
    }
  ],
  "transactionHash": "0x090f6750d5a00dbea1ecf1013d99aa341971df006555452651b36ec6716f6ddc",
  "args": [
    "0xcD7Df573B0F0bb4F2f8dFFF6650cDe8C77431730",
    "Api3ServerV1 admin",
    "0x81bc85f329cDB28936FbB239f734AE495121F9A6"
  ],
  "numDeployments": 1,
  "solcInputHash": "69404b24fc871d37136875d5dfb0242e",
  "bytecode": "0x6101206040523480156200001257600080fd5b50604051620039a2380380620039a283398101604081905262000035916200033a565b82828282828282828282826001600160a01b0382166200008f5760405162461bcd60e51b815260206004820152601060248201526f4143522061646472657373207a65726f60801b60448201526064015b60405180910390fd5b6000815111620000e25760405162461bcd60e51b815260206004820152601c60248201527f41646d696e20726f6c65206465736372697074696f6e20656d70747900000000604482015260640162000086565b6001600160a01b0382166080526000620000fd8282620004a9565b508060405160200162000111919062000575565b60408051601f19818403018152919052805160209091012060a05250506001600160a01b038116620001865760405162461bcd60e51b815260206004820152601460248201527f4d616e616765722061646472657373207a65726f000000000000000000000000604482015260640162000086565b6001600160a01b03811660c0526200019e81620001f8565b60e052505060c051620001e49150620001b790620001f8565b60408051808201909152601081526f3220a824903730b6b29039b2ba3a32b960811b602082015262000272565b610100525062000593975050505050505050565b60006200026c6200023d836040516001600160601b0319606083901b166020820152600090603401604051602081830303815290604052805190602001209050919050565b60a051604080516020808201949094528082019290925280518083038201815260609092019052805191012090565b92915050565b6000620002ae83836040516020016200028c919062000575565b60405160208183030381529060405280519060200120620002b560201b60201c565b9392505050565b604080516020808201949094528082019290925280518083038201815260609092019052805191012090565b80516001600160a01b0381168114620002f957600080fd5b919050565b634e487b7160e01b600052604160045260246000fd5b60005b838110156200033157818101518382015260200162000317565b50506000910152565b6000806000606084860312156200035057600080fd5b6200035b84620002e1565b60208501519093506001600160401b03808211156200037957600080fd5b818601915086601f8301126200038e57600080fd5b815181811115620003a357620003a3620002fe565b604051601f8201601f19908116603f01168101908382118183101715620003ce57620003ce620002fe565b81604052828152896020848701011115620003e857600080fd5b620003fb83602083016020880162000314565b80965050505050506200041160408501620002e1565b90509250925092565b600181811c908216806200042f57607f821691505b6020821081036200045057634e487b7160e01b600052602260045260246000fd5b50919050565b601f821115620004a457600081815260208120601f850160051c810160208610156200047f5750805b601f850160051c820191505b81811015620004a0578281556001016200048b565b5050505b505050565b81516001600160401b03811115620004c557620004c5620002fe565b620004dd81620004d684546200041a565b8462000456565b602080601f831160018114620005155760008415620004fc5750858301515b600019600386901b1c1916600185901b178555620004a0565b600085815260208120601f198616915b82811015620005465788860151825594840194600190910190840162000525565b5085821015620005655787850151600019600388901b60f8161c191681555b5050505050600190811b01905550565b600082516200058981846020870162000314565b9190910192915050565b60805160a05160c05160e051610100516133b8620005ea600039600081816104650152610e31015260006101cc01526000818161035f0152610de2015260005050600081816102530152610e5d01526133b86000f3fe6080604052600436106101b55760003560e01c806367a7cfb7116100ec578063ac9650d81161008a578063e6ec76ac11610064578063e6ec76ac14610594578063f83ea108146105a7578063f8b2cb4f146105fe578063fce90be81461062657600080fd5b8063ac9650d814610527578063b62408a314610554578063cfaf49711461057457600080fd5b80638e6ddc27116100c65780638e6ddc271461049a5780638fca9ab9146104c757806391eed085146104e7578063a5fc076f1461050757600080fd5b806367a7cfb7146104125780637512449b14610453578063796b89b91461048757600080fd5b8063437b9116116101595780634c8f1d8d116101335780634c8f1d8d146103815780634dcc19fe146103a357806351cff8d9146103b65780635989eaeb146103d857600080fd5b8063437b9116146102f2578063472c22f114610320578063481c6a751461034d57600080fd5b80631ce9ae07116101955780631ce9ae071461024157806332be8f0b1461028d5780633408e470146102cc57806342cbb15c146102df57600080fd5b80629f2f3c146101ba578062aae33f146102015780631a0a0b3e14610221575b600080fd5b3480156101c657600080fd5b506101ee7f000000000000000000000000000000000000000000000000000000000000000081565b6040519081526020015b60405180910390f35b34801561020d57600080fd5b506101ee61021c366004612c34565b61066f565b34801561022d57600080fd5b506101ee61023c366004612d31565b61079c565b34801561024d57600080fd5b506102757f000000000000000000000000000000000000000000000000000000000000000081565b6040516001600160a01b0390911681526020016101f8565b34801561029957600080fd5b506102ad6102a8366004612dc7565b610915565b60408051601b9390930b835263ffffffff9091166020830152016101f8565b3480156102d857600080fd5b50466101ee565b3480156102eb57600080fd5b50436101ee565b3480156102fe57600080fd5b5061031261030d366004612e25565b61092a565b6040516101f8929190612ef6565b34801561032c57600080fd5b506101ee61033b366004612dc7565b60046020526000908152604090205481565b34801561035957600080fd5b506102757f000000000000000000000000000000000000000000000000000000000000000081565b34801561038d57600080fd5b50610396610a90565b6040516101f89190612f4f565b3480156103af57600080fd5b50486101ee565b3480156103c257600080fd5b506103d66103d1366004612f62565b610b1e565b005b3480156103e457600080fd5b506104026103f3366004612f62565b6001600160a01b03163b151590565b60405190151581526020016101f8565b34801561041e57600080fd5b506102ad61042d366004612dc7565b600090815260016020526040902054601b81900b91600160e01b90910463ffffffff1690565b34801561045f57600080fd5b506101ee7f000000000000000000000000000000000000000000000000000000000000000081565b34801561049357600080fd5b50426101ee565b3480156104a657600080fd5b506101ee6104b5366004612f62565b60036020526000908152604090205481565b3480156104d357600080fd5b506101ee6104e2366004612dc7565b610d45565b3480156104f357600080fd5b506103d6610502366004612f7f565b610d8a565b34801561051357600080fd5b506102ad610522366004612dc7565b610f96565b34801561053357600080fd5b50610547610542366004612e25565b610fa2565b6040516101f89190612fa1565b34801561056057600080fd5b506102ad61056f366004612dc7565b611123565b34801561058057600080fd5b506102ad61058f366004612dc7565b61112f565b6103d66105a2366004612fb4565b61113b565b3480156105b357600080fd5b506102ad6105c2366004613053565b6001600160a01b039190911660009081526002602090815260408083209383529290522054601b81900b91600160e01b90910463ffffffff1690565b34801561060a57600080fd5b506101ee610619366004612f62565b6001600160a01b03163190565b34801561063257600080fd5b506103966040518060400160405280601081526020017f64415049206e616d65207365747465720000000000000000000000000000000081525081565b600080600061067d846116c2565b9150915061068a84611864565b600081815260016020526040902080549194509063ffffffff808416600160e01b9092041603610710578054601b84810b91900b036107105760405162461bcd60e51b815260206004820152601a60248201527f446f6573206e6f742075706461746520426561636f6e2073657400000000000060448201526064015b60405180910390fd5b604080518082018252601b85900b80825263ffffffff858116602080850182815260008b81526001835287902095519051909316600160e01b026001600160e01b0390931692909217909355835191825281019190915285917fb7712be6248d021e8c56ac9613c09491354a4d0f4ad0b7db1a664b35be4b2349910160405180910390a2505050919050565b6000876001600160a01b031661081d84848080601f0160208091040260200160405190810160405280939291908181526020018383808284376000920191909152505060405161081792506107fc91508c908c908c908c9060200161307f565b60405160208183030381529060405280519060200120611894565b906118cf565b6001600160a01b0316146108735760405162461bcd60e51b815260206004820152601260248201527f5369676e6174757265206d69736d6174636800000000000000000000000000006044820152606401610707565b50604080516bffffffffffffffffffffffff1960608a901b1660208083019190915260348083018a9052835180840390910181526054909201909252805191012060006108c2828888886118f5565b60408051601b83900b815263ffffffff8a16602082015291925083917f1ffdb573afe7273932e253bc4b8a17b9da4d37d7219ba05e464358975b36efb7910160405180910390a250979650505050505050565b60008061092183611a4a565b91509150915091565b606080828067ffffffffffffffff81111561094757610947612bed565b604051908082528060200260200182016040528015610970578160200160208202803683370190505b5092508067ffffffffffffffff81111561098c5761098c612bed565b6040519080825280602002602001820160405280156109bf57816020015b60608152602001906001900390816109aa5790505b50915060005b81811015610a8757308686838181106109e0576109e06130a0565b90506020028101906109f291906130b6565b604051610a009291906130fd565b600060405180830381855af49150503d8060008114610a3b576040519150601f19603f3d011682016040523d82523d6000602084013e610a40565b606091505b50858381518110610a5357610a536130a0565b60200260200101858481518110610a6c57610a6c6130a0565b602090810291909101019190915290151590526001016109c5565b50509250929050565b60008054610a9d9061310d565b80601f0160208091040260200160405190810160405280929190818152602001828054610ac99061310d565b8015610b165780601f10610aeb57610100808354040283529160200191610b16565b820191906000526020600020905b815481529060010190602001808311610af957829003601f168201915b505050505081565b6000816001600160a01b0316630e15999d6040518163ffffffff1660e01b8152600401602060405180830381865afa158015610b5e573d6000803e3d6000fd5b505050506040513d601f19601f82011682018060405250810190610b829190613141565b90506001600160a01b038116610bda5760405162461bcd60e51b815260206004820152601860248201527f42656e65666963696172792061646472657373207a65726f00000000000000006044820152606401610707565b6001600160a01b03821660009081526003602052604081205490819003610c435760405162461bcd60e51b815260206004820152601660248201527f4f45562070726f78792062616c616e6365207a65726f000000000000000000006044820152606401610707565b6001600160a01b0383811660008181526003602090815260408083209290925581519386168452830184905290917f0472be967f9a37138dfea1875af44784cafb79f92044ab33d7d6958eddd9ca6c910160405180910390a26000826001600160a01b03168260405160006040518083038185875af1925050503d8060008114610ce9576040519150601f19603f3d011682016040523d82523d6000602084013e610cee565b606091505b5050905080610d3f5760405162461bcd60e51b815260206004820152601360248201527f5769746864726177616c207265766572746564000000000000000000000000006044820152606401610707565b50505050565b60006004600083604051602001610d5e91815260200190565b604051602081830303815290604052805190602001208152602001908152602001600020549050919050565b81610dd75760405162461bcd60e51b815260206004820152600e60248201527f64415049206e616d65207a65726f0000000000000000000000000000000000006044820152606401610707565b336001600160a01b037f0000000000000000000000000000000000000000000000000000000000000000161480610ed057506040517f91d148540000000000000000000000000000000000000000000000000000000081527f000000000000000000000000000000000000000000000000000000000000000060048201523360248201527f00000000000000000000000000000000000000000000000000000000000000006001600160a01b0316906391d1485490604401602060405180830381865afa158015610eac573d6000803e3d6000fd5b505050506040513d601f19601f82011682018060405250810190610ed0919061315e565b610f1c5760405162461bcd60e51b815260206004820152601b60248201527f53656e6465722063616e6e6f74207365742064415049206e616d6500000000006044820152606401610707565b806004600084604051602001610f3491815260200190565b60408051601f1981840301815291815281516020928301208352828201939093529082016000209290925551338152839183917ff3a9aac9b6ac0f842cb5d9b3491cd5fc1b6a6778d97fd9529f587339865294f5910160405180910390a35050565b60008061092183611b7d565b6060818067ffffffffffffffff811115610fbe57610fbe612bed565b604051908082528060200260200182016040528015610ff157816020015b6060815260200190600190039081610fdc5790505b50915060005b8181101561111b57600030868684818110611014576110146130a0565b905060200281019061102691906130b6565b6040516110349291906130fd565b600060405180830381855af49150503d806000811461106f576040519150601f19603f3d011682016040523d82523d6000602084013e611074565b606091505b50858481518110611087576110876130a0565b60209081029190910101529050806111125760008483815181106110ad576110ad6130a0565b602002602001015190506000815111156110ca5780518082602001fd5b60405162461bcd60e51b815260206004820152601b60248201527f4d756c746963616c6c3a204e6f2072657665727420737472696e6700000000006044820152606401610707565b50600101610ff7565b505092915050565b60008061092183611bf5565b60008061092183611ccd565b8442610e1001811061118f5760405162461bcd60e51b815260206004820152601360248201527f54696d657374616d70206e6f742076616c6964000000000000000000000000006044820152606401610707565b6001600160a01b03891660009081526002602090815260408083208b8452909152902054600160e01b900463ffffffff16861161120e5760405162461bcd60e51b815260206004820152601960248201527f446f6573206e6f74207570646174652074696d657374616d70000000000000006044820152606401610707565b600046308b8b8b8b8b8b33346040516020016112339a99989796959493929190613180565b604051602081830303815290604052805190602001209050600061128c87878080601f016020809104026020016040519081016040528093929190818152602001838380828437600092019190915250611d9f92505050565b9050878460018111156114615760008167ffffffffffffffff8111156112b4576112b4612bed565b6040519080825280602002602001820160405280156112dd578160200160208202803683370190505b5090506000805b8381101561135057600061131b888c8c85818110611304576113046130a0565b905060200281019061131691906130b6565b611ea2565b85848151811061132d5761132d6130a0565b602090810291909101015290508015611347576001909201915b506001016112e4565b5061135c6002846131ff565b81116113aa5760405162461bcd60e51b815260206004820152601560248201527f4e6f7420656e6f756768207369676e61747572657300000000000000000000006044820152606401610707565b6113b382611864565b8e146114015760405162461bcd60e51b815260206004820152601660248201527f426561636f6e20736574204944206d69736d61746368000000000000000000006044820152606401610707565b8c8f6001600160a01b03168f7fdd29860e0772a39dea2ff0520d79f8efdffe48c903d6bbbc0c2cc65dc6568a7f8888604051611452929190601b9290920b825263ffffffff16602082015260400190565b60405180910390a450506115cb565b8060010361158357600080611483868a8a6000818110611304576113046130a0565b91509150816114d45760405162461bcd60e51b815260206004820152601160248201527f4d697373696e67207369676e61747572650000000000000000000000000000006044820152606401610707565b808e146115235760405162461bcd60e51b815260206004820152601260248201527f426561636f6e204944206d69736d6174636800000000000000000000000000006044820152606401610707565b50508a8d6001600160a01b03168d7fc856aaa4e639403f366ad68f07eb69bad4c044a35b0369c4ef1ea3a427a6a0ee8686604051611576929190601b9290920b825263ffffffff16602082015260400190565b60405180910390a46115cb565b60405162461bcd60e51b815260206004820152601b60248201527f446964206e6f74207370656369667920616e7920426561636f6e7300000000006044820152606401610707565b604051806040016040528084601b0b81526020018363ffffffff16815250600260008f6001600160a01b03166001600160a01b0316815260200190815260200160002060008e815260200190815260200160002060008201518160000160006101000a8154816001600160e01b030219169083601b0b6001600160e01b03160217905550602082015181600001601c6101000a81548163ffffffff021916908363ffffffff16021790555090505034600360008f6001600160a01b03166001600160a01b0316815260200190815260200160002060008282546116ae9190613213565b909155505050505050505050505050505050565b80516000908190600181116117195760405162461bcd60e51b815260206004820152601f60248201527f537065636966696564206c657373207468616e2074776f20426561636f6e73006044820152606401610707565b60008167ffffffffffffffff81111561173457611734612bed565b60405190808252806020026020018201604052801561175d578160200160208202803683370190505b50905060008267ffffffffffffffff81111561177b5761177b612bed565b6040519080825280602002602001820160405280156117a4578160200160208202803683370190505b50905060005b83811015611845576000600160008984815181106117ca576117ca6130a0565b602090810291909101810151825281019190915260400160002080548551919250601b0b90859084908110611801576118016130a0565b602090810291909101015280548351600160e01b90910463ffffffff1690849084908110611831576118316130a0565b6020908102919091010152506001016117aa565b5061184f82611fa4565b945061185a81611fa4565b9350505050915091565b6000816040516020016118779190613234565b604051602081830303815290604052805190602001209050919050565b6040517f19457468657265756d205369676e6564204d6573736167653a0a3332000000006020820152603c8101829052600090605c01611877565b60008060006118de85856120fd565b915091506118eb81612142565b5090505b92915050565b60008342610e1001811061194b5760405162461bcd60e51b815260206004820152601360248201527f54696d657374616d70206e6f742076616c6964000000000000000000000000006044820152606401610707565b61198a84848080601f016020809104026020016040519081016040528093929190818152602001838380828437600092019190915250611d9f92505050565b600087815260016020526040902054909250600160e01b900463ffffffff1685116119f75760405162461bcd60e51b815260206004820152601960248201527f446f6573206e6f74207570646174652074696d657374616d70000000000000006044820152606401610707565b50604080518082018252601b83900b815263ffffffff95861660208083019182526000988952600190529190962095519051909416600160e01b026001600160e01b039094169390931790935550919050565b600081815260046020526040812054819080611aa85760405162461bcd60e51b815260206004820152601160248201527f64415049206e616d65206e6f74207365740000000000000000000000000000006044820152606401610707565b336000908152600260209081526040808320848452825280832060019092529091208054825463ffffffff600160e01b92839004811692909104161115611b06578154601b81900b9550600160e01b900463ffffffff169350611b1f565b8054601b81900b9550600160e01b900463ffffffff1693505b60008463ffffffff1611611b755760405162461bcd60e51b815260206004820152601960248201527f446174612066656564206e6f7420696e697469616c697a6564000000000000006044820152606401610707565b505050915091565b60008181526001602052604090208054601b81900b91600160e01b90910463ffffffff169081611bef5760405162461bcd60e51b815260206004820152601960248201527f446174612066656564206e6f7420696e697469616c697a6564000000000000006044820152606401610707565b50915091565b600081815260046020526040812054819080611c535760405162461bcd60e51b815260206004820152601160248201527f64415049206e616d65206e6f74207365740000000000000000000000000000006044820152606401610707565b60008181526001602052604090208054601b81900b9450600160e01b900463ffffffff16925082611cc65760405162461bcd60e51b815260206004820152601960248201527f446174612066656564206e6f7420696e697469616c697a6564000000000000006044820152606401610707565b5050915091565b336000908152600260209081526040808320848452825280832060019092528220805482548493929163ffffffff600160e01b918290048116919092049091161115611d30578154601b81900b9450600160e01b900463ffffffff169250611d49565b8054601b81900b9450600160e01b900463ffffffff1692505b60008363ffffffff1611611cc65760405162461bcd60e51b815260206004820152601960248201527f446174612066656564206e6f7420696e697469616c697a6564000000000000006044820152606401610707565b60008151602014611df25760405162461bcd60e51b815260206004820152601760248201527f44617461206c656e677468206e6f7420636f72726563740000000000000000006044820152606401610707565b600082806020019051810190611e089190613278565b90507fffffffff800000000000000000000000000000000000000000000000000000008112801590611e5657507b7fffffffffffffffffffffffffffffffffffffffffffffffffffffff8113155b6118ef5760405162461bcd60e51b815260206004820152601760248201527f56616c7565207479706563617374696e67206572726f720000000000000000006044820152606401610707565b600080808080611eb486880188613291565b925092509250611f0683836040516bffffffffffffffffffffffff19606084901b1660208201526034810182905260009060540160405160208183030381529060405280519060200120905092915050565b93508051600014611f9957826001600160a01b0316611f3e826108178b866040516020016107fc929190918252602082015260400190565b6001600160a01b031614611f945760405162461bcd60e51b815260206004820152601260248201527f5369676e6174757265206d69736d6174636800000000000000000000000000006044820152606401610707565b600194505b505050935093915050565b80516000906009811161207d57611fba836122aa565b611fc5600282613342565b600103611ff85782611fd86002836131ff565b81518110611fe857611fe86130a0565b6020026020010151915050919050565b8060000361200857612008613356565b612076836001600284040381518110612023576120236130a0565b6020026020010151846002848161203c5761203c6131e9565b048151811061204d5761204d6130a0565b6020026020010151600182811d82821d01838316919091160160ff81901c838318160192915050565b9392505050565b612088600282613342565b6001036120a45782611fd88161209f6002856131ff565b6127bc565b6000806120b785600160028604036127e9565b80925081935050506120ee8583815181106120d4576120d46130a0565b602002602001015186838151811061204d5761204d6130a0565b95945050505050565b50919050565b60008082516041036121335760208301516040840151606085015160001a6121278782858561281e565b9450945050505061213b565b506000905060025b9250929050565b60008160048111156121565761215661336c565b0361215e5750565b60018160048111156121725761217261336c565b036121bf5760405162461bcd60e51b815260206004820152601860248201527f45434453413a20696e76616c6964207369676e617475726500000000000000006044820152606401610707565b60028160048111156121d3576121d361336c565b036122205760405162461bcd60e51b815260206004820152601f60248201527f45434453413a20696e76616c6964207369676e6174757265206c656e677468006044820152606401610707565b60038160048111156122345761223461336c565b036122a75760405162461bcd60e51b815260206004820152602260248201527f45434453413a20696e76616c6964207369676e6174757265202773272076616c60448201527f75650000000000000000000000000000000000000000000000000000000000006064820152608401610707565b50565b805160098111156122fd5760405162461bcd60e51b815260206004820152601660248201527f417272617920746f6f206c6f6e6720746f20736f7274000000000000000000006044820152606401610707565b600681101561240857600481101561235757806003036123425761232482600060016128e2565b61233182600160026128e2565b61233e82600060016128e2565b5050565b8060020361233e5761233e82600060016128e2565b806005036123d45761236c82600160026128e2565b61237982600360046128e2565b61238682600160036128e2565b61239382600060026128e2565b6123a082600260046128e2565b6123ad82600060036128e2565b6123ba82600060016128e2565b6123c782600260036128e2565b61233e82600160026128e2565b6123e182600060016128e2565b6123ee82600260036128e2565b6123fb82600160036128e2565b6123c782600060026128e2565b600881101561258557806007036124e95761242682600160026128e2565b61243382600360046128e2565b61244082600560066128e2565b61244d82600060026128e2565b61245a82600460066128e2565b61246782600360056128e2565b61247482600260066128e2565b61248182600160056128e2565b61248e82600060046128e2565b61249b82600260056128e2565b6124a882600060036128e2565b6124b582600260046128e2565b6124c282600160036128e2565b6124cf82600060016128e2565b6124dc82600260036128e2565b61233e82600460056128e2565b6124f682600060016128e2565b61250382600260036128e2565b61251082600460056128e2565b61251d82600160036128e2565b61252a82600360056128e2565b61253782600160036128e2565b61254482600260046128e2565b61255182600060026128e2565b61255e82600260046128e2565b61256b82600360046128e2565b61257882600160026128e2565b61233e82600260036128e2565b806009036126b85761259a82600160086128e2565b6125a782600260076128e2565b6125b482600360066128e2565b6125c182600460056128e2565b6125ce82600160046128e2565b6125db82600560086128e2565b6125e882600060026128e2565b6125f582600660076128e2565b61260282600260066128e2565b61260f82600760086128e2565b61261c82600060036128e2565b61262982600460056128e2565b61263682600060016128e2565b61264382600360056128e2565b61265082600660076128e2565b61265d82600260046128e2565b61266a82600160036128e2565b61267782600560076128e2565b61268482600460066128e2565b61269182600160026128e2565b61269e82600360046128e2565b6126ab82600560066128e2565b6124cf82600760086128e2565b6126c582600060076128e2565b6126d282600160066128e2565b6126df82600260056128e2565b6126ec82600360046128e2565b6126f982600060036128e2565b61270682600460076128e2565b61271382600160026128e2565b61272082600560066128e2565b61272d82600060016128e2565b61273a82600260036128e2565b61274782600460056128e2565b61275482600660076128e2565b61276182600360056128e2565b61276e82600260046128e2565b61277b82600160026128e2565b61278882600360046128e2565b61279582600560066128e2565b6127a282600260036128e2565b6127af82600460056128e2565b61233e82600360046128e2565b8151600090806127ce576127ce613356565b6127e084600060018403866000612990565b50949350505050565b815160009081906001811161280057612800613356565b61281285600060018403876001612990565b90969095509350505050565b6000807f7fffffffffffffffffffffffffffffff5d576e7357a4501ddfe92f46681b20a083111561285557506000905060036128d9565b6040805160008082526020820180845289905260ff881692820192909252606081018690526080810185905260019060a0016020604051602081039080840390855afa1580156128a9573d6000803e3d6000fd5b5050604051601f1901519150506001600160a01b0381166128d2576000600192509250506128d9565b9150600090505b94509492505050565b8281815181106128f4576128f46130a0565b602002602001015183838151811061290e5761290e6130a0565b6020026020010151131561298b5782818151811061292e5761292e6130a0565b6020026020010151838381518110612948576129486130a0565b6020026020010151848481518110612962576129626130a0565b6020026020010185848151811061297b5761297b6130a0565b6020908102919091010191909152525b505050565b6000808486036129a557508290506000612a5c565b60006129b2888888612a66565b9050808510156129d5576129cd888860018403886000612990565b5092506129f2565b808511156129ee576129cd888260010188886000612990565b8092505b8315612a5a57875160018401925060028401905b80821015612a5757898481518110612a2057612a206130a0565b60200260200101518a8381518110612a3a57612a3a6130a0565b60200260200101511215612a4c578193505b600190910190612a06565b50505b505b9550959350505050565b6000818303612a76575081612076565b6000848481518110612a8a57612a8a6130a0565b6020026020010151905060008490508360010192505b855160019091019081108015612ace575081868281518110612ac457612ac46130a0565b6020026020010151125b612aa0575b82806001900393505081868481518110612aef57612aef6130a0565b602002602001015113612ad357828110612b7a57858381518110612b1557612b156130a0565b6020026020010151868681518110612b2f57612b2f6130a0565b6020026020010151878781518110612b4957612b496130a0565b60200260200101888681518110612b6257612b626130a0565b60200260200101828152508281525050505050612076565b858381518110612b8c57612b8c6130a0565b6020026020010151868281518110612ba657612ba66130a0565b6020026020010151878381518110612bc057612bc06130a0565b60200260200101888681518110612bd957612bd96130a0565b602090810291909101019190915252612aa0565b634e487b7160e01b600052604160045260246000fd5b604051601f8201601f1916810167ffffffffffffffff81118282101715612c2c57612c2c612bed565b604052919050565b60006020808385031215612c4757600080fd5b823567ffffffffffffffff80821115612c5f57600080fd5b818501915085601f830112612c7357600080fd5b813581811115612c8557612c85612bed565b8060051b9150612c96848301612c03565b8181529183018401918481019088841115612cb057600080fd5b938501935b83851015612cce57843582529385019390850190612cb5565b98975050505050505050565b6001600160a01b03811681146122a757600080fd5b60008083601f840112612d0157600080fd5b50813567ffffffffffffffff811115612d1957600080fd5b60208301915083602082850101111561213b57600080fd5b600080600080600080600060a0888a031215612d4c57600080fd5b8735612d5781612cda565b96506020880135955060408801359450606088013567ffffffffffffffff80821115612d8257600080fd5b612d8e8b838c01612cef565b909650945060808a0135915080821115612da757600080fd5b50612db48a828b01612cef565b989b979a50959850939692959293505050565b600060208284031215612dd957600080fd5b5035919050565b60008083601f840112612df257600080fd5b50813567ffffffffffffffff811115612e0a57600080fd5b6020830191508360208260051b850101111561213b57600080fd5b60008060208385031215612e3857600080fd5b823567ffffffffffffffff811115612e4f57600080fd5b61281285828601612de0565b6000815180845260005b81811015612e8157602081850181015186830182015201612e65565b506000602082860101526020601f19601f83011685010191505092915050565b600081518084526020808501808196508360051b8101915082860160005b85811015612ee9578284038952612ed7848351612e5b565b98850198935090840190600101612ebf565b5091979650505050505050565b604080825283519082018190526000906020906060840190828701845b82811015612f31578151151584529284019290840190600101612f13565b50505083810382850152612f458186612ea1565b9695505050505050565b6020815260006120766020830184612e5b565b600060208284031215612f7457600080fd5b813561207681612cda565b60008060408385031215612f9257600080fd5b50508035926020909101359150565b6020815260006120766020830184612ea1565b60008060008060008060008060c0898b031215612fd057600080fd5b8835612fdb81612cda565b9750602089013596506040890135955060608901359450608089013567ffffffffffffffff8082111561300d57600080fd5b6130198c838d01612cef565b909650945060a08b013591508082111561303257600080fd5b5061303f8b828c01612de0565b999c989b5096995094979396929594505050565b6000806040838503121561306657600080fd5b823561307181612cda565b946020939093013593505050565b84815283602082015281836040830137600091016040019081529392505050565b634e487b7160e01b600052603260045260246000fd5b6000808335601e198436030181126130cd57600080fd5b83018035915067ffffffffffffffff8211156130e857600080fd5b60200191503681900382131561213b57600080fd5b8183823760009101908152919050565b600181811c9082168061312157607f821691505b6020821081036120f757634e487b7160e01b600052602260045260246000fd5b60006020828403121561315357600080fd5b815161207681612cda565b60006020828403121561317057600080fd5b8151801515811461207657600080fd5b8a815260006bffffffffffffffffffffffff19808c60601b166020840152808b60601b166034840152896048840152886068840152876088840152858760a885013760609490941b909316930160a881019390935260bc8301525060dc01979650505050505050565b634e487b7160e01b600052601260045260246000fd5b60008261320e5761320e6131e9565b500490565b808201808211156118ef57634e487b7160e01b600052601160045260246000fd5b6020808252825182820181905260009190848201906040850190845b8181101561326c57835183529284019291840191600101613250565b50909695505050505050565b60006020828403121561328a57600080fd5b5051919050565b6000806000606084860312156132a657600080fd5b83356132b181612cda565b92506020848101359250604085013567ffffffffffffffff808211156132d657600080fd5b818701915087601f8301126132ea57600080fd5b8135818111156132fc576132fc612bed565b61330e601f8201601f19168501612c03565b9150808252888482850101111561332457600080fd5b80848401858401376000848284010152508093505050509250925092565b600082613351576133516131e9565b500690565b634e487b7160e01b600052600160045260246000fd5b634e487b7160e01b600052602160045260246000fdfea2646970667358221220693313c61a998d79d0e9b250367bd14ac439bd3d1d1f36bf50317fc99059456d64736f6c63430008110033",
  "devdoc": {
    "kind": "dev",
    "methods": {
      "constructor": {
        "params": {
          "_accessControlRegistry": "AccessControlRegistry contract address",
          "_adminRoleDescription": "Admin role description",
          "_manager": "Manager address"
        }
      },
      "containsBytecode(address)": {
        "details": "An account not containing any bytecode does not indicate that it is an EOA or it will not contain any bytecode in the future. Contract construction and `SELFDESTRUCT` updates the bytecode at the end of the transaction.",
        "returns": {
          "_0": "If the account contains bytecode"
        }
      },
      "dapiNameToDataFeedId(bytes32)": {
        "params": {
          "dapiName": "dAPI name"
        },
        "returns": {
          "_0": "Data feed ID"
        }
      },
      "getBalance(address)": {
        "params": {
          "account": "Account address"
        },
        "returns": {
          "_0": "Account balance"
        }
      },
      "getBlockBasefee()": {
        "returns": {
          "_0": "Current block basefee"
        }
      },
      "getBlockNumber()": {
        "returns": {
          "_0": "Current block number"
        }
      },
      "getBlockTimestamp()": {
        "returns": {
          "_0": "Current block timestamp"
        }
      },
      "getChainId()": {
        "returns": {
          "_0": "Chain ID"
        }
      },
      "multicall(bytes[])": {
        "params": {
          "data": "Array of calldata of batched calls"
        },
        "returns": {
          "returndata": "Array of returndata of batched calls"
        }
      },
      "readDataFeedWithDapiNameHash(bytes32)": {
        "params": {
          "dapiNameHash": "dAPI name hash"
        },
        "returns": {
          "timestamp": "Data feed timestamp",
          "value": "Data feed value"
        }
      },
      "readDataFeedWithDapiNameHashAsOevProxy(bytes32)": {
        "params": {
          "dapiNameHash": "dAPI name hash"
        },
        "returns": {
          "timestamp": "Data feed timestamp",
          "value": "Data feed value"
        }
      },
      "readDataFeedWithId(bytes32)": {
        "params": {
          "dataFeedId": "Data feed ID"
        },
        "returns": {
          "timestamp": "Data feed timestamp",
          "value": "Data feed value"
        }
      },
      "readDataFeedWithIdAsOevProxy(bytes32)": {
        "params": {
          "dataFeedId": "Data feed ID"
        },
        "returns": {
          "timestamp": "Data feed timestamp",
          "value": "Data feed value"
        }
      },
      "setDapiName(bytes32,bytes32)": {
        "details": "While a data feed ID refers to a specific Beacon or Beacon set, dAPI names provide a more abstract interface for convenience. This means a dAPI name that was pointing to a Beacon can be pointed to a Beacon set, then another Beacon set, etc.",
        "params": {
          "dapiName": "Human-readable dAPI name",
          "dataFeedId": "Data feed ID the dAPI name will point to"
        }
      },
      "tryMulticall(bytes[])": {
        "params": {
          "data": "Array of calldata of batched calls"
        },
        "returns": {
          "returndata": "Array of returndata of batched calls",
          "successes": "Array of success conditions of batched calls"
        }
      },
      "updateBeaconSetWithBeacons(bytes32[])": {
        "details": "As an oddity, this function still works if some of the IDs in `beaconIds` belong to Beacon sets rather than Beacons. This can be used to implement hierarchical Beacon sets.",
        "params": {
          "beaconIds": "Beacon IDs"
        },
        "returns": {
          "beaconSetId": "Beacon set ID"
        }
      },
      "updateBeaconWithSignedData(address,bytes32,uint256,bytes,bytes)": {
        "details": "The signed data here is intentionally very general for practical reasons. It is less demanding on the signer to have data signed once and use that everywhere.",
        "params": {
          "airnode": "Airnode address",
          "data": "Update data (an `int256` encoded in contract ABI)",
          "signature": "Template ID, timestamp and the update data signed by the Airnode",
          "templateId": "Template ID",
          "timestamp": "Signature timestamp"
        },
        "returns": {
          "beaconId": "Updated Beacon ID"
        }
      },
      "updateOevProxyDataFeedWithSignedData(address,bytes32,bytes32,uint256,bytes,bytes[])": {
        "details": "For when the data feed being updated is a Beacon set, an absolute majority of the Airnodes that power the respective Beacons must sign the aggregated value and timestamp. While doing so, the Airnodes should refer to data signed to update an absolute majority of the respective Beacons. The Airnodes should require the data to be fresh enough (e.g., at most 2 minutes-old), and tightly distributed around the resulting aggregation (e.g., within 1% deviation), and reject to provide an OEV proxy data feed update signature if these are not satisfied.",
        "params": {
          "data": "Update data (an `int256` encoded in contract ABI)",
          "dataFeedId": "Data feed ID",
          "oevProxy": "OEV proxy that reads the data feed",
          "packedOevUpdateSignatures": "Packed OEV update signatures, which include the Airnode address, template ID and these signed with the OEV update hash",
          "timestamp": "Signature timestamp",
          "updateId": "Update ID"
        }
      },
      "withdraw(address)": {
        "details": "This does not require the caller to be the beneficiary because we expect that in most cases, the OEV beneficiary will be a contract that will not be able to make arbitrary calls. Our choice can be worked around by implementing a beneficiary proxy.",
        "params": {
          "oevProxy": "OEV proxy"
        }
      }
    },
    "title": "First version of the contract that API3 uses to serve data feeds",
    "version": 1
  },
  "userdoc": {
    "kind": "user",
    "methods": {
      "DAPI_NAME_SETTER_ROLE_DESCRIPTION()": {
        "notice": "dAPI name setter role description"
      },
      "accessControlRegistry()": {
        "notice": "AccessControlRegistry contract address"
      },
      "adminRole()": {
        "notice": "Admin role"
      },
      "adminRoleDescription()": {
        "notice": "Admin role description"
      },
      "containsBytecode(address)": {
        "notice": "Returns if the account contains bytecode"
      },
      "dapiNameHashToDataFeedId(bytes32)": {
        "notice": "dAPI name hash mapped to the data feed ID"
      },
      "dapiNameSetterRole()": {
        "notice": "dAPI name setter role"
      },
      "dapiNameToDataFeedId(bytes32)": {
        "notice": "Returns the data feed ID the dAPI name is set to"
      },
      "getBalance(address)": {
        "notice": "Returns the account balance"
      },
      "getBlockBasefee()": {
        "notice": "Returns the current block basefee"
      },
      "getBlockNumber()": {
        "notice": "Returns the current block number"
      },
      "getBlockTimestamp()": {
        "notice": "Returns the current block timestamp"
      },
      "getChainId()": {
        "notice": "Returns the chain ID"
      },
      "manager()": {
        "notice": "Address of the manager that manages the related AccessControlRegistry roles"
      },
      "multicall(bytes[])": {
        "notice": "Batches calls to the inheriting contract and reverts as soon as one of the batched calls reverts"
      },
      "oevProxyToBalance(address)": {
        "notice": "Accumulated OEV auction proceeds for the specific proxy"
      },
      "readDataFeedWithDapiNameHash(bytes32)": {
        "notice": "Reads the data feed with dAPI name hash"
      },
      "readDataFeedWithDapiNameHashAsOevProxy(bytes32)": {
        "notice": "Reads the data feed as the OEV proxy with dAPI name hash"
      },
      "readDataFeedWithId(bytes32)": {
        "notice": "Reads the data feed with ID"
      },
      "readDataFeedWithIdAsOevProxy(bytes32)": {
        "notice": "Reads the data feed as the OEV proxy with ID"
      },
      "setDapiName(bytes32,bytes32)": {
        "notice": "Sets the data feed ID the dAPI name points to"
      },
      "tryMulticall(bytes[])": {
        "notice": "Batches calls to the inheriting contract but does not revert if any of the batched calls reverts"
      },
      "updateBeaconSetWithBeacons(bytes32[])": {
        "notice": "Updates the Beacon set using the current values of its Beacons"
      },
      "updateBeaconWithSignedData(address,bytes32,uint256,bytes,bytes)": {
        "notice": "Updates a Beacon using data signed by the Airnode"
      },
      "updateOevProxyDataFeedWithSignedData(address,bytes32,bytes32,uint256,bytes,bytes[])": {
        "notice": "Updates a data feed that the OEV proxy reads using the aggregation signed by the absolute majority of the respective Airnodes for the specific bid"
      },
      "withdraw(address)": {
        "notice": "Withdraws the balance of the OEV proxy to the respective beneficiary account"
      }
    },
    "notice": "Api3ServerV1 serves data feeds in the form of Beacons, Beacon sets, dAPIs, with optional OEV support for all of these. The base Beacons are only updateable using signed data, and the Beacon sets are updateable based on the Beacons, optionally using PSP. OEV proxy Beacons and Beacon sets are updateable using OEV-signed data. Api3ServerV1 does not support Beacons to be updated using RRP or PSP.",
    "version": 1
  },
  "storageLayout": {
    "storage": [
      {
        "astId": 176,
        "contract": "contracts/api3-server-v1/Api3ServerV1.sol:Api3ServerV1",
        "label": "adminRoleDescription",
        "offset": 0,
        "slot": "0",
        "type": "t_string_storage"
      },
      {
        "astId": 1797,
        "contract": "contracts/api3-server-v1/Api3ServerV1.sol:Api3ServerV1",
        "label": "_dataFeeds",
        "offset": 0,
        "slot": "1",
        "type": "t_mapping(t_bytes32,t_struct(DataFeed)1791_storage)"
      },
      {
        "astId": 3898,
        "contract": "contracts/api3-server-v1/Api3ServerV1.sol:Api3ServerV1",
        "label": "_oevProxyToIdToDataFeed",
        "offset": 0,
        "slot": "2",
        "type": "t_mapping(t_address,t_mapping(t_bytes32,t_struct(DataFeed)1791_storage))"
      },
      {
        "astId": 3904,
        "contract": "contracts/api3-server-v1/Api3ServerV1.sol:Api3ServerV1",
        "label": "oevProxyToBalance",
        "offset": 0,
        "slot": "3",
        "type": "t_mapping(t_address,t_uint256)"
      },
      {
        "astId": 1619,
        "contract": "contracts/api3-server-v1/Api3ServerV1.sol:Api3ServerV1",
        "label": "dapiNameHashToDataFeedId",
        "offset": 0,
        "slot": "4",
        "type": "t_mapping(t_bytes32,t_bytes32)"
      }
    ],
    "types": {
      "t_address": {
        "encoding": "inplace",
        "label": "address",
        "numberOfBytes": "20"
      },
      "t_bytes32": {
        "encoding": "inplace",
        "label": "bytes32",
        "numberOfBytes": "32"
      },
      "t_int224": {
        "encoding": "inplace",
        "label": "int224",
        "numberOfBytes": "28"
      },
      "t_mapping(t_address,t_mapping(t_bytes32,t_struct(DataFeed)1791_storage))": {
        "encoding": "mapping",
        "key": "t_address",
        "label": "mapping(address => mapping(bytes32 => struct DataFeedServer.DataFeed))",
        "numberOfBytes": "32",
        "value": "t_mapping(t_bytes32,t_struct(DataFeed)1791_storage)"
      },
      "t_mapping(t_address,t_uint256)": {
        "encoding": "mapping",
        "key": "t_address",
        "label": "mapping(address => uint256)",
        "numberOfBytes": "32",
        "value": "t_uint256"
      },
      "t_mapping(t_bytes32,t_bytes32)": {
        "encoding": "mapping",
        "key": "t_bytes32",
        "label": "mapping(bytes32 => bytes32)",
        "numberOfBytes": "32",
        "value": "t_bytes32"
      },
      "t_mapping(t_bytes32,t_struct(DataFeed)1791_storage)": {
        "encoding": "mapping",
        "key": "t_bytes32",
        "label": "mapping(bytes32 => struct DataFeedServer.DataFeed)",
        "numberOfBytes": "32",
        "value": "t_struct(DataFeed)1791_storage"
      },
      "t_string_storage": {
        "encoding": "bytes",
        "label": "string",
        "numberOfBytes": "32"
      },
      "t_struct(DataFeed)1791_storage": {
        "encoding": "inplace",
        "label": "struct DataFeedServer.DataFeed",
        "members": [
          {
            "astId": 1788,
            "contract": "contracts/api3-server-v1/Api3ServerV1.sol:Api3ServerV1",
            "label": "value",
            "offset": 0,
            "slot": "0",
            "type": "t_int224"
          },
          {
            "astId": 1790,
            "contract": "contracts/api3-server-v1/Api3ServerV1.sol:Api3ServerV1",
            "label": "timestamp",
            "offset": 28,
            "slot": "0",
            "type": "t_uint32"
          }
        ],
        "numberOfBytes": "32"
      },
      "t_uint256": {
        "encoding": "inplace",
        "label": "uint256",
        "numberOfBytes": "32"
      },
      "t_uint32": {
        "encoding": "inplace",
        "label": "uint32",
        "numberOfBytes": "4"
      }
    }
  }
}